:020000040800F2
:10000000000002200D1100080D0F00085D1100080E
:100010000F0F0008110F0008130F00080000000068
:10002000000000000000000000000000912F000808
:10003000150F00080000000031300008953000085E
:100040005D1100085D1100085D1100085D110008D8
:100050005D1100085D1100085D1100085D110008C8
:100060005D1100085D1100085D1100085D110008B8
:100070005D1100085D1100085D1100085D110008A8
:100080005D1100085D1100085D1100085D11000898
:100090005D1100085D1100085D1100085D11000888
:1000A0005D1100085D1100085D1100085D11000878
:1000B0005D1100085D1100085D1100085D11000868
:1000C0005D1100085D1100085D1100085D11000858
:1000D0005D1100085D1100085D1100085D11000848
:1000E0005D1100085D1100085D1100085D11000838
:1000F0005D1100085D1100085D1100085D11000828
:100100005D1100085D1100085D1100085D11000817
:100110005D1100085D1100085D110008190F00084D
:100120005D1100085D1100085D1100085D110008F7
:100130005D1100085D1100085D1100085D110008E7
:100140005D1100085D1100085D1100085D110008D7
:100150005D1100085D1100085D1100085D110008C7
:100160005D1100085D1100085D1100085D110008B7
:100170005D1100085D1100085D110008000000001D
:080180005D1100085D1100088B
:1001900010B5054C237833B9044B13B10448AFF3C1
:1001A00000800123237010BD5408002000000000CF
:1001B000A44C000808B5034B1BB103490348AFF337
:1001C000008008BD0000000058080020A44C000872
:1001D00053B94AB9002908BF00281CBF4FF0FF31AE
:1001E0004FF0FF3000F072B9ADF1080C6DE904CEAC
:1001F00000F006F8DDF804E0DDE9022304B0704702
:100200002DE9F047089E04468846002B4BD18A42D0
:10021000154667D9B2FA82F24AB1C2F1200701FA53
:1002200002F320FA07F7954047EA030894404FEAA3
:10023000154E230CB8FBFEF71FFA85FC0EFB178842
:1002400043EA084307FB0CF1994209D9EB1807F17F
:10025000FF3080F01B81994240F21881023F2B440D
:100260005B1AA4B2B3FBFEF00EFB103344EA034466
:1002700000FB0CFCA44509D92C1900F1FF3380F0D8
:100280000781A44540F2048102382C4440EA07402B
:10029000A4EB0C0400271EB1D4400023C6E90043A0
:1002A0003946BDE8F0878B4209D9002E00F0EB807B
:1002B0000027C6E9000138463946BDE8F087B3FAA1
:1002C00083F7002F47D18B4202D3824200F2FA809B
:1002D000841A61EB030301209846002EE0D0C6E9A2
:1002E0000048DDE702B9FFDEB2FA82F2002A40F0F0
:1002F0008F80491B4FEA154E1FFA85F80127B1FB85
:10030000FEFC230C0EFB1C1143EA014308FB0CF11D
:10031000994207D9EB180CF1FF3002D2994200F252
:10032000CD808446591AA3B2B1FBFEF00EFB101427
:1003300043EA044408FB00F8A04507D92C1900F152
:10034000FF3302D2A04500F2B6801846A4EB0804A1
:1003500040EA0C409FE7C7F1200CBB4022FA0CFE9C
:100360004EEA030E01FA07F420FA0CF521FA0CF319
:100370004FEA1E482543B3FBF8F92C0C08FB193350
:100380001FFA8EFA44EA034309FB0AF49C4202FA7C
:1003900007F200FA07F10BD91EEB030309F1FF3056
:1003A00080F087809C4240F28480A9F10209734466
:1003B0001B1BADB2B3FBF8F008FB103345EA034456
:1003C00000FB0AFAA24508D91EEB040400F1FF3332
:1003D0006BD2A24569D90238744440EA0940A0FBB7
:1003E0000289A4EB0A044C45C2464B4654D351D073
:1003F000002E69D0B1EB0A0564EB030404FA0CFC8F
:10040000FD40FC404CEA0505C6E90054002747E7DB
:10041000C2F1200320FA03F7954001FA02F021FA15
:1004200003F34FEA154E3843010CB3FBFEF71FFAF6
:1004300085F80EFB173341EA034107FB08F38B42B3
:1004400004FA02F407D9691807F1FF3C2FD28B4256
:100450002DD9023F2944CB1A81B2B3FBFEF00EFB2B
:10046000103341EA034100FB08F38B4207D96918B6
:1004700000F1FF3C17D28B4215D902382944C91A22
:1004800040EA07473BE73746304609E70746E7E6D5
:100490001846FBE64145ABD2B8EB020A69EB0E0207
:1004A00001381346A4E76046E9E7184695E7674632
:1004B000D1E781467CE702382C4447E7ACF1020CD7
:1004C0002B442FE7384608E73746E9E6704700BF78
:1004D00008B501224FF40041034801F04DF96420B2
:1004E00000F06AFEF5E700BF0008024008B5084CBE
:1004F00000224FF40041204601F03EF900224FF463
:100500000051204601F038F9642000F055FEEEE776
:100510000004024038B50546154C0021204602F083
:1005200071F90421204602F06DF923685D639D6333
:10053000104C00228021204601F01EF901224FF4C8
:100540008071204601F018F901224FF480512046B5
:1005500001F012F900224FF40051204601F00CF98D
:1005600001224FF48061204601F006F938BD00BF3A
:10057000DC0C00200010024008B5054B1860054B4C
:100580001868002302221946806803F081FB08BD29
:10059000700800201000002010B5013801280AD88A
:1005A00014464FF0FF3392B20748006802F028FB70
:1005B00040B9204610BD03F0F7FA092303604FF05D
:1005C000FF30F7E70520F5E770080020022801D882
:1005D0000020704708B503F0E7FA092303604FF0E5
:1005E000FF3008BD08B503F0DFFA092303604FF0C0
:1005F000FF3008BD08B548B94FF0FF330122084865
:10060000006802F06AFB40B9012008BD03F0CCFA93
:10061000092303604FF0FF30F7E70520F5E700BF3F
:100620007008002008B5022804D84FF400534B602E
:10063000002008BD03F0B8FA09230360F8E70000C2
:1006400008B50A480A4B03604FF4E13343600023C6
:100650008360C36003610C2242618361C36102F065
:10066000A0FA00B908BD00F00DFBFBE774080020FC
:100670000010014008B50A480A4B03604FF4E1330B
:10068000436000238360C36003610C224261836185
:10069000C36102F086FA00B908BD00F0F3FAFBE787
:1006A000B80800200044004008B50A480A4B03601F
:1006B0004FF4E133436000238360C36003610C2285
:1006C00042618361C36102F06CFA00B908BD00F0B9
:1006D000D9FAFBE7FC0800200048004000B58DB0C7
:1006E00000230793089309930A930B9303683B4AEB
:1006F000934208D03A4A934229D03A4A934249D089
:100700000DB05DF804FB00210191374B5A6C42F0AB
:1007100010025A645A6C02F010020192019A02917E
:100720001A6B42F001021A631B6B03F00103029380
:10073000029B4FF4C06307930223089303230A9399
:1007400007230B9307A9294800F02CFFD8E70021C5
:100750000391254B1A6C42F400321A641A6C02F4AD
:1007600000320392039A04911A6B42F008021A6352
:100770001B6B03F008030493049B6023079302237D
:10078000089303230A9307230B9307A9184800F043
:1007900009FFB5E700210591134B1A6C42F4802242
:1007A0001A641A6C02F480220592059A06911A6B5B
:1007B00042F002021A631B6B03F002030693069BCE
:1007C0004FF4406307930223089303230A930723FC
:1007D0000B9307A9074800F0E5FE91E700100140E0
:1007E0000044004000480040003802400000024041
:1007F000000C02400004024000B585B000230093C5
:100800000193029303931548154A02604FF4803216
:10081000426083600361037680F82030C362114A2E
:100820008262C3600122C26180F83030426100F010
:1008300071FD68B902230093012301930023029301
:100840006946064800F092FD28B905B05DF804FB42
:1008500000F018FAEEE700F015FAF6E7400900207C
:10086000002001400100000F30B58BB0002305933C
:100870000693079308930993026803F1804303F5F5
:1008800090339A4201D00BB030BD0024019403F59F
:100890008C335A6C42F480725A645A6C02F480723F
:1008A0000192019A02941A6B42F004021A631A6BC5
:1008B00002F004020292029A03941A6B42F00102BF
:1008C0001A631A6B02F001020392039A04941A6BE2
:1008D00042F002021A631B6B03F002030493049BB1
:1008E0003E2305930325069505A9094800F05AFE05
:1008F000DC2305930695079405A9064800F052FEEF
:1009000005950695079405A9034800F04BFEBAE744
:10091000000802400000024000040240034B036054
:10092000034B0B6080231360704700BF900B0020C7
:100930009009002070B58EB00F4C07AD26460FCE43
:100940000FC596E8070085E80700002107A802F018
:1009500040FA0A4B18606D461C340FCC0FC594E862
:10096000070085E807000021684602F032FA044BD0
:1009700018600EB070BD00BFBC4C00088809002094
:100980008C0900202DE9F0478CB0002407940894CE
:1009900009940A940B940194544B1A6B42F004028C
:1009A0001A631A6B02F004020192019A02941A6B04
:1009B00042F080021A631A6B02F080020292029ADD
:1009C00003941A6B42F001021A631A6B02F00102DF
:1009D0000392039A04941A6B42F002021A631A6B90
:1009E00002F002020492049A05941A6B42F010027B
:1009F0001A631A6B02F010020592059A06941A6B9C
:100A000042F008021A631B6B03F008030693069B6F
:100A1000DFF8E4A022464FF40041504600F0ACFE5F
:100A2000334F22464FF45651384600F0A5FE0122BE
:100A30004FF48041384600F09FFEDFF8C08001226D
:100A40004FF48051404600F097FE22464FF420417B
:100A5000404600F091FE274D22464FF48071284613
:100A600000F08AFE012242F20301284600F084FED3
:100A70004FF40049CDF81C900126089609940A9479
:100A800007A9504600F08EFD4FF4EB4307930896FC
:100A900009940A9407A9384600F084FDCDF81C900B
:100AA0000894099407A9384600F07CFD4FF43043C0
:100AB0000793089609940A9407A9404600F072FD2E
:100AC00042F203130793089609940A9407A928464B
:100AD00000F068FD4FF4006307930894099407A998
:100AE000284600F05FFD0CB0BDE8F08700380240FA
:100AF00000100240000C02400008024000040240C6
:100B000008B50B480B4B03600B4B4360002383601D
:100B1000C3604FF48042026143618361C361036239
:100B200000F030FE00B908BD00F0ACF8FBE700BFF4
:100B3000E40B002000540040A086010030B589B0CD
:100B40000023039304930593069307930268144BC1
:100B50009A4201D009B030BD00250195114C236B9C
:100B600043F002032363236B03F002030193019B11
:100B7000C0230393122304930323069304230793B0
:100B800003A9094800F00EFD0295236C43F40013FD
:100B90002364236C03F400130293029BDAE700BF83
:100BA00000540040003802400004024008B5274CC1
:100BB00000220121204600F0DFFD4FF4FA7002F020
:100BC0003EF901221146204600F0D6FD4FF4FA709E
:100BD00002F035F900220221204600F0CDFD4FF44D
:100BE000FA7002F02CF901220221204600F0C4FD27
:100BF0004FF4FA7002F023F9154D00224FF48041B2
:100C0000284600F0B9FD4FF4FA7002F018F90122FD
:100C10004FF48041284600F0AFFD4FF4FA7002F027
:100C20000EF900224FF40051204600F0A5FD4FF4CC
:100C3000FA7002F004F901224FF40051204600F04E
:100C40009BFD4FF4FA7002F0FAF8B0E7000C024096
:100C50000010024008B5FFF73BFCFFF747FC0020FF
:100C6000FFF758FC012002F0EAF8F4E708B5026843
:100C7000034B9A4200D008BD00F08CFAFBE700BF9E
:100C80000014004072B6FEE700B595B03022002196
:100C900008A802F0B3FF002303930493059306937F
:100CA00007930193214A116C41F080511164126C39
:100CB00002F080520192019A02931D4B1A6842F48D
:100CC00080421A601B6803F480430293029B012355
:100CD00008934FF48033099302230E934FF480025C
:100CE0000F92192210924FF4A872119212930423BA
:100CF000139308A800F020FE98B90F230393022352
:100D00000493002305934FF4A05306934FF48053AC
:100D10000793052103A801F05FF820B915B05DF82D
:100D200004FBFFF7AFFFFFF7ADFF00BF0038024045
:100D30000070004008B500F013FAFFF7A5FFFFF7B9
:100D400021FEFFF7DDFE00F015F8FFF755FD00F07E
:100D50005FF90748FFF710FCFFF772FCFFF78AFC0A
:100D6000FFF7A2FCFFF7E6FD02F02EF8FEE700BF5A
:100D7000FC08002008B50D480D4B03604FF482734A
:100D8000436000238360C360036143614FF40072DA
:100D90008261C3610362436283620A23C36201F01A
:100DA0000FF900B908BDFFF76DFFFBE7380C002015
:100DB000003C004000B589B00023039304930593E1
:100DC000069307930268154B9A4202D009B05DF86A
:100DD00004FB0021019103F5FE331A6C42F400423A
:100DE0001A641A6C02F400420192019A02911A6B81
:100DF00042F004021A631B6B03F004030293029B8C
:100E00004FF4E05303930223049303230693062332
:100E1000079303A9024800F0C5FBD7E7003C004058
:100E20000008024000B583B0002200920D4B596CBF
:100E300041F480415964596C01F48041009100995A
:100E40000192196C41F0805119641B6C03F08053BE
:100E50000193019B0F216FF0010000F061FB03B0D3
:100E60005DF804FB0038024030B589B00446002329
:100E70000193214B1A6C42F020021A641B6C03F0A0
:100E800020030193019B02A903A801F07BF8069BB4
:100E9000C3B901F057F8194BA3FB00239B0C013B8E
:100EA0001748184A026040F2E732C26043600023EC
:100EB00003618360836101F011FB054630B1284670
:100EC00009B030BD01F03EF84000E4E70C4801F005
:100ED0009BF905460028F2D1372000F055FB0F2C76
:100EE00001D90125EBE700222146372000F018FB4D
:100EF000054B1C60E3E700BF0038024083DE1B4364
:100F0000900C00200014004008000020FEE7FEE7DF
:100F1000FEE7FEE77047000008B5024801F0BDF9A2
:100F200008BD00BF900C002010B503460C4A0D49C7
:100F30000D48006840B10C4800680344521A9342BF
:100F400006D8094A136010BD0748084C0460F2E750
:100F500002F02AFE0C2303604FF0FF30F3E700BFDE
:100F60000000022000040000D80C0020D84A002015
:100F7000034AD2F8883043F47003C2F888307047CF
:100F800000ED00E00268094B9A4200D0704782B041
:100F900000230193064B5A6C42F001025A645B6CC9
:100FA00003F001030193019B02B070470000014070
:100FB0000038024000B587B00023019302930393E9
:100FC0000493059302680F4B9A4202D007B05DF874
:100FD00004FB002300930C4B1A6B42F010021A63BF
:100FE0001B6B03F010030093009B4FF420630193ED
:100FF000022302930123059301A9044800F0D2FAC9
:10100000E4E700BF00000140003802400010024049
:1010100010B596B00024129413941494159410945F
:10102000119409940A940B940C940D940E940F94BB
:101030002022214601A802F0E1FD3248324B036034
:10104000A723436084606323C360046144618461B7
:1010500001F044FA00283FD116A94FF4805341F81B
:10106000103D284801F042FB002838D1254801F006
:1010700060FA002836D100231093119310A921485B
:1010800001F046FC002830D16023099300220A9227
:101090000B920C920D920E920F9209A9194801F031
:1010A000ABFA28BB042209A9164801F0A5FA10BB27
:1010B0000023019302930393049305934FF400528A
:1010C0000692089301A90F4801F066FCB0B90D48DB
:1010D000FFF770FF16B010BDFFF7D4FDBCE7FFF7B8
:1010E000D1FDC3E7FFF7CEFDC5E7FFF7CBFDCBE7AB
:1010F000FFF7C8FDD6E7FFF7C5FDD9E7FFF7C2FD4B
:10110000E5E700BFDC0C002000000140DFF834D030
:101110000D480E490E4A002302E0D458C45004334F
:10112000C4188C42F9D30B4A0B4C002301E0136026
:101130000432A242FBD3FFF71BFF02F03BFDFFF797
:10114000F9FD704700000220000000205408002034
:10115000404D000854080020D44A0020FEE700005B
:1011600008B50B4B1A6842F400721A601A6842F410
:1011700080621A601A6842F480721A60032000F0DC
:10118000BDF90F20FFF770FEFFF74CFE002008BDF1
:10119000003C0240034A1168034B1B780B44136068
:1011A000704700BF240D002004000020014B186888
:1011B000704700BF240D002038B50446FFF7F6FF46
:1011C0000546B4F1FF3F02D0044B1B781C44FFF7E7
:1011D000EDFF401BA042FAD338BD00BF0400002041
:1011E0004A4B5A6822F440325A605A6841680A43AE
:1011F0005A600268536823F480735360026853682E
:10120000016943EA012353600268536823F0407385
:1012100053600268536881680B43536002689368A7
:1012200023F40063936002689368C1680B43936082
:10123000826A374B9A424BD00268936823F07063FE
:10124000936002689368816A0B43936002689368B5
:1012500023F04053936002689368C16A0B43936024
:101260000268936823F00203936002689368017E2A
:1012700043EA4103936090F82030002B33D1026899
:10128000536823F4006353600268D36A23F4700345
:10129000D3620168CB6AC269013A43EA0253CB6266
:1012A0000268936823F4007393600268936890F86F
:1012B000301043EA412393600268936823F480630B
:1012C000936002689368416943EA812393607047A1
:1012D0000268936823F0706393600268936823F058
:1012E00040539360BCE70268536843F40063536063
:1012F0000268536823F46043536001684B68426A94
:10130000013A43EA42334B60BEE700BF002301408D
:101310000100000F38B310B50446036C43B1236CD1
:1013200013F0100F0BD00120002384F83C3010BDC7
:10133000FFF79AFA0023636484F83C30EFE7236CEC
:1013400023F4885323F0020343F00203236420466E
:10135000FFF746FF00206064236C23F0030343F093
:1013600001032364E0E701207047000030B482B03D
:101370000023019390F83C30012B00F0B78001234B
:1013800080F83C300B68092B3ED90568EA689BB2AF
:1013900003EB43031E3B072404FA03F322EA03038F
:1013A000EB600568EA688C680B8803EB43031E3B1F
:1013B00004FA03F31343EB604B68062B3AD8056835
:1013C0006A6B03EB8303053B1F2404FA03F322EA51
:1013D00003036B6305686A6B4B6803EB8303053B90
:1013E0000C8804FA03F313436B630268404B9A4280
:1013F00050D002683E4B9A4255D0002380F83C30D2
:10140000184602B030BC704705682A699BB203EBEE
:101410004303072404FA03F322EA03032B6105685C
:101420002A698C680B8803EB430304FA03F3134324
:101430002B61C1E70C2B16D805682A6B03EB8303DD
:10144000233B1F2404FA03F322EA03032B630568FA
:101450002A6B4B6803EB8303233B0C8804FA03F3EA
:1014600013432B63C1E70568EA6A03EB8303413B3F
:101470001F2404FA03F322EA0303EB620568EA6A15
:101480004B6803EB8303413B0C8804FA03F31343DB
:10149000EB62AAE70B68122BABD1164A536843F4F0
:1014A00080035360A5E70B68103B012BA5D8114AB8
:1014B000536843F4000353600B68102B9DD10E4B0F
:1014C0001B6802F1467202F52E3202F28332A2FB51
:1014D00003239B0C03EB83035A00019202E0019B60
:1014E000013B0193019B002BF9D186E7022088E79D
:1014F000002001400023014000000020074AD3687B
:1015000023F4E0631B041B0C000200F4E0601843AA
:1015100040F0BF6040F40030D060704700ED00E064
:1015200030B4174BDB68C3F30223C3F10704042C68
:1015300028BF04241D1D062D18D9033B4FF0FF358D
:1015400005FA04F421EA0401994005FA03F322EABA
:101550000303194300280BDB0901C9B200F1604005
:1015600000F5614080F8001330BC70470023E5E7C8
:1015700000F00F000901C9B2024B1954F4E700BF93
:1015800000ED00E014ED00E0002807DB00F01F0292
:10159000400901239340024A42F82030704700BFBF
:1015A00000E100E000230F2B00F2DC80F0B482B0F9
:1015B0005DE086685F000324BC4026EA0406CC6830
:1015C000BC4034438460466826EA02064C68C4F393
:1015D00000129A403243426056E0DC08083450F86A
:1015E000247003F0070296000F22B24027EA020798
:1015F0000A69B2403A4340F8242059E0072200E04B
:101600000022B2403A430234574E46F82420574A4B
:101610009468EA4302EA04064F6817F4801F01D079
:1016200045EA0406514CA660E46802EA04064F68E5
:1016300017F4001F01D045EA04064C4CE6606468CC
:1016400002EA04064F6817F4003F01D045EA040699
:10165000464C6660246822404E6816F4803F01D0F4
:1016600045EA0402414C226001330F2B77D8012256
:101670009A400C6804EA0205AA42F5D14C6804F0CD
:101680000304013C012C94D94A6802F00302032AA6
:1016900009D0C4685E000322B24024EA02048A68CA
:1016A000B2402243C2604A6802F00302022A94D088
:1016B00004685E000322B24024EA02044A6802F091
:1016C0000302B240224302604A6812F4403FCBD08A
:1016D00000220192264A546C44F480445464526CB3
:1016E00002F480420192019A9C08A61C1E4A52F8FC
:1016F000267003F0030296000F22B24027EA020789
:101700001C4A90423FF47CAF02F5806290421AD0AE
:1017100002F58062904218D002F58062904216D0A5
:1017200002F58062904214D002F58062904212D09D
:1017300002F58062904210D002F5806290423FF440
:101740005DAF08225DE701225BE7022259E7032231
:1017500057E7042255E7052253E7062251E702B076
:10176000F0BC7047704700BF00380140003C0140AA
:10177000003802400000024012B90904816170473C
:1017800081617047002800F0C880F8B5044690F8E1
:101790003D30002B75D0242384F83D302268136837
:1017A00023F0010313602268136843F400431360BD
:1017B0002268136823F40043136000F0C3FB6268DF
:1017C000584B9A4262D8584B98428CBF0023012351
:1017D000002B40F0A480554BA3FB00239B0C2168F9
:1017E0004A6822F03F021A434A6025682A6A22F0BA
:1017F0003F0266684B498E424ED8013313432B6239
:101800002568E96921F44F4121F0FF016368454AE9
:1018100093424BD801385B00B0FBF3F30133C3F3C1
:101820000B03042B38BF04230B43EB6121680B68C7
:1018300023F0C003E269206A024313430B6021686E
:101840008B6823F4034323F0FF032269E06802431B
:1018500013438B602168CB6823F0FF036269A069A2
:1018600002431343CB602268136843F00103136003
:1018700000202064202384F83D30206384F83E005B
:10188000F8BD80F83C30FFF759F984E7284B9842BF
:101890008CBF002301239BE74FF4967101FB03F3F8
:1018A0002449A1FB03139B090133A7E7A268BAB936
:1018B000461E03EB4307B6FBF7F60136C6F30B06ED
:1018C000B6FA86F6760936BBC2B9013803EB430394
:1018D000B0FBF3F30133C3F30B0242F40043A3E77D
:1018E000461E03EB830707EB8707B6FBF7F60136C7
:1018F000C6F30B06B6FA86F67609E4E7013803EB81
:10190000830303EB8303B0FBF3F20132C2F30B0258
:1019100042F4404388E7012386E701207047012015
:10192000AEE700BFA08601007F841E0083DE1B435C
:10193000FF083D00D34D6210002800F0E98170B52A
:1019400082B00446036813F0010F3BD0A74B9B689D
:1019500003F00C03042B2CD0A44B9B6803F00C0366
:10196000082B21D06368B3F5803F4FD0B3F5A02F8B
:1019700052D09E4B1A6822F480321A601A6822F400
:1019800080221A606368002B50D0FFF70FFC0546D9
:10199000964B1B6813F4003F14D1FFF707FC401B64
:1019A0006428F5D90320B8E1904B5B6813F4800FED
:1019B000D8D08E4B1B6813F4003F03D06368002B14
:1019C00000F0A881236813F0020F55D0874B9B6865
:1019D00013F00C0F3ED0854B9B6803F00C03082BD3
:1019E00033D0E368002B68D0814B01221A60FFF7E7
:1019F000DDFB05467D4B1B6813F0020F54D1FFF74A
:101A0000D5FB401B0228F5D9032086E1774A1368ED
:101A100043F480331360B5E7744B1A6842F48022B4
:101A20001A601A6842F480321A60ABE7FFF7BEFB17
:101A300005466E4B1B6813F4003FC3D0FFF7B6FB9F
:101A4000401B6428F5D9032067E1684B5B6813F4F9
:101A5000800FC6D1654B1B6813F0020F04D0E368FA
:101A6000012B01D0012058E1604A136823F0F803EC
:101A7000216943EAC1031360236813F0080F40D0C3
:101A8000636963B35B4B01221A60FFF78FFB054666
:101A9000564B5B6F13F0020F33D1FFF787FB401BF0
:101AA0000228F5D9032038E1504A136823F0F803DF
:101AB000216943EAC1031360DEE74D4B00221A603F
:101AC000FFF774FB0546494B1B6813F0020FD3D098
:101AD000FFF76CFB401B0228F5D903201DE1454BA5
:101AE00000221A60FFF762FB0546404B5B6F13F064
:101AF000020F06D0FFF75AFB401B0228F5D903203E
:101B00000BE1236813F0040F79D0384B1B6C13F0F2
:101B1000805F33D100230193344B1A6C42F0805222
:101B20001A641B6C03F080530193019B0125324B17
:101B30001B6813F4807F23D0A368012B34D0052BBE
:101B400038D02A4B1A6F22F001021A671A6F22F05E
:101B500004021A67A368002B36D0FFF727FB06465E
:101B6000224B1B6F13F0020F48D1FFF71FFB801BA6
:101B700041F288339842F3D90320CEE00025D6E71E
:101B80001D4A136843F480731360FFF70FFB06468A
:101B9000194B1B6813F4807FCED1FFF707FB801B26
:101BA0000228F5D90320B8E0104A136F43F001036F
:101BB0001367CFE70D4B1A6F42F004021A671A6FD2
:101BC00042F001021A67C5E7FFF7F0FA0646074B35
:101BD0001B6F13F0020F11D0FFF7E8FA801B41F2E0
:101BE00088339842F3D9032097E000BF00380240C1
:101BF00000004742800E474200700040EDB9A369E3
:101C0000002B00F08980484A926802F00C02082AF2
:101C100051D0022B17D0454B00221A60FFF7C6FAAD
:101C20000446414B1B6813F0007F42D0FFF7BEFA19
:101C3000001B0228F5D903206FE03B4A136C23F008
:101C400080531364DBE7394B00221A60FFF7AEFACA
:101C50000546354B1B6813F0007F06D0FFF7A6FA48
:101C6000401B0228F5D9032057E0E369226A134399
:101C7000626A43EA8213A26A5208013A43EA0243C3
:101C8000E26A43EA0263284A5360284B01221A6041
:101C9000FFF78CFA0446244B1B6813F0007F06D133
:101CA000FFF784FA001B0228F5D9032035E0002055
:101CB00033E0002031E0012B31D01B4B5B6803F493
:101CC0008001E269914201D0012026E003F03F0249
:101CD000216A8A4201D001201FE0616A47F6C07282
:101CE0001A40B2EB811F01D0012016E003F440310D
:101CF000A26A5208013AB1EB024F01D001200CE078
:101D000003F07063E26AB3EB026F0AD0012004E0D3
:101D100001207047012000E0002002B070BD0120CA
:101D2000FBE70020F9E700BF0038024060004742AF
:101D3000264B9B6803F00C03042B44D0082B01D0E6
:101D4000234870472DE9F04B204B5A6802F03F02C0
:101D50005B6813F4800F13D01C4B5968C1F38811D2
:101D600000231C48A1FB0001FEF732FA174B5B6809
:101D7000C3F3014301335B00B0FBF3F0BDE8F08B2C
:101D8000124B5B68C3F388131E4600275C010025D5
:101D9000E41A65EB0705A90141EA9461A001001B63
:101DA00061EB0501CB0043EA5073C400A01943EB7B
:101DB00007018B0243EA9053840220461946002310
:101DC000FEF706FAD2E70348704700BF003802402A
:101DD0000024F40040787D01002800F09E8070B55A
:101DE0000446504B1B6803F007038B4209D2CBB269
:101DF0004C4A1370136803F007038B4201D0012093
:101E000070BD236813F0020F17D013F0040F04D035
:101E1000454A936843F4E0539360236813F0080F36
:101E200004D0414A936843F4604393603E4A936808
:101E300023F0F003A068034393600D46236813F07A
:101E4000010F32D06368012B21D09A1E012A25D9B7
:101E5000354A126812F0020F61D033498A6822F0C5
:101E6000030213438B60FFF7A1F906462E4B9B68D4
:101E700003F00C036268B3EB820F16D0FFF796F9FC
:101E8000801B41F288339842F0D90320B8E7264AF4
:101E9000126812F4003FE0D10120B1E7224A126833
:101EA00012F0007FD9D10120AAE71E4B1B6803F076
:101EB0000703AB4209D9EAB21A4B1A701B6803F048
:101EC0000703AB4201D001209AE7236813F0040F07
:101ED00006D0154A936823F4E053E1680B439360FE
:101EE000236813F0080F07D00F4A936823F4604368
:101EF000216943EAC1039360FFF71AFF0A4B9B680D
:101F0000C3F30313094AD35CD840094B1860094B4B
:101F10001868FEF7A9FF002072E701207047012032
:101F20006EE700BF003C024000380240084D000848
:101F30000000002008000020014B1868704700BF17
:101F40000000002008B5FFF7F7FF044B9B68C3F3C0
:101F50008223034AD35CD84008BD00BF003802404A
:101F6000184D000808B5FFF7E7FF044B9B68C3F363
:101F70004233034AD35CD84008BD00BF003802405A
:101F8000184D00080F2303600B4B9A6802F0030200
:101F900042609A6802F0F00282609A6802F4E052AD
:101FA000C2609B68DB0803F4E0530361034B1B68CA
:101FB00003F007030B60704700380240003C02400A
:101FC00000285AD010B50446436A33B94368B3F5C4
:101FD000827F05D00023C36102E0002303614361D7
:101FE0000023A36294F85130002B40D0022384F8E0
:101FF00051302268136823F040031360636803F4D0
:102000008273A26802F404421343E26802F400629D
:102010001343226902F002021343626902F00102D3
:102020001343A26902F400721343E26902F038021A
:102030001343226A02F080021343A26A02F40052A0
:10204000216813430B60638B03F00403626A02F0A0
:102050001002216813434B602268D36923F40063A4
:10206000D36100206065012384F8513010BD84F8ED
:1020700050302046FEF79EFEB8E701207047000072
:1020800030B4036A23F001030362056A426884697D
:1020900024F073040B681C4325F002058B682B4366
:1020A000104DA84203D005F58065A84205D123F064
:1020B0000803CD682B4323F004030A4DA84203D044
:1020C00005F58065A84205D122F440724D6915439B
:1020D0008A692A43426084614A684263036230BC71
:1020E000704700BF0000014030B4036A23F48073DE
:1020F0000362036A4268C46924F073040D682C43C8
:1021000023F400738D6843EA0523124DA84203D0DF
:1021100005F58065A84206D123F40063CD6843EA43
:10212000052323F480630B4DA84203D005F5806599
:10213000A84207D122F440524D6942EA05128D6946
:1021400042EA05124260C4614A68C263036230BC5D
:10215000704700BF0000014030B4036A23F480538D
:102160000362036A4468C26922F4E6420D6842EAE7
:10217000052223F400538D6843EA0533094DA84234
:1021800003D005F58065A84204D124F480444D694C
:1021900044EA85144460C2614A680264036230BC48
:1021A000704700BF0000014010B4036A046A24F0C5
:1021B00001040462846924F0F00444EA021223F06A
:1021C0000A030B43826103625DF8044B704710B44D
:1021D000036A23F0100303628469036A24F47044E1
:1021E00044EA023223F0A00343EA0113826103624E
:1021F0005DF8044B7047836823F07003194341F086
:10220000070181607047000090F83D30DBB2012B80
:1022100001D001207047022380F83D300268D36866
:1022200043F00103D3600368184A934220D0B3F10E
:10223000804F1DD0A2F57C42934219D002F58062F6
:10224000934215D002F58062934211D002F5784294
:1022500093420DD002F57052934209D0A2F5943208
:10226000934205D01A6842F001021A6000207047BC
:102270009A6802F00702062A05D01A6842F00102A5
:102280001A60002070470020704700BF0000014026
:102290007047704770477047704710B50446036831
:1022A0001A6912F0020F11D0DA6812F0020F0DD085
:1022B0006FF002021A610123037703689B6913F030
:1022C000030F70D0FFF7E6FF0023237723681A6916
:1022D00012F0040F12D0DA6812F0040F0ED06FF073
:1022E00004021A610223237723689B6913F4407F59
:1022F0005FD02046FFF7CEFF0023237723681A69BB
:1023000012F0080F12D0DA6812F0080F0ED06FF03A
:1023100008021A61042323772368DB6913F0030F93
:102320004ED02046FFF7B6FF0023237723681A69B3
:1023300012F0100F12D0DA6812F0100F0ED06FF0FA
:1023400010021A61082323772368DB6913F4407FA6
:102350003DD02046FFF79EFF0023237723681A69AC
:1023600012F0010F03D0DA6812F0010F36D12368A2
:102370001A6912F0800F03D0DA6812F0800F34D19E
:1023800023681A6912F0400F03D0DA6812F0400F88
:1023900032D123681A6912F0200F03D0DA6812F0E4
:1023A000200F30D110BDFFF774FF2046FFF773FFF9
:1023B0008AE72046FFF76DFF2046FFF76CFF9BE79B
:1023C0002046FFF766FF2046FFF765FFACE7204693
:1023D000FFF75FFF2046FFF75EFFBDE76FF00102EA
:1023E0001A612046FEF742FCC1E76FF080021A61D5
:1023F000204600F0FBFAC3E76FF040021A61204666
:10240000FFF74AFFC5E76FF020021A61204600F08F
:10241000ECFAC7E70368304A904212D0B0F1804F1F
:102420000FD0A2F57C4290420BD002F58062904220
:1024300007D002F58062904203D002F578429042C4
:1024400003D123F070034A681343234A90422AD0F1
:10245000B0F1804F27D0A2F57C42904223D002F504
:10246000806290421FD002F5806290421BD002F53C
:102470007842904217D002F57052904213D002F584
:10248000806290420FD002F5806290420BD0A2F59C
:102490009832904207D002F58062904203D002F554
:1024A0008062904203D123F44073CA68134323F03F
:1024B00080034A69134303608B68C3620B688362BD
:1024C000054B984203D003F58063984201D10B6914
:1024D00003630123436170470000014038B310B526
:1024E000044690F83D30EBB1022384F83D30211DC5
:1024F0002068FFF78FFF012384F8463084F83E30D0
:1025000084F83F3084F8403084F8413084F8423019
:1025100084F8433084F8443084F8453084F83D3002
:10252000002010BD80F83C30FEF72CFDDCE70120D8
:10253000704738B310B5044690F83D30EBB1022334
:1025400084F83D30211D2068FFF764FF012384F8E3
:10255000463084F83E3084F83F3084F8403084F8C8
:10256000413084F8423084F8433084F8443084F8B1
:10257000453084F83D30002010BD80F83C30FFF736
:1025800087FEDCE70120704730B4036A23F01003B4
:102590000362036A4468826922F4E6420D6842EAF3
:1025A000052223F020038D6843EA0513114DA8424C
:1025B00003D005F58065A84206D123F08003CD68DD
:1025C00043EA051323F040030A4DA84203D005F562
:1025D0008065A84207D124F440644D6944EA85042B
:1025E0008D6944EA8504446082614A6882630362BB
:1025F00030BC70470000014038B590F83C30012BEA
:1026000066D00D460446012380F83C300C2A5DD884
:10261000DFE802F0075C5C5C1E5C5C5C335C5C5C6D
:1026200047000068FFF72CFD2268936943F0080318
:1026300093612268936923F004039361226893698C
:1026400029690B4393610020002384F83C3038BD96
:102650000068FFF799FF2268936943F40063936170
:102660002268936923F480639361226893692969DE
:1026700043EA012393610020E6E70068FFF734FD99
:102680002268D36943F00803D3612268D36923F039
:102690000403D3612268D36929690B43D361002005
:1026A000D2E70068FFF758FD2268D36943F400635E
:1026B000D3612268D36923F48063D3612268D3692C
:1026C000296943EA0123D3610020BDE70120BBE76C
:1026D0000220BCE710B4846824F47F4442EA032358
:1026E0000B43234383605DF8044B704790F83C3004
:1026F000012B73D010B50446012380F83C3002232F
:1027000080F83D300268936823F47F4323F0770319
:1027100093600B68402B56D011D9702B3BD01FD83B
:10272000502B45D0602B19D1CA6849680068FFF763
:102730004EFD60212068FFF75EFD002024E0102B95
:1027400004D009D9202B01D0302B07D1194620689D
:10275000FFF751FD002017E0002BF7D0012013E018
:10276000B3F5805F0FD0B3F5005FF7D1CB684A684F
:1027700089680068FFF7AEFF2268936843F48043DE
:102780009360002000E00020012384F83D30002306
:1027900084F83C3010BDCB684A6889680068FFF750
:1027A00099FF2268936843F0770393600020EBE77A
:1027B000CA6849680068FFF7F7FC50212068FFF7F6
:1027C0001AFD0020E0E7CA6849680068FFF7ECFCE2
:1027D00040212068FFF70FFD0020D5E70220704759
:1027E00010B401F01F01012303FA01F4036A23EA84
:1027F00004030362036A8A40134303625DF8044BD7
:10280000704700000A46002945D190F83E30DBB2FF
:1028100013F1FF3318BF0123002B73D110B5002A29
:1028200055D1022380F83E3011460446012200684B
:10283000FFF7D6FF2368354A934203D002F5806242
:10284000934203D15A6C42F400425A6423682F4ADF
:1028500093424CD0B3F1804F49D0A2F57C429342D1
:1028600045D002F58062934241D002F580629342E6
:102870003DD002F57842934239D002F5705293422E
:1028800035D0A2F59432934231D01A6842F0010259
:102890001A60002035E0042909D008290FD090F8EB
:1028A0004130DBB213F1FF3318BF0123B4E790F8D6
:1028B0003F30DBB213F1FF3318BF0123ACE790F8D0
:1028C0004030DBB213F1FF3318BF0123A4E7042A21
:1028D00005D0082A07D0022380F84130A4E702235C
:1028E00080F83F30A0E7022380F840309CE79A68E8
:1028F00002F00702062A07D01A6842F001021A60A5
:10290000002010BD012070470020FAE700000140C0
:1029100090F83C30012B3BD030B4012380F83C30A0
:10292000022380F83D3003685C689D6824F07004E1
:102930000A6822435A600368164A93421AD0B3F1D8
:10294000804F17D0A2F57C42934213D002F58062EB
:1029500093420FD002F5806293420BD002F5784289
:10296000934207D002F57052934203D0A2F59432FD
:10297000934204D125F080054A6815439D600123E8
:1029800080F83D30002380F83C30184630BC70475A
:10299000022070470000014090F83C30012B22D00B
:1029A000012380F83C30CB6823F440738A681343DA
:1029B00023F480634A68134323F400630A681343D3
:1029C00023F480530A69134323F400534A691343E1
:1029D00023F48043CA69134302685364002380F8D8
:1029E0003C3018467047022070477047704700001F
:1029F0002DE9F04B04460268136923F44053C16883
:102A00000B43136183680269134342691343C2692C
:102A10001A430168CB6823F4164323F00C031343D5
:102A2000CB600268536923F4407381690B4353619F
:102A300003683A4A934206D002F58062934202D07C
:102A4000FFF780FA01E0FFF78DFAE369B3F5004F75
:102A500030D04FF00009061849EB090716EB000BC0
:102A600047EB090C4FEACC0343EA5B734FEACB0216
:102A700093469C4663689A009B0F10EB0B0049EB52
:102A80000C01FDF7A5FB264DA5FB00325109642280
:102A900002FB110213013233A5FB03235B0903F090
:102AA000F00202EB011203F00F03216813448B6064
:102AB000BDE8F08B83464FF0000C06184CEB0C077A
:102AC00016EB000847EB0C094FEAC90343EA5873B9
:102AD0004FEAC8029046994662680021921841EB7D
:102AE00001031BEB08004CEB0901FDF771FB0C4DDA
:102AF000A5FB00325109642202FB1102D3003233DC
:102B0000A5FB03235B095A0002F4F87202EB0112E1
:102B100003F00703216813448B60C9E700100140EC
:102B20001F85EB512DE9F04104460F4616469846A5
:102B3000069D23681B6837EA03030CBF01230023AB
:102B4000B3422BD1B5F1FF3FF3D02DB1FEF72EFBF1
:102B5000A0EB0800A842ECD9226802F10C0353E86C
:102B6000003F23F4D0730C3242E800310029F3D146
:102B7000226802F1140353E8003F23F001031432EA
:102B800042E800310029F3D1202384F83D3084F855
:102B90003E30002384F83C30032000E00020BDE8F4
:102BA000F08158B310B5044690F83D300BB32423A0
:102BB00084F83D302268D36823F40053D360204664
:102BC000FFF716FF2268136923F49043136122680C
:102BD000536923F02A0353612268D36843F40053F6
:102BE000D36000202064202384F83D3084F83E30F8
:102BF00010BD80F83C30FDF771FDD8E7012070472B
:102C00002DE9F04182B01E4690F83D30DBB2202B1A
:102C100054D104460D469046002954D0002A54D081
:102C200090F83C30012B52D0012380F83C30002337
:102C30000364212380F83D30FEF7B8FA0746A4F874
:102C40002480A4F82680A368B3F5805F05D04FF0F8
:102C50000008002384F83C3011E0236913B14FF0E1
:102C60000008F6E7A8460025F3E738F8023B22689B
:102C7000C3F308035360E38C013B9BB2E384E38C12
:102C80009BB273B100963B46002280212046FFF79D
:102C900049FFF0B9002DE8D015F8012B23685A60E0
:102CA000E9E700963B46002240212046FFF73AFF25
:102CB000034680B9202284F83D2000E00223184614
:102CC00002B0BDE8F0810123F9E70123F7E7022311
:102CD000F5E70323F3E70323F1E72DE9F04182B0A1
:102CE0001E4690F83E30DBB2202B5BD104460D46E9
:102CF000904600295AD0002A5AD090F83C30012B37
:102D000058D0012380F83C3000230364222280F84D
:102D10003E200363FEF74AFA0746A4F82C80A4F885
:102D20002E80A368B3F5805F05D04FF00008002324
:102D300084F83C3016E0236913B14FF00008F6E741
:102D4000A8460025F3E723685B68C3F3080328F867
:102D5000023B03E023685B682B700135E38D013B88
:102D60009BB2E385E38D9BB2BBB100963B4600224C
:102D700020212046FFF7D6FEF0B9002DE3D0A3684E
:102D8000B3F5805FE6D013B92369002BE2D0236846
:102D90005B6803F07F032B70DFE7202384F83E306D
:102DA000002000E0022002B0BDE8F0810120FAE737
:102DB0000120F8E70220F6E70320F4E7842801D099
:102DC000033070470020704708B500F037FD002041
:102DD00008BD2DE9F04387B004460F464569A5B10B
:102DE000866996B1D0F80480D0F80090B0F9080058
:102DF000FFF7E4FF22690296019500903B464946A1
:102E0000404600F0ADFC059013E065682668D4F8F4
:102E10001080B4F90800FFF7D1FF05AB01930090D3
:102E20003B461FFA88F23146284600F0D3FC0128C1
:102E300003D1059807B0BDE8F0830020FAE708B594
:102E4000034600B90123184600F03CFE002008BDEF
:102E500000F1080343604FF0FF328260C3600361FA
:102E600000230360704700230361704743684B6091
:102E70009A688A609A6851609960086103680133B2
:102E80000360704730B40D68B5F1FF3F02D000F128
:102E9000080202E0026904E01A4653681C68AC426A
:102EA000FAD953684B6099608A6051600861036881
:102EB0000133036030BC70470369426881689160E8
:102EC0008268416851605A68824206D000220261DD
:102ED0001A68013A1A601868704782685A60F5E704
:102EE00082B0002301930D4B1B68B3F1FF3F08D064
:102EF0004FF0500383F31188BFF36F8FBFF34F8FF1
:102F0000FEE74FF0500383F31188BFF36F8FBFF3D9
:102F10004F8F019B002BFCD002B070470C000020AB
:102F200008480068006880F308884FF0000080F3CC
:102F3000148862B661B6BFF34F8FBFF36F8F00DFA7
:102F400000BF000008ED00E0DFF80C00016841F46C
:102F5000700101607047000088ED00E04FF0807361
:102F600040F8043C21F0010140F8081C054B40F8F2
:102F70000C3C40F8202C6FF0020340F8243C44380D
:102F8000704700BFE12E00080000000000000000B4
:102F9000074B19680868B0E8F04F80F30988BFF361
:102FA0006F8F4FF0000080F311887047AFF30080FF
:102FB000504900204FF0500383F31188BFF36F8F07
:102FC000BFF34F8F0A4A136801331360012B00D0FF
:102FD0007047084B1B6813F0FF0FF9D04FF05003F8
:102FE00083F31188BFF36F8FBFF34F8FFEE700BFEE
:102FF0000C00002004ED00E0094B1B6843B94FF0C2
:10300000500383F31188BFF36F8FBFF34F8FFEE739
:10301000013B034A13600BB983F31188704700BF6B
:103020000C00002000000000000000000000000074
:10303000EFF30980BFF36F8F154B1A681EF0100F66
:1030400008BF20ED108A20E9F04F10602DE909003B
:103050004FF0500080F31188BFF34F8FBFF36F8F95
:1030600000F056FD4FF0000080F3118809BC19688C
:103070000868B0E8F04F1EF0100F08BFB0EC108ADF
:1030800080F30988BFF36F8F704700BFAFF30080F4
:103090005049002008B54FF0500383F31188BFF367
:1030A0006F8FBFF34F8F00F007FC18B1034B4FF049
:1030B00080521A60002383F3118808BD04ED00E0FC
:1030C000084A0023136008490B60084B1B68084935
:1030D000A1FB03139B09013B06490B600723136007
:1030E000704700BF10E000E018E000E000000020A2
:1030F000D34D621014E000E03A4B1A683A4B9A4202
:103100000DD0384B1A68394B9A4211D14FF0500309
:1031100083F31188BFF36F8FBFF34F8FFEE74FF03C
:10312000500383F31188BFF36F8FBFF34F8FFEE718
:1031300010B582B02E4B1A78D2B20192FF221A70CB
:103140001B78DBB28DF803309DF8033003F0500399
:10315000284A1370284B07221A6009E0264A136890
:10316000013B13609DF803305B00DBB28DF8033048
:103170009DF8033013F0800FF0D11F4B1B68032B19
:1031800008D04FF0500383F31188BFF36F8FBFF364
:103190004F8FFEE71B0203F4E063174A1360019BA5
:1031A000DBB2134A1370154B1A6842F470021A60AE
:1031B0001A6842F070421A60FFF782FF0024104B39
:1031C0001C60FFF7C1FE0F4A136843F040431360D1
:1031D000FFF7A6FE00F09CFCFFF782FE204602B03F
:1031E00010BD00BF00ED00E071C20F4170C20F4181
:1031F00000E400E0280D00202C0D002020ED00E070
:103200000C00002034EF00E0124A12F0070F1ED02D
:10321000D11D21F00701C1F5705313440A460E4831
:103220000260002141601344083B23F007030B4870
:10323000036059601960991A51601360084B196056
:10324000084B1960084B4FF000421A6070474FF46A
:103250007053E4E7340D002048490020300D002071
:103260003C490020384900203449002010B4134B59
:103270001A6882421BD359685C18844203D14068A3
:1032800001445960184641684418A24213D10C4CBD
:103290002468A2420DD05268114441601A68126835
:1032A0000260984200D018605DF8044B70471346E6
:1032B000DEE70460F5E70260F3E700BF484900205D
:1032C000300D002070B5044600F0EEFA3C4B1B6850
:1032D000BBB13C4B1B681C4267D1ACB1083414F045
:1032E000070F11D024F00704083404F007035BB182
:1032F0004FF0500383F31188BFF36F8FBFF34F8FED
:10330000FEE7FFF781FFE4E7002C50D02E4B1B684F
:10331000A3424ED32D4B1D6801E02B4615466A682B
:10332000A24202D22A68002AF7D1254A1268AA428C
:1033300041D01E6808362A681A606B681B1B102B68
:1033400010D9281910F0070F08D04FF0500383F35D
:103350001188BFF36F8FBFF34F8FFEE743606C6040
:10336000FFF784FF6A6818490B689B1A0B601849BD
:1033700009688B4201D216490B60124B1B6813433C
:103380006B6000232B60134A13680133136000F055
:103390001FFB16F0070F10D04FF0500383F3118876
:1033A000BFF36F8FBFF34F8FFEE70026EFE70026D6
:1033B000EDE70026EBE70026E9E7304670BD00BFE9
:1033C000300D0020344900203849002048490020B1
:1033D0003C49002040490020002834D038B504463C
:1033E000A0F1080550F8042C174909680A4208D1D1
:1033F0004FF0500383F31188BFF36F8FBFF34F8FEC
:10340000FEE750F8080C40B14FF0500383F31188E9
:10341000BFF36F8FBFF34F8FFEE722EA010244F83C
:10342000042C00F041FA54F8041C084A13680B44B9
:1034300013602846FFF71AFF054A1368013313602B
:1034400000F0C6FA38BD70473449002038490020E2
:1034500044490020084B1B681B683BB1064B1B68A6
:10346000DB68DB685A68054B1A607047034B4FF006
:10347000FF321A60704700BF54490020244A0020E0
:103480002DE9F04780469946089D099F0A9C266BC6
:1034900002F18042013A06EB820626F0070689B364
:1034A0000A4600230F2B07D8D05CE11881F83400BE
:1034B000D15C09B10133F5E7002384F84330062DD0
:1034C00000D90625E56265644FF0000AC4F848A0FB
:1034D000201DFFF7C8FC04F11800FFF7C4FC2461AD
:1034E000C5F10705A5616462C4F84CA084F850A03A
:1034F0004A4641463046FFF731FD206007B13C6047
:10350000BDE8F087002384F83430D8E738B50024CC
:1035100007E004EB840293000E481844FFF798FC80
:103520000134062CF5D90C4D2846FFF791FC0B4CC5
:103530002046FFF78DFC0A48FFF78AFC0948FFF791
:1035400087FC0948FFF784FC084B1D60084B1C6092
:1035500038BD00BF5C490020FC490020104A002013
:10356000304A00205C4A0020484A0020544900208C
:103570005849002010B50446FFF71CFD204A136887
:10358000013313601F4B1B685BB11F4B1B686BB98A
:103590001C4B1B68DA6AE36A9A4207D8194B1C6015
:1035A00004E0184B1C601368012B26D0174A1368DF
:1035B00001331360E36A01229A4015490868024307
:1035C0000A6003EB83039A00211D12481044FFF7A1
:1035D0004DFCFFF711FD0C4B1B686BB1094B1B68D1
:1035E000DA6AE36A9A4207D20B4B4FF080521A60B4
:1035F000BFF34F8FBFF36F8F10BDFFF787FFD5E786
:10360000E849002050490020444A0020F4490020A5
:10361000F84900205C49002004ED00E010B50446A4
:1036200090F8513033B9006BFFF7D6FE2046FFF714
:10363000D3FE10BD012B0AD0022BFAD04FF050035D
:1036400083F31188BFF36F8FBFF34F8FFEE7FFF750
:10365000C3FEEEE70F4B1B68D3B110B5FFF7AAFC12
:103660000D4BDB68DC68201DFFF726FC0B4A136856
:10367000013B1360074A1368013B1360FFF7BCFC72
:103680002046FFF7CBFF034B1B68002BE6D110BD94
:10369000704700BFEC4900205C4A0020E849002048
:1036A00008B5FFF7D7FF064B1B68012BF9D9054B6F
:1036B0004FF080521A60BFF34F8FBFF36F8FF0E768
:1036C0005C49002004ED00E070B504460E461D4B39
:1036D0001D681D4B18680430FFF7EEFB50B91A4BFC
:1036E0001B68DA6A012303FA02F218490B6823EA1D
:1036F00002030B60B4F1FF3F13D02C44124B1B6844
:103700005C60A54216D8124B18680F4B196804313B
:10371000FFF7B8FB0F4B1B68A34212D90D4B1C607F
:103720000FE0002EE9D0084B196804310A48FFF772
:103730009DFB06E0094B1868034B19680431FFF73D
:10374000A1FB70BD704A002050490020F8490020BC
:1037500054490020244A0020484A002058490020AB
:1037600070B586B00B9D0C9C45B94FF0500383F3A8
:103770001188BFF36F8FBFF34F8FFEE744B94FF04F
:10378000500383F31188BFF36F8FBFF34F8FFEE7B2
:1037900054260496049E542E08D04FF0500383F311
:1037A0001188BFF36F8FBFF34F8FFEE7049E256331
:1037B000022584F8515000250395029405AD01952A
:1037C0000A9D0095FFF75CFE2046FFF7D3FE0598A3
:1037D00006B070BD2DE9F04385B007468846154612
:1037E00099469000FFF76EFD08B306465420FFF798
:1037F00069FD0446B8B10663E4B1002384F8513092
:10380000039302940D9B01930C9B00934B462A4615
:1038100041463846FFF734FE2046FFF7ABFE012055
:1038200005B0BDE8F0833046FFF7D6FDE4E74FF082
:10383000FF30F5E74FF0FF30F2E7000010B588B039
:1038400000240594069407AA06A905A8FDF766F8C2
:10385000059B0293069B019300942346079A0D490A
:103860000D48FFF77DFF08B908B010BD4FF05003B9
:1038700083F31188BFF36F8FBFF34F8F074B4FF068
:10388000FF321A60064B01221A60064B1C60FFF7DC
:1038900033FCE9E7204D0008A1360008244A002047
:1038A000444A0020704A0020024A13680133136022
:1038B000704700BFF0490020F8B53A4B1B68002B59
:1038C00069D1394B1D6801351D60C5B9374B1B687F
:1038D0001B6843B14FF0500383F31188BFF36F8F20
:1038E000BFF34F8FFEE7314A1168314B1868106003
:1038F0001960304A136801331360FFF7ABFD2E4B9C
:103900001B68AB423DD900242C4B1B68DB6A03EBE0
:1039100083039A002A4B9B58012B00D90124294B81
:103920001B68002B3CD001243AE001241F4B1B688C
:103930001B6843B31D4B1B68DB68DE6873689D42E0
:1039400026D3371D3846FFF7B7FAB36A1BB106F125
:103950001800FFF7B1FAF36A01229A401A49086881
:1039600002430A6003EB83039A003946144810446B
:10397000FFF77CFAF26A114B1B68DB6A9A42D4D2D9
:10398000D4E70024D2E70C4B4FF0FF321A60BBE7BC
:10399000094A1360B8E70D4A136801331360002425
:1039A0002046F8BDF0490020704A0020544900200C
:1039B00058490020284A0020244A0020504900206D
:1039C0005C490020744A0020F84900202C4A00205D
:1039D00038B5334B1B6843B94FF0500383F311885C
:1039E000BFF36F8FBFF34F8FFEE7FFF7E3FA2C4B68
:1039F0001A68013A1A601B68002B4DD1294B1B68CD
:103A000023B90024FFF7F8FA204638BD0024264BDE
:103A10001B681BB3244BDB68DC6804F11800FFF75C
:103A20004BFA251D2846FFF747FAE36A01229A4020
:103A30001E49086802430A6003EB83039A00294683
:103A40001B481044FFF712FAE26A1A4B1B68DB6A44
:103A50009A42DCD3184B01221A60D8E70CB1FFF769
:103A6000F9FC164B1C6854B1FFF726FF10B1124B3E
:103A700001221A60013CF7D1104B00221A600E4B54
:103A80001B685BB10E4B4FF080521A60BFF34F8F33
:103A9000BFF36F8F0124B5E70024B3E70024B1E73B
:103AA000F0490020E8490020304A0020F849002071
:103AB0005C49002050490020744A00202C4A002014
:103AC00004ED00E010B5A8B104460F4B1B6843B1EC
:103AD0004FF0500383F31188BFF36F8FBFF34F8F05
:103AE000FEE7FFF7E1FE00212046FFF7EDFDFFF7BF
:103AF0006FFF38B9054B4FF080521A60BFF34F8FFC
:103B0000BFF36F8F10BD00BFF049002004ED00E04F
:103B1000204B1B681BB1204B01221A6070471E4BC3
:103B200000221A601D4B1B68B3FA83F3DBB2C3F1AA
:103B30001F0303EB83018A0019498A5842B94FF0E9
:103B4000500383F31188BFF36F8FBFF34F8FFEE7EE
:103B500010B413489A00D418A10001444C6864685A
:103B60004C601A4491000831084484420BD003EBA6
:103B700083039A000A4B13445B68DA68094B1A60A6
:103B80005DF8044B704761680548142202FB03028C
:103B90005160ECE7F0490020744A0020F849002009
:103BA0005C49002050490020014B1868704700BF55
:103BB0001000002070B50D4E0D4D761BB61006D0CE
:103BC0000024013455F8043B9847A642F9D1094E28
:103BD000094D761B01F066F8B61006D000240134BA
:103BE00055F8043B9847A642F9D170BD344D000802
:103BF000344D00083C4D0008344D0008F0B48607F1
:103C000043D0541E002A3ED0CAB2034602E014F14B
:103C1000FF3438D303F8012B9D07F8D1032C2BD99F
:103C2000CDB245EA05250F2C45EA054516D9A4F184
:103C300010073F0903F1200606EB071603F11002F7
:103C400042E9045542E902551032B242F8D104F07B
:103C50000F040137032C03EB07130DD91E46224630
:103C6000043A032A46F8045BFAD8221F22F0030222
:103C70000432134404F003042CB1C9B21C4403F809
:103C8000011B9C42FBD1F0BC704714460346C5E7BC
:103C90002DE9F0435D4C256883B0044688461646FE
:103CA0001F4615B1AB6B002B7ED0022E05D0012E26
:103CB00000F2A980002FC0F2A680636EDA0735D526
:103CC0002146284600F05EF9216B41B104F1400322
:103CD000994202D0284600F053FA00232363B4F936
:103CE0000C3000221806A261626061D423F44A639A
:103CF00023F00303022EA3811FD10025616E002053
:103D000004F1430243F00203A060C9074FF0010031
:103D1000A3812260C4E9042004D49B0502D4A06DD1
:103D200000F052FB284603B0BDE8F083A3899B0551
:103D3000C6D4A06D00F046FBC2E701AB6A4621463F
:103D4000284600F043FBA3891843A081002F36D1F9
:103D5000009F384600F068FB8046002842D0A389C7
:103D600043F08003A381AB6B7BB3009AB4F90C30B2
:103D7000C4F80080BA421CBF43F40063A381012E43
:103D800004BF43F00103A3819BB213F00802C4E90E
:103D900004871ED1A260656E15F00105BDD0002517
:103DA000284603B0BDE8F083284600F047F97CE7D9
:103DB0002169284600F0E4F9B4F90C3096E7B8F12F
:103DC000000FC6D0AB6B002BCFD1284600F036F9E0
:103DD000CBE7DA0704D57F420022A761A260DAE7C9
:103DE000A760D8E7DDF80090B94504D1B4F90C30EC
:103DF0004FF0FF3582E7484600F016FB804600286A
:103E0000F4D04F46ABE74FF0FF358BE710000020B2
:103E1000024B13B1024800F005B8704700000000E3
:103E2000AD400008002301461A46184600F020BEA7
:103E3000B1F90C309AB22DE9F0410C4611078046D9
:103E400044D4626843F40063002AA38159DDA56A63
:103E5000002D53D000229BB2D8F80060E169C8F869
:103E6000002013F4805240F0838001234046A8478D
:103E7000421C4AD0A389A56AE1695B0705D562683F
:103E8000236B801A0BB1E36BC01A02460023404635
:103E9000A847471C45D0B4F90C302269226023F4AE
:103EA00000630022A381DB04626000D52065216BE2
:103EB000C8F8006011B304F14003994202D04046B3
:103EC00000F05EF900202063BDE8F0812669AEB104
:103ED0002568266092070CBF63690023AD1BA360B1
:103EE0000AE02B463246676AE1694046B847002837
:103EF000A5EB000506442BDD002DF2DC0020BDE81B
:103F0000F081E26B002AA2DCF8E7D8F80030002B41
:103F1000B0D01D2B01D0162B2CD1C8F8006000208A
:103F2000EDE7D8F800101D291AD8154BB4F90C206C
:103F3000CB40DB4313F0010314D1256922F4006266
:103F4000C4E90053D504A281B1D50029AFD1ADE7B2
:103F5000A38943F04003A3814FF0FF30BDE8F08117
:103F6000B4F90C2042F04002A2814FF0FF30C6E7C6
:103F7000206D82E7A38943F04003A381BFE700BF20
:103F80000100402038B50D46044608B1836BA3B14B
:103F9000B5F90C00B8B16B6EDB0701D481051AD5F9
:103FA00020462946FFF744FF6B6EDA07044602D429
:103FB000AB899B050AD5204638BD00F03FF8B5F91E
:103FC0000C000028E7D10446204638BDA86D00F05B
:103FD000FBF9204638BDA86D00F0F4F9E0E700BF1A
:103FE00010B5002304468181C281C0E9003383609B
:103FF0004366C0E904338361194608225C30FFF749
:10400000FDFD07480749084A084BE362C4E9074039
:10401000C4E9091204F15800BDE8104000F0CEB91F
:10402000BD490008E14900081D4A00083D4A000852
:10403000014900F099B900BF554B000810B504467E
:10404000124800F0BFF9A26BD2B904F53B731048D7
:10405000C4F8E8320321C4F8E022E063C4F8E412B3
:1040600060680421FFF7BCFF01220921A068FFF767
:10407000B7FF02221221E068FFF7B2FF0123A3631A
:104080000248BDE8104000F09FB900BFB84A0020C8
:1040900031400008014800F095B900BFCC4A00202B
:1040A000014800F091B900BFCC4A002038B50A4C55
:1040B0000A4D641BA4100AD004F18043013B05EBB8
:1040C0008305013C55F804399847002CF9D1BDE827
:1040D000384000F0EDBD00BF404D00083C4D0008E9
:1040E000F8B5244F0C46064600F04AFCBB685D68F4
:1040F000C4F57E610F3125F00305294421F47F6169
:1041000021F00F01A1F58054B4F5805F07DB002199
:10411000304600F041FCBB682B44984204D0304646
:1041200000F034FC0020F8BD6142304600F034FC61
:1041300001300DD0104BBA6819682D1B45F00105F0
:104140003046091B5560196000F020FC0120F8BDC5
:104150000021304600F020FCBA68831A0F2BDEDD08
:10416000064C0549246843F00103001B53600860B6
:10417000D5E700BF44040020784A00204C08002006
:10418000002953D0F8B50C46064600F0F9FB54F868
:1041900004CC714F2CF00101A4F108056B18B8682C
:1041A0005A68984222F0030253D01CF0010F5A6063
:1041B00003EB02003BD154F808CC4068A5EB0C059A
:1041C00007F1080EAC687445614400F0010075D039
:1041D000D5F80CC0C4F80CC0CCF8084060B341F06E
:1041E00001036B606950B1F5007F50D34B0A042B7B
:1041F00070D88B0903F13904E40003F1380238194F
:104200003B590838984278D05A6822F003028A4213
:1042100071D99B689842F7D1C368C5E902039D60D4
:10422000C5603046BDE8F84000F0B0BB704740685C
:1042300000F001000028D2D19868484C1144A042F7
:1042400041F0010262D0DB68C36098606A60695027
:10425000C9E71CF0010F0A4407D154F8083CED1AD5
:104260001A44D5E90213CB6099603D4B1B6842F0BC
:10427000010193426960BD6004D83A4B3046196829
:10428000FFF72EFF3046BDE8F84000F07FBBC908BD
:1042900078684A1C012389108B40034307EBC20155
:1042A00057F832007B600839C5E9020147F83250FF
:1042B000C5603046BDE8F84000F068BB002845D135
:1042C0000A44D3E9021342F00100CB6099606860B0
:1042D000AA50D7E7142B08D9542B1ED80B0B03F187
:1042E0006F04E40003F16E0289E703F15C04E4006B
:1042F00003F15B0283E718468EE793107968012289
:1043000002FA03F30B437B60034686E7C7E90455D3
:10431000C5E902006A606950B4E7B3F5AA7F06D820
:10432000CB0B03F17804E40003F1770267E740F276
:104330005452934206D88B0C03F17D04E40003F140
:104340007C025CE74FF47E747E2258E741F0010264
:104350006A60196096E700BF440400204C04002006
:1043600050080020A84A00202DE9F84310F53877BE
:104370001FD0884606464FF00009D7E90154013D99
:1043800011D4A389012B05F1FF352146304606D90A
:10439000B4F90E30013302D0C04749EA00096B1C62
:1043A00004F16804EDD13F68002FE6D14846BDE82E
:1043B000F883B9464846BDE8F88300BF704700BFA0
:1043C000704700BF704700BF704700BF70B50C4614
:1043D000B1F90E10002996B015461E460FDAA289D3
:1043E000002312F08000336004D14FF480632B600F
:1043F00016B070BD402218462A6016B070BD6A46DD
:1044000000F010FC0028EADB019B03F47043A3F5E5
:104410000053B3FA83F35B094FF480624FF40060FA
:1044200033602A6016B070BD024B0146186800F078
:1044300003B800BF100000202DE9F04F01F10B057B
:10444000162D83B0064623D8102900F2B98000F05B
:1044500097FA102518230220C54F3B44A3F1080208
:104460005C68944200F06681636823F00303234490
:10447000D4E902515A68E96042F001028D60304689
:104480005A6000F083FA0834204603B0BDE8F08F8C
:1044900035F0070500F19480A94200F2918000F008
:1044A0006FFAB5F5FC7FC0F083816B0A00F08F8056
:1044B000042B00F24681AB0903F1390003F1380CFB
:1044C000C300AB4F3B44A3F108015C68A14206D195
:1044D0000CE0002A80F21D81E468A14206D06368E6
:1044E00023F003035A1B0F2AF3DD60463C69DFF813
:1044F00094C2644571D0636823F003035A1B0F2AEA
:1045000000F34481002AC7E904CC80F22681B3F588
:10451000007F80F06981DB08591C7A6857F8318088
:10452000C4F808804FF0010E9B100EFA03F307EB5E
:10453000C10E1343AEF10802E2607B6047F83140E0
:10454000C8F80C408210012494409C424BD81C4275
:1045500006D120F0030064001C4200F10400FAD0F0
:1045600007EBC009CE468046DEF80C309E4507D1E9
:1045700022E1002A80F22981DB689E4500F01C813F
:10458000596821F003014A1B0F2AF2DDD3E9028E9C
:104590005C1945F001055D6042F00105C8F80CE0CA
:1045A0003046CEF80880C7E90444C4E902CC65600F
:1045B0005A50019300F0EAF9019B03F1080463E704
:1045C00000240C232046336003B0BDE8F08F4FF485
:1045D000007340204FF03F0C73E77B68821001248A
:1045E00094409C42B3D9BC68636823F00309A94591
:1045F00003D3A9EB05030F2B7BDC5E4BDFF888A10F
:104600001A68DAF80030013305EB020800F048813F
:1046100008F5805808F10F0828F47F6828F00F0883
:104620004146304600F0B8F9B0F1FF3F834600F054
:10463000048104EB0900584500F2FD804E4A1368DE
:104640004344136000F04D81DAF8001001311BBFC4
:10465000ABEB00001B18CAF800B013601BF0070397
:1046600000F03481C3F10801C3F580538B44083353
:10467000D844C8F30B08A3EB080841463046019222
:1046800000F08AF9431C019A00F04681A0EB0B016F
:10469000414441F001011368C7F808B04344BC42EB
:1046A000CBF80410136015D0B9F10F0F40F2308130
:1046B0006068A9F10C0121F0070100F0010004EB92
:1046C000010C08434FF0050E0F296060CCE901EEA4
:1046D00000F23A81294A2A481168BC688B42016875
:1046E00088BF136062688B4222F0030288BF0360B8
:1046F000A7E0621943F0010345F00105656030460B
:10470000BA60536000F042F90834204603B0BDE8B7
:10471000F08F2344E1685A68A56842F00102E9601D
:1047200030468D605A6000F031F90834204603B0FD
:10473000BDE8F08FDC68A34208BF02303FF4D6AE7C
:1047400092E6142B71D9542B00F2AD802B0B03F1A0
:104750006F0003F16E0CC300B3E6234430465A6881
:1047600042F001025A60083400F010F98CE600BFF4
:1047700044040020A84A0020784A0020A04A0020D3
:10478000A44A00204C0400204C080020611945F088
:10479000010E42F00105C4F804E03046C7E90411F7
:1047A000C1E902CC4D60E25000F0F0F808346BE64D
:1047B000E80805F108034FE608F1010818F0030FB7
:1047C0000EF1080E7FF4D0AE52E019441C464A6840
:1047D000DB6854F8085F42F001024A603046EB6043
:1047E0009D6000F0D3F84FE65A0A042A35D9142AFE
:1047F0006FD802F15C01C9005B3207EB010E7958FA
:10480000AEF1080E8E4558D04A6822F003029A4253
:1048100002D989688E45F7D1D1F80CE07B68C4E9EC
:10482000021ECEF80840CC608CE603F15C0003F178
:104830005B0CC30045E6BC4272D0BC68626822F0E3
:1048400003029542A2EB050302D80F2B3FF751AFAD
:10485000304600F09BF8002416E69A0902F139016F
:10486000C9003832C9E7D9F80090994540F08380F3
:1048700010F0030FA9F1080300F1FF30F3D17B68BA
:1048800023EA04037B6064009C423FF6ACAE1CB993
:10489000A9E6640008F104081C42FAD040465FE62D
:1048A00008F11008BCE6B3F5AA7F26D8EB0B03F19C
:1048B000780003F1770CC30003E67B6892104FF099
:1048C000010808FA02F213437B60A8E74FF4805313
:1048D000CEE6542A29D81A0B02F16F01C9006E32B4
:1048E0008BE7C0F30B0100297FF4AEAE09EB0802A1
:1048F000B96842F001024A60ECE640F25452934239
:104900001CD8AB0C03F17D0003F17C0CC300D8E58F
:104910000123CBF804309BE701214FF00008BAE6F1
:10492000164A1368434413608EE6B2F5AA7F14D882
:10493000DA0B02F17801C90077325EE74FF47E733B
:104940007F204FF07E0CBCE504F108013046019257
:10495000FFF716FC019A1368BCE640F254518A42F4
:1049600005D89A0C02F17D01C9007C3245E74FF46D
:104970007E717E2241E77B6885E700BF784A002090
:104980000148FFF71FBD00BFBC4A00200148FFF7E8
:104990001BBD00BFBC4A002038B5074C00230546AC
:1049A00008462360FCF7C0FA431C00D038BD2368DA
:1049B000002BFBD02B6038BDD04A002010B50C4630
:1049C000B1F90E1000F058F9002803DB236D034401
:1049D000236510BDA38923F48053A38110BD00BFBC
:1049E0002DE9F0411646B1F90C201F46D3050C46BF
:1049F0000546B1F90E1007D50022022300F026F972
:104A0000B4F90C20B4F90E1022F48052A2813B4676
:104A100032462846BDE8F04100F014B810B50C4607
:104A2000B1F90E1000F012F9A389421C0EBF23F455
:104A3000805343F480532065A38110BDB1F90E105B
:104A400000F076B870B50D46084C114606461A4679
:104A5000284600232360FBF79FFD431C00D070BD58
:104A60002368002BFBD0336070BD00BFD04A00200C
:104A70002DE9F8432B4D0646286898460F46914687
:104A8000FFF7A0FC284B1C68D4F84831002B3DD020
:104A90005A681F2A0DDC02F1010C16BB0232C3F862
:104AA00004C0286843F82270FFF78EFC0020BDE8A0
:104AB000F8831E4B7BB34FF4C870FFF7B5FC034679
:104AC00048B3D4F848210021C0E900214FF0010C7F
:104AD000C4F848010A46C0F88811C0F88C11002EAD
:104AE000DCD003EB82010124C1F88890D3F888015F
:104AF00094402043022EC3F88801C1F80881CDD12B
:104B0000D3F88C110C43C3F88C41C7E704F5A673A6
:104B1000C4F84831BCE72868FFF756FC4FF0FF3077
:104B2000C5E700BF40040020284D000829440008C4
:104B300038B5074C0023054608462360FBF746FDC1
:104B4000431C00D038BD2368002BFBD02B6038BD40
:104B5000D04A002070B5002948D005460C4610B157
:104B6000836B002B48D0626EB4F90C30D00740D470
:104B7000990530D521462846FFF75AF9E36A0646DB
:104B800033B1E169284698470028B8BF4FF0FF3697
:104B9000A3891A063CD4216B41B104F14003994228
:104BA00002D02846FFF7ECFA00232363616C21B1A1
:104BB0002846FFF7E5FA00236364FFF76BFA636E9C
:104BC0000022DB07A2811FD5A06DFFF7F9FBFFF7DD
:104BD00067FA304670BDA06DFFF7F4FBB4F90C30F6
:104BE000002BC7D1666E16F0010616D0002630469F
:104BF00070BD002BFAD0BDE7FFF720FA626EB4F962
:104C00000C30D007F5D4B3E7A06DFFF7DDFBDBE791
:104C100021692846FFF7B4FABDE7A06DFFF7D4FB82
:104C2000304670BD38B50B46074C05461146184650
:104C300000232360FBF7F6FC431C00D038BD23683B
:104C4000002BFBD02B6038BDD04A002070B50D463C
:104C5000084C114606461A46284600232360FBF7F7
:104C6000C1FC431C00D070BD2368002BFBD0336017
:104C700070BD00BFD04A002070B50D46084C1146EB
:104C800006461A46284600232360FBF7B3FC431C64
:104C900000D070BD2368002BFBD0336070BD00BF17
:104CA000D04A0020F8B500BFF8BC08BC9E4670474B
:0C4CB000F8B500BFF8BC08BC9E46704779
:104CBC00004D0008AD0B00080000000000000000D3
:104CCC00800000000000000000000000F44C000810
:104CDC00550C0008000000000000000080000000DF
:104CEC000000000000000000556172745461736B89
:104CFC00000000004C65645461736B000000000000
:104D0C00000000000102030406070809000000006F
:104D1C000102030449444C45000000001800002027
:084D2C00D4B4FF7F0100000078
:084D3400113E0008B501000862
:044D3C0091010008D9
:104D40000024F4000100000010000000AAAAAAAA92
:104D500018000020000000000000000004030020F4
:104D60006C030020D40300200000000000000000BD
:104D70000000000000000000000000000000000033
:104D80000000000000000000000000000000000023
:104D90000000000000000000000000000000000013
:104DA0000000000000000000000000000000000003
:104DB00000000000000000000000000000000000F3
:104DC00000000000000000000000000000000000E3
:104DD00000000000000000000000000000000000D3
:104DE00000000000000000000000000000000000C3
:104DF00000000000000000000000000000000000B3
:104E000001000000000000000E33CDAB34126DE64F
:104E1000ECDE05000B0000000000000000000000B8
:104E20000000000000000000000000000000000082
:104E30000000000000000000000000000000000072
:104E40000000000000000000000000000000000062
:104E50000000000000000000000000000000000052
:10518000AC4A0020000000000000000044040020A1
:10519000440400204C0400204C040020540400204F
:1051A000540400205C0400205C04002064040020FF
:1051B000640400206C0400206C04002074040020AF
:1051C000740400207C0400207C040020840400205F
:1051D000840400208C0400208C040020940400200F
:1051E000940400209C0400209C040020A4040020BF
:1051F000A4040020AC040020AC040020B40400206F
:10520000B4040020BC040020BC040020C40400201E
:10521000C4040020CC040020CC040020D4040020CE
:10522000D4040020DC040020DC040020E40400207E
:10523000E4040020EC040020EC040020F40400202E
:10524000F4040020FC040020FC04002004050020DD
:10525000040500200C0500200C050020140500208A
:10526000140500201C0500201C050020240500203A
:10527000240500202C0500202C05002034050020EA
:10528000340500203C0500203C050020440500209A
:10529000440500204C0500204C050020540500204A
:1052A000540500205C0500205C05002064050020FA
:1052B000640500206C0500206C05002074050020AA
:1052C000740500207C0500207C050020840500205A
:1052D000840500208C0500208C050020940500200A
:1052E000940500209C0500209C050020A4050020BA
:1052F000A4050020AC050020AC050020B40500206A
:10530000B4050020BC050020BC050020C405002019
:10531000C4050020CC050020CC050020D4050020C9
:10532000D4050020DC050020DC050020E405002079
:10533000E4050020EC050020EC050020F405002029
:10534000F4050020FC050020FC05002004060020D8
:10535000040600200C0600200C0600201406002085
:10536000140600201C0600201C0600202406002035
:10537000240600202C0600202C06002034060020E5
:10538000340600203C0600203C0600204406002095
:10539000440600204C0600204C0600205406002045
:1053A000540600205C0600205C06002064060020F5
:1053B000640600206C0600206C06002074060020A5
:1053C000740600207C0600207C0600208406002055
:1053D000840600208C0600208C0600209406002005
:1053E000940600209C0600209C060020A4060020B5
:1053F000A4060020AC060020AC060020B406002065
:10540000B4060020BC060020BC060020C406002014
:10541000C4060020CC060020CC060020D4060020C4
:10542000D4060020DC060020DC060020E406002074
:10543000E4060020EC060020EC060020F406002024
:10544000F4060020FC060020FC06002004070020D3
:10545000040700200C0700200C0700201407002080
:10546000140700201C0700201C0700202407002030
:10547000240700202C0700202C07002034070020E0
:10548000340700203C0700203C0700204407002090
:10549000440700204C0700204C0700205407002040
:1054A000540700205C0700205C07002064070020F0
:1054B000640700206C0700206C07002074070020A0
:1054C000740700207C0700207C0700208407002050
:1054D000840700208C0700208C0700209407002000
:1054E000940700209C0700209C070020A4070020B0
:1054F000A4070020AC070020AC070020B407002060
:10550000B4070020BC070020BC070020C40700200F
:10551000C4070020CC070020CC070020D4070020BF
:10552000D4070020DC070020DC070020E40700206F
:10553000E4070020EC070020EC070020F40700201F
:10554000F4070020FC070020FC07002004080020CE
:10555000040800200C0800200C080020140800207B
:10556000140800201C0800201C080020240800202B
:10557000240800202C0800202C08002034080020DB
:10558000340800203C0800203C080020FFFFFFFFFB
:045590000000020015
:040000050800110DD1
:00000001FF
