:020000040800F2
:1000000000000220491E0008491C0008991E000833
:100010004B1C00084D1C00084F1C0008000000008D
:10002000000000000000000000000000E13C0008AB
:10003000511C000800000000813D0008E53D00085B
:10004000991E0008991E0008991E0008991E0008B4
:10005000991E0008991E0008991E0008991E0008A4
:10006000991E0008991E0008991E0008991E000894
:10007000991E0008991E0008991E0008991E000884
:10008000991E0008991E0008991E0008991E000874
:10009000991E0008991E0008991E0008991E000864
:1000A000991E0008991E0008991E0008991E000854
:1000B000991E0008991E0008991E0008991E000844
:1000C000991E0008991E0008991E0008991E000834
:1000D000991E0008991E0008991E0008991E000824
:1000E000991E0008991E0008991E0008991E000814
:1000F000991E0008991E0008991E0008991E000804
:10010000991E0008991E0008991E0008991E0008F3
:10011000991E0008991E0008991E0008551C000829
:10012000991E0008991E0008991E0008991E0008D3
:10013000991E0008991E0008991E0008991E0008C3
:10014000991E0008991E0008991E0008991E0008B3
:10015000991E0008991E0008991E0008991E0008A3
:10016000991E0008991E0008991E0008991E000893
:10017000991E0008991E0008991E00080000000042
:08018000991E0008991E0008F9
:1001C00010B5054C237833B9044B13B10448AFF391
:1001D00000800123237010BDC00900200000000032
:1001E0005C97000808B5034B1BB103490348AFF304
:1001F000008008BD00000000C40900205C970008D2
:1002000053B94AB9002908BF00281CBF4FF0FF317D
:100210004FF0FF3000F072B9ADF1080C6DE904CE7B
:1002200000F006F8DDF804E0DDE9022304B07047D1
:100230002DE9F047089E04468846002B4BD18A42A0
:10024000154667D9B2FA82F24AB1C2F1200701FA23
:1002500002F320FA07F7954047EA030894404FEA73
:10026000154E230CB8FBFEF71FFA85FC0EFB178812
:1002700043EA084307FB0CF1994209D9EB1807F14F
:10028000FF3080F01B81994240F21881023F2B44DD
:100290005B1AA4B2B3FBFEF00EFB103344EA034436
:1002A00000FB0CFCA44509D92C1900F1FF3380F0A8
:1002B0000781A44540F2048102382C4440EA0740FB
:1002C000A4EB0C0400271EB1D4400023C6E9004370
:1002D0003946BDE8F0878B4209D9002E00F0EB804B
:1002E0000027C6E9000138463946BDE8F087B3FA71
:1002F00083F7002F47D18B4202D3824200F2FA806B
:10030000841A61EB030301209846002EE0D0C6E971
:100310000048DDE702B9FFDEB2FA82F2002A40F0BF
:100320008F80491B4FEA154E1FFA85F80127B1FB54
:10033000FEFC230C0EFB1C1143EA014308FB0CF1ED
:10034000994207D9EB180CF1FF3002D2994200F222
:10035000CD808446591AA3B2B1FBFEF00EFB1014F7
:1003600043EA044408FB00F8A04507D92C1900F122
:10037000FF3302D2A04500F2B6801846A4EB080471
:1003800040EA0C409FE7C7F1200CBB4022FA0CFE6C
:100390004EEA030E01FA07F420FA0CF521FA0CF3E9
:1003A0004FEA1E482543B3FBF8F92C0C08FB193320
:1003B0001FFA8EFA44EA034309FB0AF49C4202FA4C
:1003C00007F200FA07F10BD91EEB030309F1FF3026
:1003D00080F087809C4240F28480A9F10209734436
:1003E0001B1BADB2B3FBF8F008FB103345EA034426
:1003F00000FB0AFAA24508D91EEB040400F1FF3302
:100400006BD2A24569D90238744440EA0940A0FB86
:100410000289A4EB0A044C45C2464B4654D351D042
:10042000002E69D0B1EB0A0564EB030404FA0CFC5E
:10043000FD40FC404CEA0505C6E90054002747E7AB
:10044000C2F1200320FA03F7954001FA02F021FAE5
:1004500003F34FEA154E3843010CB3FBFEF71FFAC6
:1004600085F80EFB173341EA034107FB08F38B4283
:1004700004FA02F407D9691807F1FF3C2FD28B4226
:100480002DD9023F2944CB1A81B2B3FBFEF00EFBFB
:10049000103341EA034100FB08F38B4207D9691886
:1004A00000F1FF3C17D28B4215D902382944C91AF2
:1004B00040EA07473BE73746304609E70746E7E6A5
:1004C0001846FBE64145ABD2B8EB020A69EB0E02D7
:1004D00001381346A4E76046E9E7184695E7674602
:1004E000D1E781467CE702382C4447E7ACF1020CA7
:1004F0002B442FE7384608E73746E9E6704700BF48
:10050000844641EA000313F003036DD1403A41D31E
:1005100051F8043B40F8043B51F8043B40F8043BDD
:1005200051F8043B40F8043B51F8043B40F8043BCD
:1005300051F8043B40F8043B51F8043B40F8043BBD
:1005400051F8043B40F8043B51F8043B40F8043BAD
:1005500051F8043B40F8043B51F8043B40F8043B9D
:1005600051F8043B40F8043B51F8043B40F8043B8D
:1005700051F8043B40F8043B51F8043B40F8043B7D
:1005800051F8043B40F8043B51F8043B40F8043B6D
:10059000403ABDD2303211D351F8043B40F8043B0D
:1005A00051F8043B40F8043B51F8043B40F8043B4D
:1005B00051F8043B40F8043B103AEDD20C3205D31D
:1005C00051F8043B40F8043B043AF9D2043208D015
:1005D000D2071CBF11F8013B00F8013B01D30B8887
:1005E00003806046704700BF082A13D38B078DD065
:1005F00010F003038AD0C3F10403D21ADB071CBF37
:1006000011F8013B00F8013B80D331F8023B20F8A0
:10061000023B7BE7043AD9D3013A11F8013B00F8D9
:10062000013BF9D20B7803704B7843708B78837061
:10063000604670470000000000000000000000005D
:1006400001F0FF01102A2BDB10F0070F08D010F883
:10065000013B013A8B422DD010F0070F42B3F6D187
:10066000F0B441EA012141EA014122F007047FF0A0
:1006700000070023F0E80256083C85EA010586EAF7
:10068000010685FA47F5A3FA87F586FA47F6A5FA33
:1006900087F68EB9EED1F0BC01F0FF0102F007023F
:1006A00032B110F8013B013A83EA010313B1F8D1EA
:1006B0000020704701387047002D06BF35460338CB
:1006C000073815F0010F07D1013015F4807F02BF04
:1006D000013015F4C03F0130F0BC0138704700BF55
:1006E000000000000000000000000000000000000A
:1006F00000000000000000000000000000000000FA
:1007000090F800F06DE9024520F007016FF0000C51
:1007100010F0070491F820F040F049804FF00004F9
:100720006FF00700D1E9002391F840F000F10800D4
:1007300082FA4CF2A4FA8CF283FA4CF3A2FA8CF30C
:100740004BBBD1E9022382FA4CF200F10800A4FA73
:100750008CF283FA4CF3A2FA8CF3E3B9D1E90423C7
:1007600082FA4CF200F10800A4FA8CF283FA4CF3FE
:10077000A2FA8CF37BB9D1E9062301F1200182FAB8
:100780004CF200F10800A4FA8CF283FA4CF3A2FABE
:100790008CF3002BC6D0002A04BF04301A4612BACC
:1007A000B2FA82F2FDE8024500EBD2007047D1E9CF
:1007B000002304F00305C4F100004FEAC50514F05E
:1007C000040F91F840F00CFA05F562EA05021CBF2F
:1007D00063EA050362464FF00004A9E781F0004197
:1007E00002E000BF83F0004330B54FEA41044FEA16
:1007F000430594EA050F08BF90EA020F1FBF54EAB1
:10080000000C55EA020C7FEA645C7FEA655C00F04C
:10081000E2804FEA5454D4EB5555B8BF6D420CDD1D
:100820002C4480EA020281EA030382EA000083EAA0
:10083000010180EA020281EA0303362D88BF30BD40
:1008400011F0004F4FEA01314FF4801C4CEA113196
:1008500002D0404261EB410113F0004F4FEA0333F5
:100860004CEA133302D0524263EB430394EA050F80
:1008700000F0A780A4F10104D5F1200E0DDB02FAEF
:100880000EFC22FA05F2801841F1000103FA0EF283
:10089000801843FA05F359410EE0A5F120050EF149
:1008A000200E012A03FA0EFC28BF4CF0020C43FA7A
:1008B00005F3C01851EBE37101F0004507D54FF087
:1008C000000EDCF1000C7EEB00006EEB0101B1F5D7
:1008D000801F1BD3B1F5001F0CD349085FEA30001D
:1008E0004FEA3C0C04F101044FEA445212F5800F28
:1008F00080F09A80BCF1004F08BF5FEA500C50F1C5
:10090000000041EB045141EA050130BD5FEA4C0CA7
:10091000404141EB010111F4801FA4F10104E9D130
:1009200091F0000F04BF01460020B1FA81F308BF27
:100930002033A3F10B03B3F120020CDA0C3208DDF3
:1009400002F1140CC2F10C0201FA0CF021FA02F1CE
:100950000CE002F11402D8BFC2F1200C01FA02F13E
:1009600020FA0CFCDCBF41EA0C019040E41AA2BF63
:1009700001EB0451294330BD6FEA04041F3C1CDA2B
:100980000C340EDC04F11404C4F1200220FA04F04B
:1009900001FA02F340EA030021FA04F345EA0301F5
:1009A00030BDC4F10C04C4F1200220FA02F001FAB7
:1009B00004F340EA0300294630BD21FA04F0294639
:1009C00030BD94F0000F83F4801306BF81F48011D2
:1009D0000134013D4EE77FEA645C18BF7FEA655C45
:1009E00029D094EA050F08BF90EA020F05D054EA17
:1009F000000C04BF1946104630BD91EA030F1EBF1C
:100A00000021002030BD5FEA545C05D1400049411F
:100A100028BF41F0004130BD14F580043CBF01F512
:100A2000801130BD01F0004545F0FE4141F47001F8
:100A30004FF0000030BD7FEA645C1ABF19461046D3
:100A40007FEA655C1CBF0B46024650EA013406BFD4
:100A500052EA033591EA030F41F4002130BD00BF93
:100A600090F0000F04BF0021704730B54FF4806450
:100A700004F132044FF000054FF0000150E700BFD1
:100A800090F0000F04BF0021704730B54FF4806430
:100A900004F1320410F0004548BF40424FF000011D
:100AA0003EE700BF42004FEAE2014FEA31014FEA60
:100AB00002701FBF12F07F4393F07F4F81F06051AF
:100AC000704732F07F4208BF704793F07F4F04BFFA
:100AD00041F40021704730B54FF4607401F00045D7
:100AE00021F000411CE700BF50EA010208BF704737
:100AF00030B54FF000050AE050EA010208BF704728
:100B000030B511F0004502D5404261EB41014FF490
:100B1000806404F132045FEA915C3FF4D8AE4FF098
:100B200003025FEADC0C18BF03325FEADC0C18BF7B
:100B3000033202EBDC02C2F1200300FA03FC20FACC
:100B400002F001FA03FE40EA0E0021FA02F1144419
:100B5000BDE600BF70B54FF0FF0C4CF4E06C1CEA32
:100B600011541DBF1CEA135594EA0C0F95EA0C0FA3
:100B700000F0DEF82C4481EA030621EA4C5123EA16
:100B80004C5350EA013518BF52EA033541F4801145
:100B900043F4801338D0A0FB02CE4FF00005E1FBF8
:100BA00002E506F00042E0FB03E54FF00006E1FB42
:100BB00003569CF0000F18BF4EF0010EA4F1FF0485
:100BC000B6F5007F64F5407404D25FEA4E0E6D41C5
:100BD00046EB060642EAC62141EA55514FEAC520D6
:100BE00040EA5E504FEACE2EB4F1FD0C88BFBCF552
:100BF000E06F1ED8BEF1004F08BF5FEA500E50F103
:100C0000000041EB045170BD06F0004646EA0101C8
:100C100040EA020081EA0301B4EB5C04C2BFD4EBFA
:100C20000C0541EA045170BD41F480114FF0000EF3
:100C3000013C00F3AB8014F1360FDEBF002001F061
:100C4000004170BDC4F10004203C35DA0C341BDCDB
:100C500004F11404C4F1200500FA05F320FA04F0AD
:100C600001FA05F240EA020001F0004221F00041E1
:100C700010EBD37021FA04F642EB06015EEA430E54
:100C800008BF20EAD37070BDC4F10C04C4F1200584
:100C900000FA04F320FA05F001FA04F240EA020037
:100CA00001F0004110EBD37041F100015EEA430E08
:100CB00008BF20EAD37070BDC4F1200500FA05F228
:100CC0004EEA020E20FA04F301FA05F243EA0203A7
:100CD00021FA04F001F0004121FA04F220EA0200B6
:100CE00000EBD3705EEA430E08BF20EAD37070BDFC
:100CF00094F0000F0FD101F00046400041EB0101DC
:100D000011F4801F08BF013CF7D041EA060195F0BD
:100D1000000F18BF704703F00046520043EB030377
:100D200013F4801F08BF013DF7D043EA0603704764
:100D300094EA0C0F0CEA135518BF95EA0C0F0CD06F
:100D400050EA410618BF52EA4306D1D181EA0301B5
:100D500001F000414FF0000070BD50EA410606BFAF
:100D60001046194652EA430619D094EA0C0F02D1F4
:100D700050EA013613D195EA0C0F05D152EA033639
:100D80001CBF104619460AD181EA030101F0004157
:100D900041F0FE4141F470014FF0000070BD41F0A0
:100DA000FE4141F4780170BD70B54FF0FF0C4CF47A
:100DB000E06C1CEA11541DBF1CEA135594EA0C0F99
:100DC00095EA0C0F00F0A7F8A4EB050481EA030EE6
:100DD00052EA03354FEA013100F088804FEA0333CD
:100DE0004FF0805545EA131343EA12634FEA02229B
:100DF00045EA111545EA10654FEA00260EF000415C
:100E00009D4208BF964244F1FD0404F5407402D2AD
:100E10005B084FEA3202B61A65EB03055B084FEA3E
:100E200032024FF480104FF4002CB6EB020E75EB3B
:100E3000030E22BFB61A754640EA0C005B084FEA63
:100E40003202B6EB020E75EB030E22BFB61A7546E0
:100E500040EA5C005B084FEA3202B6EB020E75EB2B
:100E6000030E22BFB61A754640EA9C005B084FEAA3
:100E70003202B6EB020E75EB030E22BFB61A7546B0
:100E800040EADC0055EA060E18D04FEA051545EA9F
:100E900016754FEA06164FEAC30343EA52734FEA48
:100EA000C2025FEA1C1CC0D111F4801F0BD141EAC1
:100EB00000014FF000004FF0004CB6E711F4801F26
:100EC00004BF01430020B4F1FD0C88BFBCF5E06F06
:100ED0003FF6AFAEB5EB030C04BFB6EB020C5FEA16
:100EE000500C50F1000041EB045170BD0EF0004E6B
:100EF0004EEA113114EB5C04C2BFD4EB0C0541EA9D
:100F0000045170BD41F480114FF0000E013C90E699
:100F100045EA060E8DE60CEA135594EA0C0F08BF5D
:100F200095EA0C0F3FF43BAF94EA0C0F0AD150EA5C
:100F300001347FF434AF95EA0C0F7FF425AF1046EF
:100F400019462CE795EA0C0F06D152EA03353FF417
:100F5000FDAE1046194622E750EA410618BF52EA94
:100F600043067FF4C5AE50EA41047FF40DAF52EA68
:100F700043057FF4EBAE12E74FF0FF3C06E000BF05
:100F80004FF0010C02E000BF4FF0010C4DF804CD12
:100F90004FEA410C7FEA6C5C4FEA430C18BF7FEAD2
:100FA0006C5C1BD001B050EA410C0CBF52EA430C00
:100FB00091EA030F02BF90EA020F0020704710F180
:100FC000000F91EA030F58BF994208BF90422CBF0F
:100FD000D8176FEAE37040F0010070474FEA410C08
:100FE0007FEA6C5C02D150EA013C07D14FEA430C26
:100FF0007FEA6C5CD6D152EA033CD3D05DF8040B97
:10100000704700BF8446104662468C4619466346C8
:1010100000E000BF01B5FFF7B7FF002848BF10F19F
:10102000000F01BD4DF808EDFFF7F4FF0CBF0120E4
:1010300000205DF808FB00BF4DF808EDFFF7EAFF60
:1010400034BF012000205DF808FB00BF4DF808ED1B
:10105000FFF7E0FF94BF012000205DF808FB00BF10
:101060004DF808EDFFF7CEFF94BF012000205DF89A
:1010700008FB00BF4DF808EDFFF7C4FF34BF0120A7
:1010800000205DF808FB00BF4FEA410C7FEA6C5C72
:1010900002D150EA013C0AD14FEA430C7FEA6C5C72
:1010A00002D152EA033C02D14FF0000070474FF0EA
:1010B000010070474FEA410212F5001215D211D516
:1010C0006FF47873B3EB625212D94FEAC12343F045
:1010D000004343EA505311F0004F23FA02F018BFC7
:1010E000404270474FF00000704750EA013005D190
:1010F00011F0004008BF6FF0004070474FF0000053
:10110000704700BF10B504464FF480411B4801F002
:10111000D1F9A8B14FF48051194801F0CBF9B8B119
:101120004FF48041154801F0C5F928B94FF48051BA
:10113000134801F0BFF998B1204600F023F806E00B
:10114000204600F0B5F84FF4FA7000F0D3FE10BD61
:10115000204600F07BF84FF4FA7000F0CBFEF6E783
:10116000204600F041F8C82000F0C4FE204600F000
:101170009FF84FF4FA7000F0BDFEE8E70008024067
:10118000000C024038B50546154C0021204602F0FF
:10119000DFF90421204602F0DBF923685D639D63DB
:1011A000104C00228021204601F08BF901224FF4DF
:1011B0008071204601F085F901224FF480512046CC
:1011C00001F07FF900224FF40051204601F079F937
:1011D00001224FF48061204601F073F938BD00BF51
:1011E0004C0E00200010024038B50546154C002179
:1011F000204602F0ADF90421204602F0A9F9236847
:101200005D639D63104C01228021204601F059F955
:1012100000224FF48071204601F053F900224FF470
:101220008051204601F04DF901224FF40051204633
:1012300001F047F901224FF48061204601F041F9A5
:1012400038BD00BF4C0E00200010024038B50546E6
:10125000154C0021204602F07BF90421204602F0C3
:1012600077F923685D639D63104C0122802120463D
:1012700001F027F900224FF48071204601F021F996
:1012800001224FF48051204601F01BF900224FF457
:101290000051204601F015F901224FF480612046EB
:1012A00001F00FF938BD00BF4C0E002000100240C5
:1012B00038B50546154C0021204602F049F90421B5
:1012C000204602F045F923685D639D63104C0022BF
:1012D0008021204601F0F5F801224FF4807120466C
:1012E00001F0EFF800224FF48051204601F0E9F8B8
:1012F00001224FF40051204601F0E3F801224FF49F
:101300008061204601F0DDF838BD00BF4C0E0020A2
:101310000010024008B5054B1860054B1868002303
:1013200002221946806803F06FFB08BDDC0900202B
:1013300010000020022801D80120704708B503F0F2
:10134000DBFA09230360002008BD000010B5013856
:1013500001280AD814464FF0FF3392B207480068BC
:1013600002F0F4FA40B9204610BD03F0C5FA092393
:1013700003604FF0FF30F7E70520F5E7DC090020B8
:10138000022801D80020704708B503F0B5FA0923F8
:1013900003604FF0FF3008BD08B503F0ADFA092334
:1013A00003604FF0FF3008BD08B548B94FF0FF3378
:1013B00001220848006802F036FB40B9012008BD50
:1013C00003F09AFA092303604FF0FF30F7E7052096
:1013D000F5E700BFDC09002008B5022804D84FF467
:1013E00000534B60002008BD03F086FA0923036018
:1013F000F8E7000008B50A480A4B03604FF4E133F0
:10140000436000238360C36003610C2242618361F7
:10141000C36102F06CFA00B908BD00F0D5FAFBE731
:10142000E00900200010014008B50A480A4B03609B
:101430004FF4E133436000238360C36003610C22F7
:1014400042618361C36102F052FA00B908BD00F045
:10145000BBFAFBE7240A00200044004008B50A4814
:101460000A4B03604FF4E133436000238360C360A1
:1014700003610C2242618361C36102F038FA00B952
:1014800008BD00F0A1FAFBE7680A00200048004010
:1014900000B58DB000230793089309930A930B932B
:1014A00003683B4A934208D03A4A934229D03A4AC9
:1014B000934249D00DB05DF804FB00210191374BF8
:1014C0005A6C42F010025A645A6C02F010020192F7
:1014D000019A02911A6B42F001021A631B6B03F02E
:1014E00001030293029B4FF4C06307930223089306
:1014F00003230A9307230B9307A9294800F0F0FE62
:10150000D8E700210391254B1A6C42F400321A648B
:101510001A6C02F400320392039A04911A6B42F09F
:1015200008021A631B6B03F008030493049B6023F7
:1015300007930223089303230A9307230B9307A916
:10154000184800F0CDFEB5E700210591134B1A6C49
:1015500042F480221A641A6C02F480220592059AE1
:1015600006911A6B42F002021A631B6B03F002032E
:101570000693069B4FF440630793022308930323CB
:101580000A9307230B9307A9074800F0A9FE91E7E8
:101590000010014000440040004800400038024074
:1015A00000000240000C02400004024000B585B07B
:1015B000002300930193029303931548154A026098
:1015C0004FF48032426083600361037680F82030FC
:1015D000C362114A8262C3600122C26180F8303066
:1015E000426100F035FD68B90223009301230193A5
:1015F000002302936946064800F056FD28B905B05D
:101600005DF804FB00F0E0F9EEE700F0DDF9F6E745
:10161000AC0A0020002001400100000F30B58BB063
:10162000002305930693079308930993026803F137
:10163000804303F590339A4201D00BB030BD0024B3
:10164000019403F58C335A6C42F480725A645A6CDC
:1016500002F480720192019A02941A6B42F0040221
:101660001A631A6B02F004020292029A03941A6B34
:1016700042F001021A631A6B02F001020392039A0C
:1016800004941A6B42F002021A631B6B03F002030C
:101690000493049B3E2305930325069505A9094859
:1016A00000F01EFEDC2305930695079405A9064865
:1016B00000F016FE05950695079405A9034800F06D
:1016C0000FFEBAE70008024000000240000402409A
:1016D000034B0360034B0B6080231360704700BF14
:1016E000000D0020000B002070B596B0164C0FAD19
:1016F00026460FCE0FC596E8070085E807000021B3
:101700000FA802F00CFA114B186008AD04F11C068A
:101710000FCE0FC596E8070085E80700002108A84E
:1017200002F0FDF90A4B186001AD38340FCC0FC53B
:1017300094E8070085E80700002101A802F0EFF90E
:10174000044B186016B070BD78970008F80A0020A6
:10175000F40A0020FC0A00202DE9F0478AB000249A
:10176000059406940794089409940094514B1A6BBD
:1017700042F004021A631A6B02F004020092009A0B
:1017800001941A6B42F001021A631A6B02F0010213
:101790000192019A02941A6B42F002021A631A6BC8
:1017A00002F002020292029A03941A6B42F01002B3
:1017B0001A631A6B02F010020392039A04941A6BD4
:1017C00042F008021A631B6B03F008030493049BA6
:1017D000DFF8EC8022464FF40041404600F071FEF5
:1017E000354F22464FF45651384600F06AFE01222A
:1017F0004FF48041384600F064FEDFF8C8900122C3
:101800004FF43041484600F05CFE2C4E22464FF427
:101810008071304600F055FE012242F2030130464D
:1018200000F04FFE4FF48043059306940125079581
:1018300005A9404600F054FD4FF4004ACDF814A02D
:1018400006950794089405A9404600F049FD4FF419
:10185000EB43059306950794089405A9384600F0D4
:101860003FFDCDF814A00694079405A9384600F072
:1018700037FD4FF43043059306950794089405A966
:10188000484600F02DFD42F2031305930695079498
:10189000089405A9304600F023FD4FF4C05305938A
:1018A0000694079405A9304600F01AFD0AB0BDE879
:1018B000F08700BF0038024000100240000C0240D8
:1018C000000802400004024008B50B480B4B0360BF
:1018D0000B4B436000238360C3604FF4804202617E
:1018E00043618361C361036200F0F2FD00B908BD8A
:1018F00000F06AF8FBE700BF540D002000540040E0
:10190000A086010030B589B00023039304930593AA
:10191000069307930268144B9A4201D009B030BD78
:1019200000250195114C236B43F002032363236BC5
:1019300003F002030193019BC0230393122304933A
:10194000032306930423079303A9094800F0C8FC66
:101950000295236C43F400132364236C03F40013F7
:101960000293029BDAE700BF0054004000380240B7
:101970000004024008B5054803F032F8642002F084
:1019800004F9012002F001F9F5E700BFEC97000827
:1019900008B5642002F0F9F8012002F0F6F8F8E743
:1019A00008B51420FFF7AEFB012002F0EEF8F8E7CF
:1019B00008B50268034B9A4200D008BD00F088FACF
:1019C000FBE700BF0014004072B6FEE700B595B01B
:1019D0003022002108A802F0B9FF002303930493EA
:1019E00005930693079301931F4A116C41F08051B0
:1019F0001164126C02F080520192019A02931B4A08
:101A0000116841F480411160126802F48042029230
:101A1000029A0222089201210B9110210C910E9240
:101A20000F9308231093A823119312920423139366
:101A300008A800F027FE98B90F230393022304930C
:101A4000002305934FF4A05306934FF4805307935C
:101A5000052103A801F066F820B915B05DF804FB74
:101A6000FFF7B2FFFFF7B0FF003802400070004000
:101A700008B500F013FAFFF7A9FFFFF76DFEFFF7B7
:101A800023FF00F015F8FFF791FD00F05FF9FFF775
:101A9000B1FCFFF7C9FCFFF7E1FC0448FFF73AFC93
:101AA000FFF722FE02F036F8FEE700BF680A0020CA
:101AB00008B50D480D4B03604FF48273436000235B
:101AC0008360C360036143614FF400728261C3614C
:101AD0000362436283620A23C36201F017F900B90B
:101AE00008BDFFF771FFFBE7A80D0020003C004098
:101AF00000B589B0002303930493059306930793DD
:101B00000268154B9A4202D009B05DF804FB00212F
:101B1000019103F5FE331A6C42F400421A641A6C08
:101B200002F400420192019A02911A6B42F00402FF
:101B30001A631B6B03F004030293029B4FF4E05300
:101B4000039302230493032306930623079303A915
:101B5000024800F0C5FBD7E7003C00400008024007
:101B600000B583B0002200920D4B596C41F48041C6
:101B70005964596C01F48041009100990192196CEB
:101B800041F0805119641B6C03F080530193019B59
:101B90000F216FF0010000F061FB03B05DF804FB62
:101BA0000038024030B589B0044600230193214B30
:101BB0001A6C42F020021A641B6C03F0200301939C
:101BC000019B02A903A801F083F8069BC3B901F0A9
:101BD0005FF8194BA3FB00239B0C013B1748184AE5
:101BE000026040F2E732C260436000230361836019
:101BF000836101F019FB054630B1284609B030BDBC
:101C000001F046F84000E4E70C4801F0A3F905466E
:101C10000028F2D1372000F055FB0F2C01D9012507
:101C2000EBE700222146372000F018FB054B1C6033
:101C3000E3E700BF0038024083DE1B43000E0020B4
:101C40000014004008000020FEE7FEE7FEE7FEE784
:101C50007047000008B5024801F0C5F908BD00BF93
:101C6000000E002010B503460C4A0D490D480068CF
:101C700040B10C4800680344521A934206D8094AFE
:101C8000136010BD0748084C0460F2E702F034FE10
:101C90000C2303604FF0FF30F3E700BF0000022089
:101CA00000040000480E0020484C0020034AD2F8EF
:101CB000883043F47003C2F88830704700ED00E0CC
:101CC0000268094B9A4200D0704782B0002301930A
:101CD000064B5A6C42F001025A645B6C03F001033C
:101CE0000193019B02B070470000014000380240A0
:101CF00000B587B0002301930293039304930593E7
:101D000002680F4B9A4202D007B05DF804FB002333
:101D100000930C4B1A6B42F010021A631B6B03F01A
:101D200010030093009B4FF420630193022302935E
:101D30000123059301A9044800F0D2FAE4E700BFAB
:101D400000000140003802400010024010B596B07B
:101D500000241294139414941594109411940994DB
:101D60000A940B940C940D940E940F942022214607
:101D700001A802F0EBFD3248324B0360A723436019
:101D800084606323C36004614461846101F04CFAA0
:101D900000283FD116A94FF4805341F8103D284840
:101DA00001F04AFB002838D1254801F068FA0028E4
:101DB00036D100231093119310A9214801F04EFC55
:101DC000002830D16023099300220A920B920C92D2
:101DD0000D920E920F9209A9194801F0B3FA28BB8F
:101DE000042209A9164801F0ADFA10BB00230193A3
:101DF00002930393049305934FF4005206920893C1
:101E000001A90F4801F06EFCB0B90D48FFF770FF53
:101E100016B010BDFFF7D8FDBCE7FFF7D5FDC3E74F
:101E2000FFF7D2FDC5E7FFF7CFFDCBE7FFF7CCFD0E
:101E3000D6E7FFF7C9FDD9E7FFF7C6FDE5E700BF25
:101E40004C0E002000000140DFF834D00D480E4950
:101E50000E4A002302E0D458C4500433C4188C4204
:101E6000F9D30B4A0B4C002301E013600432A24269
:101E7000FBD3FFF71BFF02F045FDFFF7F9FD7047AD
:101E80000000022000000020C0090020B49A0008D1
:101E9000C0090020444C0020FEE7000008B50B4BB1
:101EA0001A6842F400721A601A6842F480621A607A
:101EB0001A6842F480721A60032000F0BDF90F2006
:101EC000FFF770FEFFF74CFE002008BD003C02400B
:101ED000034A1168034B1B780B441360704700BF23
:101EE000940E002004000020014B1868704700BFCA
:101EF000940E002038B50446FFF7F6FF0546B4F10E
:101F0000FF3F02D0044B1B781C44FFF7EDFF401B42
:101F1000A042FAD338BD00BF040000204A4B5A68E3
:101F200022F440325A605A6841680A435A60026893
:101F3000536823F48073536002685368016943EA6D
:101F4000012353600268536823F0407353600268B2
:101F5000536881680B4353600268936823F40063FD
:101F6000936002689368C1680B439360826A374B41
:101F70009A424BD00268936823F0706393600268C2
:101F80009368816A0B4393600268936823F040531F
:101F9000936002689368C16A0B4393600268936818
:101FA00023F00203936002689368017E43EA4103D1
:101FB000936090F82030002B33D10268536823F4EB
:101FC000006353600268D36A23F47003D36201682C
:101FD000CB6AC269013A43EA0253CB620268936852
:101FE00023F4007393600268936890F8301043EA1A
:101FF000412393600268936823F4806393600268CE
:102000009368416943EA812393607047026893684B
:1020100023F0706393600268936823F040539360E9
:10202000BCE70268536843F4006353600268536876
:1020300023F46043536001684B68426A013A43EA03
:1020400042334B60BEE700BF002301400100000F98
:1020500038B310B50446036C43B1236C13F0100F72
:102060000BD00120002384F83C3010BDFFF7D6FAD6
:102070000023636484F83C30EFE7236C23F4885337
:1020800023F0020343F0020323642046FFF746FFD8
:1020900000206064236C23F0030343F001032364F6
:1020A000E0E701207047000030B482B000230193C4
:1020B00090F83C30012B00F0B780012380F83C30D1
:1020C0000B68092B3ED90568EA689BB203EB430312
:1020D0001E3B072404FA03F322EA0303EB600568BE
:1020E000EA688C680B8803EB43031E3B04FA03F396
:1020F0001343EB604B68062B3AD805686A6B03EB19
:102100008303053B1F2404FA03F322EA03036B63F2
:1021100005686A6B4B6803EB8303053B0C8804FA84
:1021200003F313436B630268404B9A4250D002683A
:102130003E4B9A4255D0002380F83C30184602B0FE
:1021400030BC704705682A699BB203EB4303072440
:1021500004FA03F322EA03032B6105682A698C68F9
:102160000B8803EB430304FA03F313432B61C1E72A
:102170000C2B16D805682A6B03EB8303233B1F2423
:1021800004FA03F322EA03032B6305682A6B4B6806
:1021900003EB8303233B0C8804FA03F313432B6301
:1021A000C1E70568EA6A03EB8303413B1F2404FA95
:1021B00003F322EA0303EB620568EA6A4B6803EB68
:1021C0008303413B0C8804FA03F31343EB62AAE751
:1021D0000B68122BABD1164A536843F4800353604B
:1021E000A5E70B68103B012BA5D8114A536843F4AF
:1021F000000353600B68102B9DD10E4B1B6802F13E
:10220000467202F52E3202F28332A2FB03239B0CAC
:1022100003EB83035A00019202E0019B013B01930F
:10222000019B002BF9D186E7022088E700200140BE
:102230000023014000000020074AD36823F4E06334
:102240001B041B0C000200F4E060184340F0BF6068
:1022500040F40030D060704700ED00E030B4174B20
:10226000DB68C3F30223C3F10704042C28BF042452
:102270001D1D062D18D9033B4FF0FF3505FA04F458
:1022800021EA0401994005FA03F322EA0303194302
:1022900000280BDB0901C9B200F1604000F5614084
:1022A00080F8001330BC70470023E5E700F00F0012
:1022B0000901C9B2024B1954F4E700BF00ED00E078
:1022C00014ED00E0002807DB00F01F0240090123A5
:1022D0009340024A42F82030704700BF00E100E01E
:1022E00000230F2B00F2DC80F0B482B05DE0866842
:1022F0005F000324BC4026EA0406CC68BC4034439B
:102300008460466826EA02064C68C4F300129A40CC
:102310003243426056E0DC08083450F8247003F081
:10232000070296000F22B24027EA02070A69B2406C
:102330003A4340F8242059E0072200E00022B2404E
:102340003A430234574E46F82420574A9468EA43E9
:1023500002EA04064F6817F4801F01D045EA04061C
:10236000514CA660E46802EA04064F6817F4001FA7
:1023700001D045EA04064C4CE660646802EA0406B3
:102380004F6817F4003F01D045EA0406464C6660EA
:10239000246822404E6816F4803F01D045EA0402CA
:1023A000414C226001330F2B77D801229A400C68F0
:1023B00004EA0205AA42F5D14C6804F00304013C8A
:1023C000012C94D94A6802F00302032A09D0C46898
:1023D0005E000322B24024EA02048A68B24022432B
:1023E000C2604A6802F00302022A94D004685E00C8
:1023F0000322B24024EA02044A6802F00302B24017
:10240000224302604A6812F4403FCBD0002201927E
:10241000264A546C44F480445464526C02F4804262
:102420000192019A9C08A61C1E4A52F8267003F0DD
:10243000030296000F22B24027EA02071C4A90428C
:102440003FF47CAF02F5806290421AD002F58062C0
:10245000904218D002F58062904216D002F5806258
:10246000904214D002F58062904212D002F5806250
:10247000904210D002F5806290423FF45DAF082296
:102480005DE701225BE7022259E7032257E70422B6
:1024900055E7052253E7062251E702B0F0BC70472A
:1024A000704700BF00380140003C01400038024046
:1024B000000002400369194201D100207047012049
:1024C000704712B90904816170478161704700004B
:1024D000002800F0C880F8B5044690F83D30002B85
:1024E00075D0242384F83D302268136823F001035B
:1024F00013602268136843F4004313602268136872
:1025000023F40043136000F0C3FB6268584B9A4207
:1025100062D8584B98428CBF00230123002B40F017
:10252000A480554BA3FB00239B0C21684A6822F032
:102530003F021A434A6025682A6A22F03F02666811
:102540004B498E424ED8013313432B622568E9690B
:1025500021F44F4121F0FF016368454A93424BD873
:1025600001385B00B0FBF3F30133C3F30B03042B1F
:1025700038BF04230B43EB6121680B6823F0C003D1
:10258000E269206A024313430B6021688B6823F4DD
:10259000034323F0FF032269E068024313438B6087
:1025A0002168CB6823F0FF036269A06902431343EB
:1025B000CB602268136843F001031360002020649D
:1025C000202384F83D30206384F83E00F8BD80F875
:1025D0003C30FFF797F984E7284B98428CBF0023E3
:1025E00001239BE74FF4967101FB03F32449A1FB00
:1025F00003139B090133A7E7A268BAB9461E03EB90
:102600004307B6FBF7F60136C6F30B06B6FA86F6B5
:10261000760936BBC2B9013803EB4303B0FBF3F3D1
:102620000133C3F30B0242F40043A3E7461E03EB5E
:10263000830707EB8707B6FBF7F60136C6F30B06F1
:10264000B6FA86F67609E4E7013803EB830303EB79
:102650008303B0FBF3F20132C2F30B0242F44043B6
:1026600088E7012386E7012070470120AEE700BF1D
:10267000A08601007F841E0083DE1B43FF083D000F
:10268000D34D6210002800F0E98170B582B0044695
:10269000036813F0010F3BD0A74B9B6803F00C03BA
:1026A000042B2CD0A44B9B6803F00C03082B21D0E7
:1026B0006368B3F5803F4FD0B3F5A02F52D09E4B47
:1026C0001A6822F480321A601A6822F480221A6092
:1026D0006368002B50D0FFF707FC0546964B1B683C
:1026E00013F4003F14D1FFF7FFFB401B6428F5D91A
:1026F0000320B8E1904B5B6813F4800FD8D08E4B69
:102700001B6813F4003F03D06368002B00F0A8811E
:10271000236813F0020F55D0874B9B6813F00C0F02
:102720003ED0854B9B6803F00C03082B33D0E36845
:10273000002B68D0814B01221A60FFF7D5FB0546BC
:102740007D4B1B6813F0020F54D1FFF7CDFB401BEC
:102750000228F5D9032086E1774A136843F48033D1
:102760001360B5E7744B1A6842F480221A601A6845
:1027700042F480321A60ABE7FFF7B6FB05466E4BBA
:102780001B6813F4003FC3D0FFF7AEFB401B642867
:10279000F5D9032067E1684B5B6813F4800FC6D15D
:1027A000654B1B6813F0020F04D0E368012B01D0C6
:1027B000012058E1604A136823F0F803216943EAD5
:1027C000C1031360236813F0080F40D0636963B33B
:1027D0005B4B01221A60FFF787FB0546564B5B6F88
:1027E00013F0020F33D1FFF77FFB401B0228F5D90E
:1027F000032038E1504A136823F0F803216943EAC3
:10280000C1031360DEE74D4B00221A60FFF76CFB3B
:102810000546494B1B6813F0020FD3D0FFF764FB4A
:10282000401B0228F5D903201DE1454B00221A6008
:10283000FFF75AFB0546404B5B6F13F0020F06D0C3
:10284000FFF752FB401B0228F5D903200BE1236858
:1028500013F0040F79D0384B1B6C13F0805F33D129
:1028600000230193344B1A6C42F080521A641B6CA3
:1028700003F080530193019B0125324B1B6813F435
:10288000807F23D0A368012B34D0052B38D02A4B6E
:102890001A6F22F001021A671A6F22F004021A67F7
:1028A000A368002B36D0FFF71FFB0646224B1B6F99
:1028B00013F0020F48D1FFF717FB801B41F288335A
:1028C0009842F3D90320CEE00025D6E71D4A1368CD
:1028D00043F480731360FFF707FB0646194B1B6830
:1028E00013F4807FCED1FFF7FFFA801B0228F5D9C1
:1028F0000320B8E0104A136F43F001031367CFE7DA
:102900000D4B1A6F42F004021A671A6F42F001026F
:102910001A67C5E7FFF7E8FA0646074B1B6F13F087
:10292000020F11D0FFF7E0FA801B41F28833984282
:10293000F3D9032097E000BF00380240000047426F
:10294000800E474200700040EDB9A369002B00F0F3
:102950008980484A926802F00C02082A51D0022B62
:1029600017D0454B00221A60FFF7BEFA0446414BD0
:102970001B6813F0007F42D0FFF7B6FA001B022855
:10298000F5D903206FE03B4A136C23F080531364A6
:10299000DBE7394B00221A60FFF7A6FA0546354BF4
:1029A0001B6813F0007F06D0FFF79EFA401B022839
:1029B000F5D9032057E0E369226A1343626A43EAC8
:1029C0008213A26A5208013A43EA0243E26A43EAE6
:1029D0000263284A5360284B01221A60FFF784FAE9
:1029E0000446244B1B6813F0007F06D1FFF77CFAE6
:1029F000001B0228F5D9032035E0002033E0002039
:102A000031E0012B31D01B4B5B6803F48001E2699C
:102A1000914201D0012026E003F03F02216A8A4260
:102A200001D001201FE0616A47F6C0721A40B2EB84
:102A3000811F01D0012016E003F44031A26A520840
:102A4000013AB1EB024F01D001200CE003F07063BA
:102A5000E26AB3EB026F0AD0012004E00120704764
:102A6000012000E0002002B070BD0120FBE7002043
:102A7000F9E700BF0038024060004742264B9B68E0
:102A800003F00C03042B44D0082B01D023487047DB
:102A90002DE9F04B204B5A6802F03F025B6813F4BB
:102AA000800F13D01C4B5968C1F3881100231C48B8
:102AB000A1FB0001FDF7A4FB174B5B68C3F30143C7
:102AC00001335B00B0FBF3F0BDE8F08B124B5B68A9
:102AD000C3F388131E4600275C010025E41A65EB4A
:102AE0000705A90141EA9461A001001B61EB050102
:102AF000CB0043EA5073C400A01943EB07018B02DB
:102B000043EA90538402204619460023FDF778FBE0
:102B1000D2E70348704700BF003802400024F400A9
:102B200040787D01002800F09E8070B50446504B2F
:102B30001B6803F007038B4209D2CBB24C4A1370D7
:102B4000136803F007038B4201D0012070BD236896
:102B500013F0020F17D013F0040F04D0454A936806
:102B600043F4E0539360236813F0080F04D0414A04
:102B7000936843F4604393603E4A936823F0F00304
:102B8000A068034393600D46236813F0010F32D011
:102B90006368012B21D09A1E012A25D9354A126873
:102BA00012F0020F61D033498A6822F00302134306
:102BB0008B60FFF799F906462E4B9B6803F00C03D8
:102BC0006268B3EB820F16D0FFF78EF9801B41F2DB
:102BD00088339842F0D90320B8E7264A126812F4E5
:102BE000003FE0D10120B1E7224A126812F0007FD5
:102BF000D9D10120AAE71E4B1B6803F00703AB42A3
:102C000009D9EAB21A4B1A701B6803F00703AB42EA
:102C100001D001209AE7236813F0040F06D0154A6B
:102C2000936823F4E053E1680B439360236813F047
:102C3000080F07D00F4A936823F46043216943EAE1
:102C4000C1039360FFF71AFF0A4B9B68C3F303139A
:102C5000094AD35CD840094B1860094B1868FEF745
:102C6000A1FF002072E70120704701206EE700BF3E
:102C7000003C024000380240F497000800000020A9
:102C800008000020014B1868704700BF00000020BA
:102C900008B5FFF7F7FF044B9B68C3F38223034A91
:102CA000D35CD84008BD00BF00380240049800083B
:102CB00008B5FFF7E7FF044B9B68C3F34233034AB1
:102CC000D35CD84008BD00BF00380240049800081B
:102CD0000F2303600B4B9A6802F0030242609A686C
:102CE00002F0F00282609A6802F4E052C2609B68CF
:102CF000DB0803F4E0530361034B1B6803F0070395
:102D00000B60704700380240003C024000285AD057
:102D100010B50446436A33B94368B3F5827F05D0E2
:102D20000023C36102E00023036143610023A36227
:102D300094F85130002B40D0022384F8513022689F
:102D4000136823F040031360636803F48273A2687E
:102D500002F404421343E26802F40062134322695E
:102D600002F002021343626902F001021343A269F6
:102D700002F400721343E26902F038021343226A3C
:102D800002F080021343A26A02F400522168134346
:102D90000B60638B03F00403626A02F01002216887
:102DA00013434B602268D36923F40063D36100208E
:102DB0006065012384F8513010BD84F850302046FE
:102DC000FEF796FEB8E701207047000030B4036AB2
:102DD00023F001030362056A4268846924F07304E6
:102DE0000B681C4325F002058B682B43104DA8424D
:102DF00003D005F58065A84205D123F00803CD680E
:102E00002B4323F004030A4DA84203D005F5806547
:102E1000A84205D122F440724D6915438A692A43BC
:102E2000426084614A684263036230BC704700BFFD
:102E30000000014030B4036A23F480730362036A24
:102E40004268C46924F073040D682C4323F40073B2
:102E50008D6843EA0523124DA84203D005F580652D
:102E6000A84206D123F40063CD6843EA052323F486
:102E700080630B4DA84203D005F58065A84207D1B9
:102E800022F440524D6942EA05128D6942EA051268
:102E90004260C4614A68C263036230BC704700BFCD
:102EA0000000014030B4036A23F480530362036AD4
:102EB0004468C26922F4E6420D6842EA052223F41E
:102EC00000538D6843EA0533094DA84203D005F548
:102ED0008065A84204D124F480444D6944EA8514F5
:102EE0004460C2614A680264036230BC704700BF3C
:102EF0000000014010B4036A046A24F00104046273
:102F0000846924F0F00444EA021223F00A030B431C
:102F1000826103625DF8044B704710B4036A23F0CA
:102F2000100303628469036A24F4704444EA0232A1
:102F300023F0A00343EA0113826103625DF8044BAE
:102F40007047836823F07003194341F007018160E3
:102F50007047000090F83D30DBB2012B01D001201A
:102F60007047022380F83D300268D36843F00103C4
:102F7000D3600368184A934220D0B3F1804F1DD02C
:102F8000A2F57C42934219D002F58062934215D09B
:102F900002F58062934211D002F5784293420DD03F
:102FA00002F57052934209D0A2F59432934205D0B3
:102FB0001A6842F001021A60002070479A6802F015
:102FC0000702062A05D01A6842F001021A600020A2
:102FD00070470020704700BF0000014070477047F5
:102FE00070477047704710B5044603681A6912F0BD
:102FF000020F11D0DA6812F0020F0DD06FF002024A
:103000001A610123037703689B6913F0030F70D0E3
:10301000FFF7E6FF0023237723681A6912F0040FF5
:1030200012D0DA6812F0040F0ED06FF004021A61A9
:103030000223237723689B6913F4407F5FD02046E7
:10304000FFF7CEFF0023237723681A6912F0080FD9
:1030500012D0DA6812F0080F0ED06FF008021A6171
:10306000042323772368DB6913F0030F4ED0204637
:10307000FFF7B6FF0023237723681A6912F0100FB9
:1030800012D0DA6812F0100F0ED06FF010021A6131
:10309000082323772368DB6913F4407F3DD0204663
:1030A000FFF79EFF0023237723681A6912F0010FB0
:1030B00003D0DA6812F0010F36D123681A6912F0D2
:1030C000800F03D0DA6812F0800F34D123681A69B8
:1030D00012F0400F03D0DA6812F0400F32D12368AB
:1030E0001A6912F0200F03D0DA6812F0200F30D1E5
:1030F00010BDFFF774FF2046FFF773FF8AE72046F5
:10310000FFF76DFF2046FFF76CFF9BE72046FFF7B8
:1031100066FF2046FFF765FFACE72046FFF75FFF3D
:103120002046FFF75EFFBDE76FF001021A612046FF
:10313000FEF73EFCC1E76FF080021A61204600F006
:10314000FBFAC3E76FF040021A612046FFF74AFF1F
:10315000C5E76FF020021A61204600F0ECFAC7E7DD
:103160000368304A904212D0B0F1804F0FD0A2F5E0
:103170007C4290420BD002F58062904207D002F56B
:103180008062904203D002F57842904203D123F04E
:1031900070034A681343234A90422AD0B0F1804F0B
:1031A00027D0A2F57C42904223D002F58062904263
:1031B0001FD002F5806290421BD002F57842904207
:1031C00017D002F57052904213D002F580629042FF
:1031D0000FD002F5806290420BD0A2F59832904257
:1031E00007D002F58062904203D002F580629042DF
:1031F00003D123F44073CA68134323F080034A6960
:10320000134303608B68C3620B688362054B98426B
:1032100003D003F58063984201D10B690363012356
:10322000436170470000014038B310B5044690F880
:103230003D30EBB1022384F83D30211D2068FFF7BB
:103240008FFF012384F8463084F83E3084F83F3005
:1032500084F8403084F8413084F8423084F84330B8
:1032600084F8443084F8453084F83D30002010BDA7
:1032700080F83C30FEF724FDDCE70120704738B3CE
:1032800010B5044690F83D30EBB1022384F83D3090
:10329000211D2068FFF764FF012384F8463084F87D
:1032A0003E3084F83F3084F8403084F8413084F870
:1032B000423084F8433084F8443084F8453084F850
:1032C0003D30002010BD80F83C30FFF787FEDCE782
:1032D0000120704730B4036A23F010030362036ACD
:1032E0004468826922F4E6420D6842EA052223F02E
:1032F00020038D6843EA0513114DA84203D005F55C
:103300008065A84206D123F08003CD6843EA051307
:1033100023F040030A4DA84203D005F58065A8427A
:1033200007D124F440644D6944EA85048D6944EA78
:103330008504446082614A688263036230BC7047DE
:103340000000014038B590F83C30012B66D00D46A6
:103350000446012380F83C300C2A5DD8DFE802F0F7
:10336000075C5C5C1E5C5C5C335C5C5C470000681A
:10337000FFF72CFD2268936943F0080393612268EC
:10338000936923F0040393612268936929690B43CD
:1033900093610020002384F83C3038BD0068FFF7BB
:1033A00099FF2268936943F40063936122689369EB
:1033B00023F48063936122689369296943EA0123B6
:1033C00093610020E6E70068FFF734FD2268D369C7
:1033D00043F00803D3612268D36923F00403D36167
:1033E0002268D36929690B43D3610020D2E70068C2
:1033F000FFF758FD2268D36943F40063D361226864
:10340000D36923F48063D3612268D369296943EACD
:103410000123D3610020BDE70120BBE70220BCE708
:1034200010B4846824F47F4442EA03230B4323430B
:1034300083605DF8044B704790F83C30012B73D0EB
:1034400010B50446012380F83C30022380F83D305B
:103450000268936823F47F4323F0770393600B683B
:10346000402B56D011D9702B3BD01FD8502B45D0B4
:10347000602B19D1CA6849680068FFF74EFD6021CA
:103480002068FFF75EFD002024E0102B04D009D94E
:10349000202B01D0302B07D119462068FFF751FDB2
:1034A000002017E0002BF7D0012013E0B3F5805F78
:1034B0000FD0B3F5005FF7D1CB684A688968006820
:1034C000FFF7AEFF2268936843F4804393600020C7
:1034D00000E00020012384F83D30002384F83C30D4
:1034E00010BDCB684A6889680068FFF799FF2268B9
:1034F000936843F0770393600020EBE7CA6849685C
:103500000068FFF7F7FC50212068FFF71AFD002044
:10351000E0E7CA6849680068FFF7ECFC40212068D2
:10352000FFF70FFD0020D5E70220704710B401F02F
:103530001F01012303FA01F4036A23EA040303626F
:10354000036A8A40134303625DF8044B704700002E
:103550000A46002945D190F83E30DBB213F1FF3323
:1035600018BF0123002B73D110B5002A55D10223B7
:1035700080F83E301146044601220068FFF7D6FF6E
:103580002368354A934203D002F58062934203D107
:103590005A6C42F400425A6423682F4A93424CD03A
:1035A000B3F1804F49D0A2F57C42934245D002F559
:1035B0008062934241D002F5806293423DD002F591
:1035C0007842934239D002F57052934235D0A2F539
:1035D0009432934231D01A6842F001021A600020FE
:1035E00035E0042909D008290FD090F84130DBB22A
:1035F00013F1FF3318BF0123B4E790F83F30DBB27B
:1036000013F1FF3318BF0123ACE790F84030DBB271
:1036100013F1FF3318BF0123A4E7042A05D0082AB9
:1036200007D0022380F84130A4E7022380F83F301E
:10363000A0E7022380F840309CE79A6802F0070276
:10364000062A07D01A6842F001021A60002010BD55
:10365000012070470020FAE70000014090F83C305C
:10366000012B3BD030B4012380F83C30022380F89A
:103670003D3003685C689D6824F070040A6822434A
:103680005A600368164A93421AD0B3F1804F17D09C
:10369000A2F57C42934213D002F5806293420FD090
:1036A00002F5806293420BD002F57842934207D034
:1036B00002F57052934203D0A2F59432934204D1A2
:1036C00025F080054A6815439D60012380F83D3050
:1036D000002380F83C30184630BC70470220704709
:1036E0000000014090F83C30012B22D0012380F8EB
:1036F0003C30CB6823F440738A68134323F480631F
:103700004A68134323F400630A68134323F4805385
:103710000A69134323F400534A69134323F4804393
:10372000CA69134302685364002380F83C3018468A
:103730007047022070477047704700002DE9F04B3A
:1037400004460268136923F44053C1680B431361B4
:1037500083680269134342691343C2691A430168CB
:10376000CB6823F4164323F00C031343CB600268A9
:10377000536923F4407381690B43536103683A4AE8
:10378000934206D002F58062934202D0FFF780FA9E
:1037900001E0FFF78DFAE369B3F5004F30D04FF049
:1037A0000009061849EB090716EB000B47EB090C5B
:1037B0004FEACC0343EA5B734FEACB0293469C4645
:1037C00063689A009B0F10EB0B0049EB0C01FCF7B0
:1037D00017FD264DA5FB00325109642202FB1102A0
:1037E00013013233A5FB03235B0903F0F00202EB64
:1037F000011203F00F03216813448B60BDE8F08BC6
:1038000083464FF0000C06184CEB0C0716EB000833
:1038100047EB0C094FEAC90343EA58734FEAC80261
:103820009046994662680021921841EB01031BEB18
:1038300008004CEB0901FCF7E3FC0C4DA5FB003242
:103840005109642202FB1102D3003233A5FB03238A
:103850005B095A0002F4F87202EB011203F007034D
:10386000216813448B60C9E7001001401F85EB51AC
:103870002DE9F04104460F4616469846069D2368FA
:103880001B6837EA03030CBF01230023B3422BD18B
:10389000B5F1FF3FF3D02DB1FEF726FBA0EB0800FA
:1038A000A842ECD9226802F10C0353E8003F23F44C
:1038B000D0730C3242E800310029F3D1226802F1C2
:1038C000140353E8003F23F00103143242E80031AF
:1038D0000029F3D1202384F83D3084F83E300023C2
:1038E00084F83C30032000E00020BDE8F08158B3AC
:1038F00010B5044690F83D300BB3242384F83D30D6
:103900002268D36823F40053D3602046FFF716FFE4
:103910002268136923F4904313612268536923F0EA
:103920002A0353612268D36843F40053D360002014
:103930002064202384F83D3084F83E3010BD80F8A8
:103940003C30FDF7A5FDD8E7012070472DE9F04197
:1039500082B01E4690F83D30DBB2202B54D1044695
:103960000D469046002954D0002A54D090F83C309F
:10397000012B52D0012380F83C3000230364212323
:1039800080F83D30FEF7B0FA0746A4F82480A4F88A
:103990002680A368B3F5805F05D04FF000080023B0
:1039A00084F83C3011E0236913B14FF00008F6E7CA
:1039B000A8460025F3E738F8023B2268C3F3080362
:1039C0005360E38C013B9BB2E384E38C9BB273B105
:1039D00000963B46002280212046FFF749FFF0B9C0
:1039E000002DE8D015F8012B23685A60E9E700960E
:1039F0003B46002240212046FFF73AFF034680B9AC
:103A0000202284F83D2000E00223184602B0BDE8E1
:103A1000F0810123F9E70123F7E70223F5E7032308
:103A2000F3E70323F1E72DE9F04182B01E4690F859
:103A30003E30DBB2202B5BD104460D469046002978
:103A40005AD0002A5AD090F83C30012B58D001238C
:103A500080F83C3000230364222280F83E20036378
:103A6000FEF742FA0746A4F82C80A4F82E80A3683B
:103A7000B3F5805F05D04FF00008002384F83C3098
:103A800016E0236913B14FF00008F6E7A8460025B9
:103A9000F3E723685B68C3F3080328F8023B03E0FD
:103AA00023685B682B700135E38D013B9BB2E38596
:103AB000E38D9BB2BBB100963B46002220212046FD
:103AC000FFF7D6FEF0B9002DE3D0A368B3F5805F11
:103AD000E6D013B92369002BE2D023685B6803F0BA
:103AE0007F032B70DFE7202384F83E30002000E0C6
:103AF000022002B0BDE8F0810120FAE70120F8E7DA
:103B00000220F6E70320F4E7842801D00330704751
:103B10000020704708B500F039FD002008BD2DE9F0
:103B2000F04387B004460F464569A5B1866996B152
:103B3000D0F80480D0F80090B0F90800FFF7E4FF57
:103B400022690296019500903B464946404600F0A6
:103B5000AFFC059013E065682668D4F81080B4F9CE
:103B60000800FFF7D1FF05AB019300903B461FFA19
:103B700088F23146284600F0D5FC012803D105988B
:103B800007B0BDE8F0830020FAE708B5034600B9A6
:103B90000123184600F03EFE002008BD00F1080396
:103BA00043604FF0FF328260C36003610023036013
:103BB000704700230361704743684B609A688A60CE
:103BC0009A68516099600861036801330360704727
:103BD00030B40D68B5F1FF3F02D000F1080202E0F9
:103BE000026904E01A4653681C68AC42FAD953686B
:103BF0004B6099608A60516008610368013303601B
:103C000030BC70470369426881689160826841688E
:103C100051605A68824206D0002202611A68013A55
:103C20001A601868704782685A60F5E782B000230E
:103C300001930D4B1B68B3F1FF3F08D04FF05003C9
:103C400083F31188BFF36F8FBFF34F8FFEE74FF001
:103C5000500383F31188BFF36F8FBFF34F8F019B26
:103C6000002BFCD002B070470C0000200848006810
:103C7000006880F308884FF0000080F3148862B673
:103C800061B6BFF34F8FBFF36F8F00DF00BF00003F
:103C900008ED00E0DFF80C00016841F470010160FC
:103CA0007047000088ED00E04FF0807340F8043C5E
:103CB00021F0010140F8081C054B40F80C3C40F88D
:103CC000202C6FF0020340F8243C4438704700BFBA
:103CD0002D3C000800000000000000000000000073
:103CE000074B19680868B0E8F04F80F30988BFF304
:103CF0006F8F4FF0000080F311887047AFF30080A2
:103D0000C04A00204FF0500383F31188BFF36F8F38
:103D1000BFF34F8F0A4A136801331360012B00D0A1
:103D20007047084B1B6813F0FF0FF9D04FF050039A
:103D300083F31188BFF36F8FBFF34F8FFEE700BF90
:103D40000C00002004ED00E0094B1B6843B94FF064
:103D5000500383F31188BFF36F8FBFF34F8FFEE7DC
:103D6000013B034A13600BB983F31188704700BF0E
:103D70000C00002000000000000000000000000017
:103D8000EFF30980BFF36F8F154B1A681EF0100F09
:103D900008BF20ED108A20E9F04F10602DE90900DE
:103DA0004FF0500080F31188BFF34F8FBFF36F8F38
:103DB00000F056FD4FF0000080F3118809BC19682F
:103DC0000868B0E8F04F1EF0100F08BFB0EC108A82
:103DD00080F30988BFF36F8F704700BFAFF3008097
:103DE000C04A002008B54FF0500383F31188BFF399
:103DF0006F8FBFF34F8F00F007FC18B1034B4FF0EC
:103E000080521A60002383F3118808BD04ED00E09E
:103E1000084A0023136008490B60084B1B680849D7
:103E2000A1FB03139B09013B06490B6007231360A9
:103E3000704700BF10E000E018E000E00000002044
:103E4000D34D621014E000E03A4B1A683A4B9A42A4
:103E50000DD0384B1A68394B9A4211D14FF05003AC
:103E600083F31188BFF36F8FBFF34F8FFEE74FF0DF
:103E7000500383F31188BFF36F8FBFF34F8FFEE7BB
:103E800010B582B02E4B1A78D2B20192FF221A706E
:103E90001B78DBB28DF803309DF8033003F050033C
:103EA000284A1370284B07221A6009E0264A136833
:103EB000013B13609DF803305B00DBB28DF80330EB
:103EC0009DF8033013F0800FF0D11F4B1B68032BBC
:103ED00008D04FF0500383F31188BFF36F8FBFF307
:103EE0004F8FFEE71B0203F4E063174A1360019B48
:103EF000DBB2134A1370154B1A6842F470021A6051
:103F00001A6842F070421A60FFF782FF0024104BDB
:103F10001C60FFF7BFFE0F4A136843F04043136075
:103F2000FFF7A4FE00F09CFCFFF780FE204602B0E5
:103F300010BD00BF00ED00E071C20F4170C20F4123
:103F400000E400E0980E00209C0E002020ED00E030
:103F50000C00002034EF00E0124A12F0070F1ED0D0
:103F6000D11D21F00701C1F5705313440A460E48D4
:103F70000260002141601344083B23F007030B4813
:103F8000036059601960991A51601360084B1960F9
:103F9000084B1960084B4FF000421A6070474FF40D
:103FA0007053E4E7A40E0020B84A0020A00E0020C1
:103FB000AC4A0020A84A0020A44A002010B4134BA9
:103FC0001A6882421BD359685C18844203D1406846
:103FD00001445960184641684418A24213D10C4C60
:103FE0002468A2420DD05268114441601A681268D8
:103FF0000260984200D018605DF8044B7047134689
:10400000DEE70460F5E70260F3E700BFB84A00208E
:10401000A00E002070B5044600F0EEFA3C4B1B6881
:10402000BBB13C4B1B681C4267D1ACB1083414F0E7
:10403000070F11D024F00704083404F007035BB124
:104040004FF0500383F31188BFF36F8FBFF34F8F8F
:10405000FEE7FFF781FFE4E7002C50D02E4B1B68F2
:10406000A3424ED32D4B1D6801E02B4615466A68CE
:10407000A24202D22A68002AF7D1254A1268AA422F
:1040800041D01E6808362A681A606B681B1B102B0B
:1040900010D9281910F0070F08D04FF0500383F300
:1040A0001188BFF36F8FBFF34F8FFEE743606C60E3
:1040B000FFF784FF6A6818490B689B1A0B60184960
:1040C00009688B4201D216490B60124B1B681343DF
:1040D0006B6000232B60134A13680133136000F0F8
:1040E0001FFB16F0070F10D04FF0500383F3118819
:1040F000BFF36F8FBFF34F8FFEE70026EFE7002679
:10410000EDE70026EBE70026E9E7304670BD00BF8B
:10411000A00E0020A44A0020A84A0020B84A00208F
:10412000AC4A0020B04A0020002834D038B50446FC
:10413000A0F1080550F8042C174909680A4208D173
:104140004FF0500383F31188BFF36F8FBFF34F8F8E
:10415000FEE750F8080C40B14FF0500383F311888C
:10416000BFF36F8FBFF34F8FFEE722EA010244F8DF
:10417000042C00F041FA54F8041C084A13680B445C
:1041800013602846FFF71AFF054A136801331360CE
:1041900000F0C6FA38BD7047A44A0020A84A0020A3
:1041A000B44A0020084B1B681B683BB1064B1B68D8
:1041B000DB68DB685A68054B1A607047034B4FF0A9
:1041C000FF321A60704700BFC44A0020944B0020A1
:1041D0002DE9F04780469946089D099F0A9C266B69
:1041E00002F18042013A06EB820626F0070689B307
:1041F0000A4600230F2B07D8D05CE11881F8340061
:10420000D15C09B10133F5E7002384F84330062D72
:1042100000D90625E56265644FF0000AC4F848A09D
:10422000201DFFF7C6FC04F11800FFF7C2FC246153
:10423000C5F10705A5616462C4F84CA084F850A0DC
:104240004A4641463046FFF72FFD206007B13C60EB
:10425000BDE8F087002384F83430D8E738B500246F
:1042600007E004EB840293000E481844FFF796FC25
:104270000134062CF5D90C4D2846FFF78FFC0B4C6A
:104280002046FFF78BFC0A48FFF788FC0948FFF738
:1042900085FC0948FFF782FC084B1D60084B1C6039
:1042A00038BD00BFCC4A00206C4B0020804B002062
:1042B000A04B0020CC4B0020B84B0020C44A00206B
:1042C000C84A002010B50446FFF71CFD204A1368B9
:1042D000013313601F4B1B685BB11F4B1B686BB92D
:1042E0001C4B1B68DA6AE36A9A4207D8194B1C60B8
:1042F00004E0184B1C601368012B26D0174A136882
:1043000001331360E36A01229A40154908680243A9
:104310000A6003EB83039A00211D12481044FFF743
:104320004BFCFFF711FD0C4B1B686BB1094B1B6875
:10433000DA6AE36A9A4207D20B4B4FF080521A6056
:10434000BFF34F8FBFF36F8F10BDFFF787FFD5E728
:10435000584B0020C04A0020B44B0020644B002082
:10436000684B0020CC4A002004ED00E010B5044664
:1043700090F8513033B9006BFFF7D6FE2046FFF7B7
:10438000D3FE10BD012B0AD0022BFAD04FF0500300
:1043900083F31188BFF36F8FBFF34F8FFEE7FFF7F3
:1043A000C3FEEEE70F4B1B68D3B110B5FFF7AAFCB5
:1043B0000D4BDB68DC68201DFFF724FC0B4A1368FB
:1043C000013B1360074A1368013B1360FFF7BCFC15
:1043D0002046FFF7CBFF034B1B68002BE6D110BD37
:1043E000704700BF5C4B0020CC4B0020584B002096
:1043F00008B5FFF7D7FF064B1B68012BF9D9054B12
:104400004FF080521A60BFF34F8FBFF36F8FF0E70A
:10441000CC4A002004ED00E070B504460E461D4B6A
:104420001D681D4B18680430FFF7ECFB50B91A4BA0
:104430001B68DA6A012303FA02F218490B6823EABF
:1044400002030B60B4F1FF3F13D02C44124B1B68E6
:104450005C60A54216D8124B18680F4B19680431DE
:10446000FFF7B6FB0F4B1B68A34212D90D4B1C6024
:104470000FE0002EE9D0084B196804310A48FFF715
:104480009BFB06E0094B1868034B19680431FFF7E2
:104490009FFB70BDE04B0020C04A0020684B00200D
:1044A000C44A0020944B0020B84B0020C84A00208A
:1044B00070B586B00B9D0C9C45B94FF0500383F34B
:1044C0001188BFF36F8FBFF34F8FFEE744B94FF0F2
:1044D000500383F31188BFF36F8FBFF34F8FFEE755
:1044E00054260496049E542E08D04FF0500383F3B4
:1044F0001188BFF36F8FBFF34F8FFEE7049E2563D4
:10450000022584F8515000250395029405AD0195CC
:104510000A9D0095FFF75CFE2046FFF7D3FE059845
:1045200006B070BD2DE9F04385B0074688461546B4
:1045300099469000FFF76EFD08B306465420FFF73A
:1045400069FD0446B8B10663E4B1002384F8513034
:10455000039302940D9B01930C9B00934B462A46B8
:1045600041463846FFF734FE2046FFF7ABFE0120F8
:1045700005B0BDE8F0833046FFF7D6FDE4E74FF025
:10458000FF30F5E74FF0FF30F2E7000010B588B0DC
:1045900000240594069407AA06A905A8FDF798F833
:1045A000059B0293069B019300942346079A0D49AD
:1045B0000D48FFF77DFF08B908B010BD4FF050035C
:1045C00083F31188BFF36F8FBFF34F8F074B4FF00B
:1045D000FF321A60064B01221A60064B1C60FFF77F
:1045E00033FCE9E70C980008F1430008944B0020E5
:1045F000B44B0020E04B0020024A136801331360E3
:10460000704700BF604B0020F8B53A4B1B68002B89
:1046100069D1394B1D6801351D60C5B9374B1B6821
:104620001B6843B14FF0500383F31188BFF36F8FC2
:10463000BFF34F8FFEE7314A1168314B18681060A5
:104640001960304A136801331360FFF7ABFD2E4B3E
:104650001B68AB423DD900242C4B1B68DB6A03EB83
:1046600083039A002A4B9B58012B00D90124294B24
:104670001B68002B3CD001243AE001241F4B1B682F
:104680001B6843B31D4B1B68DB68DE6873689D4283
:1046900026D3371D3846FFF7B5FAB36A1BB106F1CA
:1046A0001800FFF7AFFAF36A01229A401A49086826
:1046B00002430A6003EB83039A003946144810440E
:1046C000FFF77AFAF26A114B1B68DB6A9A42D4D27E
:1046D000D4E70024D2E70C4B4FF0FF321A60BBE75F
:1046E000094A1360B8E70D4A1368013313600024C8
:1046F0002046F8BD604B0020E04B0020C44A00205B
:10470000C84A0020984B0020944B0020C04A00204B
:10471000CC4A0020E44B0020684B00209C4B00203A
:1047200038B5334B1B6843B94FF0500383F31188FE
:10473000BFF36F8FBFF34F8FFEE7FFF7E3FA2C4B0A
:104740001A68013A1A601B68002B4DD1294B1B686F
:1047500023B90024FFF7F8FA204638BD0024264B81
:104760001B681BB3244BDB68DC6804F11800FFF7FF
:1047700049FA251D2846FFF745FAE36A01229A40C7
:104780001E49086802430A6003EB83039A00294626
:104790001B481044FFF710FAE26A1A4B1B68DB6AE9
:1047A0009A42DCD3184B01221A60D8E70CB1FFF70C
:1047B000F9FC164B1C6854B1FFF726FF10B1124BE1
:1047C00001221A60013CF7D1104B00221A600E4BF7
:1047D0001B685BB10E4B4FF080521A60BFF34F8FD6
:1047E000BFF36F8F0124B5E70024B3E70024B1E7DE
:1047F000604B0020584B0020A04B0020684B00204D
:10480000CC4A0020C04A0020E44B00209C4B0020F2
:1048100004ED00E010B5A8B104460F4B1B6843B18E
:104820004FF0500383F31188BFF36F8FBFF34F8FA7
:10483000FEE7FFF7E1FE00212046FFF7EDFDFFF761
:104840006FFF38B9054B4FF080521A60BFF34F8F9E
:10485000BFF36F8F10BD00BF604B002004ED00E080
:10486000204B1B681BB1204B01221A6070471E4B66
:1048700000221A601D4B1B68B3FA83F3DBB2C3F14D
:104880001F0303EB83018A0019498A5842B94FF08C
:10489000500383F31188BFF36F8FBFF34F8FFEE791
:1048A00010B413489A00D418A10001444C686468FD
:1048B0004C601A4491000831084484420BD003EB49
:1048C00083039A000A4B13445B68DA68094B1A6049
:1048D0005DF8044B704761680548142202FB03022F
:1048E0005160ECE7604B0020E44B0020684B002057
:1048F000CC4A0020C04A0020014B1868704700BF16
:104900001000002070B50D4E0D4D761BB61006D070
:104910000024013455F8043B9847A642F9D1094ECA
:10492000094D761B04F01AFFB61006D0002401349E
:1049300055F8043B9847A642F9D170BDA89A0008E3
:10494000A89A0008B09A0008A89A0008F0B4860750
:1049500043D0541E002A3ED0CAB2034602E014F1EE
:10496000FF3438D303F8012B9D07F8D1032C2BD942
:10497000CDB245EA05250F2C45EA054516D9A4F127
:1049800010073F0903F1200606EB071603F110029A
:1049900042E9045542E902551032B242F8D104F01E
:1049A0000F040137032C03EB07130DD91E462246D3
:1049B000043A032A46F8045BFAD8221F22F00302C5
:1049C0000432134404F003042CB1C9B21C4403F8AC
:1049D000011B9C42FBD1F0BC704714460346C5E75F
:1049E0000FB400B5074983B004AB086853F8042B33
:1049F0008168019300F0C8F803B05DF804EB04B0DF
:104A0000704700BF100000202DE9F0435D4C256881
:104A100083B00446884616461F4615B1AB6B002B83
:104A20007ED0022E05D0012E00F2A980002FC0F208
:104A3000A680636EDA0735D52146284602F0E6FEE9
:104A4000216B41B104F14003994202D0284602F0A3
:104A5000DBFF00232363B4F90C3000221806A261A7
:104A6000626061D423F44A6323F00303022EA3811E
:104A70001FD10025616E002004F1430243F00203C0
:104A8000A060C9074FF00100A3812260C4E904209F
:104A900004D49B0502D4A06D03F0E8F8284603B0C7
:104AA000BDE8F083A3899B05C6D4A06D03F0DCF8B4
:104AB000C2E701AB6A462146284603F0D9F8A3892C
:104AC0001843A081002F36D1009F384603F048F9E3
:104AD0008046002842D0A38943F08003A381AB6BBA
:104AE0007BB3009AB4F90C30C4F80080BA421CBF02
:104AF00043F40063A381012E04BF43F00103A381AB
:104B00009BB213F00802C4E904871ED1A260656E4F
:104B100015F00105BDD00025284603B0BDE8F0839F
:104B2000284602F0CFFE7CE72169284602F06CFFA0
:104B3000B4F90C3096E7B8F1000FC6D0AB6B002B80
:104B4000CFD1284602F0BEFECBE7DA0704D57F427C
:104B50000022A761A260DAE7A760D8E7DDF800903D
:104B6000B94504D1B4F90C304FF0FF3582E748461F
:104B700003F0F6F880460028F4D04F46ABE74FF03C
:104B8000FF358BE7100000202DE9F04FD7B01C4611
:104B9000894617460546039003F054F803681693B8
:104BA0001846FBF7ADFD089415901DB1AB6B002BBB
:104BB00000F00781D9F86410B9F90C20C80793B246
:104BC00002D4990540F11F819E040AD4D9F86410DB
:104BD00042F4005321F40051A9F80C30C9F86410D4
:104BE0009BB21D0740F1B280D9F81020002A00F0D6
:104BF000AD8003F01A020A2A00F0C98000239FED5D
:104C0000867B1093CDE92B331793CDE919331B9392
:104C1000189305932DAB2A939B463B78CDF81C90B7
:104C20008DED127B002B00F05982252B3C4602D1E2
:104C30001DE0252B03D014F8013F002BF9D1E51B13
:104C40008DB1DDE92B3201332A44072BCBF80070FC
:104C5000CBF80450CDE92B3200F3CA800BF1080BDE
:104C6000059B2B4405932378002B00F0378200230B
:104C70006678069398468DF88B3004F1010A4FF060
:104C8000FF392B250AF1010AA6F120035A2B00F265
:104C90002A84DFE813F0AA03280428049C022804CD
:104CA00028042804A70228042804C602D2022804E3
:104CB000D702DC022804F6026D026D026D026D025D
:104CC0006D026D026D026D026D0228042804280435
:104CD0002804280428042804FB0228043C03F303C6
:104CE000FB02FB02FB022804280428042804EE032C
:104CF000280428049A0028042804280450032804BF
:104D0000790328042804900328042804280428048C
:104D10002804280428042804FB0228043C03C500B6
:104D2000FB02FB02FB02D103C50070002804B5039F
:104D30002804C2039C00DE037000280450037200A4
:104D40002C02280428047C02280472004946039897
:104D500001F09AFCA0B1D9F86430D80704D4B9F8AE
:104D60000C30990540F1B7834FF0FF330593059858
:104D700057B0BDE8F08F48F020089AF8006081E74E
:104D8000B9F80C3003F01A020A2A7FF437AFB9F9E8
:104D90000E20002AFFF632AFD9F86420D20705D4DE
:104DA0009B0503D4D9F8580002F060FF23463A4629
:104DB0004946039801F026FC0590059857B0BDE8D8
:104DC000F08F039802F07EFDF4E648F0100818F02A
:104DD000200F00F06C83089C073424F00703D3E90C
:104DE000004503F10802089228F4806300228CE158
:104DF0002AAA0799039803F06DFE002841F07683F4
:104E00000DF1B40B2CE7D9F8580002F02DFFB9F9D9
:104E10000C2093B2D8E600BF0000000000000000A4
:104E200043469F0640F12F83089C073424F0070473
:104E3000D4E9000104F10802089204460D46002856
:104E400071F1000205DA2D22644265EB45058DF80B
:104E50008B2056AAB9F1FF3F049200F0B2840122E0
:104E600054EA050123F0800840F05981B9F1000FA0
:104E700040F01986002A40F0088513F0010356AF70
:104E8000099302D0302307F8013D00230A930F93C2
:104E900014931193099B9DF88B204B45B8BF4B464B
:104EA000049312B1049B0133049318F002030B9393
:104EB00002D0049B0233049318F084032C9C0E93BD
:104EC0003FD1069B04995D1A002D3ADD102D2B9AD7
:104ED00029DD5946204620961023039C079EBB4699
:104EE00004E0103D102D01F1080118DD0132BA4F28
:104EF0001030072ACDE92B20C1E90073F1DD2AAA81
:104F0000314620460C9303F0E5FD002840F03D8437
:104F1000103D102DDDE92B202DA90C9BE6DC209EF9
:104F20005F4604468B460132AB4B2C44072ACDE941
:104F30002B24CBE9003500F3FF849DF88B200BF187
:104F4000080B72B12B9A013201340DF18B00012153
:104F5000072ACDE92B24CBE9000100F318840BF1DB
:104F6000080B0B9B6BB12B9B0133023423A902224C
:104F7000072BCDE92B34CBE9001200F315840BF19C
:104F8000080B0E9B802B00F03183099BA9EB0305D6
:104F9000002D37DD102D2B9A904B28DD59462046E9
:104FA000BB464FF0100937461C46079E04E0103DF3
:104FB000102D01F1080115DD01321030072ACDE96D
:104FC0002B20C1E90049F2DD2AAA3146039803F0FB
:104FD00081FD002840F0D983103D102DDDE92B2004
:104FE0002DA9E9DC3E4623465F4604468B46013246
:104FF0002C44072ACDE92B24CBE9003500F3EF83BD
:105000000BF1080B18F4807F40F080822B9B099AEB
:10501000CBF8007001331444072B2C94CBF80420F8
:105020002B9300F392830BF1080B18F0040F3BD085
:10503000069B049A9D1A002D36DD102D2B9B21DD39
:105040001026039FDDF81C8004E0103D102D0BF1AD
:10505000080B17DD0133604A1034072BCDE92B34E0
:10506000CBE90026F1DD2AAA4146384603F032FD9D
:10507000002840F06C85103D102DDDE92B340DF13A
:10508000B40BE7DC0133544A2C44072BCDE92B3415
:10509000CBE9002508DD2AAA0799039803F01AFD39
:1050A000002840F0E9822C9C0499DDE905328A420F
:1050B000ACBF9B185B180593002C40F0D5820023F1
:1050C0002B930A9B1BB10A99039802F09DFC0DF1EA
:1050D000B40B57463B78002B7FF4A7AD2C9BDDF833
:1050E0001C90002B41F0E78000232B93CBE243463A
:1050F0009A0640F14E81089C073424F0070202F121
:105100000801D2E900450891012200218DF88B1099
:10511000B9F1FF3F56A904917FF4A2AE9846012A47
:1051200000F05083022A00F01B8356A900E03946A4
:10513000E20842EA4572E80804F00703054614460F
:10514000303354EA050201F8013C01F1FF37EED19A
:1051500018F0010F00F01483302B00F01183049A33
:1051600002393023521A07F8013C09920F468CE6A7
:10517000A6F1300300221AF8016B02EB820203EB66
:105180004202A6F13003092BF5D906927CE5144BB7
:10519000179318F0200F00F01481089C073424F0B6
:1051A0000703D3E9004503F10802089218F0010F44
:1051B00009D054EA050306D030238DF88D6048F0FD
:1051C00002088DF88C3028F4806302229DE748F0B5
:1051D00001089AF8006055E55C9800086C98000892
:1051E00028980008039E304602F02CFD436818936F
:1051F0001846FBF785FA1B900446304602F022FD64
:1052000083681A93002C3FF4B8AD9AF80060002B25
:105210003FF438AD1B78002B3FF434AD48F4806880
:1052200030E5089B9AF800601A680692002A03F19C
:105230000403C0F29786089324E58DF88B509AF802
:1052400000601FE59AF8006048F004081AE59AF833
:1052500000602A2E0AF1010201F0B081A6F13003AC
:10526000092B92464FF000093FF60EAD1AF8016B7C
:1052700009EB890903EB4909A6F13003092BF5D99C
:1052800002E548F080089AF80060FBE4089C0734C7
:1052900024F0070494ED007B52EC171B22F000432E
:1052A0001D938DED1C7A0834DDE91C014FF0FF32AF
:1052B000BA4B08948DED127BFBF7E6FE002840F018
:1052C0006F844FF0FF32B54BDDE91C01FBF7BEFEEA
:1052D000002840F0658400220023DDE91201FBF77D
:1052E000ABFE002840F05B859DF88B20AC4FAD4BAA
:1052F0000020032104910A9028F08008472ED8BF8F
:105300001F46099181460F9014901190C9E50898A5
:10531000002301688DF88B301A468DF8F4100123B4
:10532000011D04930A9291460F9214921192CDE9B5
:1053300008133DAFB9E5089B1F6800258DF88B5019
:105340001C1D002F00F03986B9F1FF3F00F01187D6
:105350004A4629463846FBF773F90A90002800F0C0
:10536000E7850A9BDB1B0993A94623EAE3730894AC
:105370000493CDF82890CDF83C90CDF85090CDF81E
:1053800044909DF88B208CE548F010039A063FF579
:10539000B2AE089ADF0602F1040100F17E835D06D9
:1053A000089A00F1E4849C0540F177831478089111
:1053B00000250122A9E67C4B179318F0200F7FF4FB
:1053C000ECAE089A18F0100F02F1040340F0548379
:1053D00018F0400F089A40F0D08418F4007F00F0D5
:1053E0004B83147808930025E0E69DF88B309AF8FB
:1053F0000060002B7FF446AC20238DF88B3041E415
:105400009AF800606C2E03BF9AF8016048F02008FB
:105410000AF1010A48F0100834E4089A18F0200F45
:1054200052F8043B089200F0A183059A1046D11768
:10543000C3E9000157464DE69AF80060682E03BFA5
:105440009AF8016048F400780AF1010A48F040082F
:1054500018E40899554B0C68179347F6300204314D
:10546000ADF88C2048F0020308910025022278262E
:105470004BE648F008089AF8006003E448F010038F
:105480009F063FF5D1AC0899DD0601F1040200F159
:10549000FD825C06089900F17584980540F1F6825A
:1054A00091F900400892E51720462946C7E4089A7A
:1054B00018F0100F02F1040340F0E38218F0400FDF
:1054C000089A40F0678418F4007F00F0DA821478BC
:1054D0000893002588E4D9F8580002F0C7FB4FF084
:1054E000FF33059343E4002E3FF4F8AD0023012180
:1054F0001A4604918DF8F4608DF88B300A93994622
:105500000F931493119309913DAFCEE4652E40F3B0
:10551000CA8000220023DDE91201FBF783FD002889
:1055200000F069812B9B224ACBF800200133013423
:105530000122072BCDE92B34CBF8042000F306849D
:105540000BF1080B249B109A2C9C934203DB18F060
:10555000010F3FF46AAD2B9B169ACBF80020159AE9
:10556000CBF8042001331444072BCDE92B3400F38E
:1055700017850BF1080B109B5D1E002D7FF755ADB5
:10558000102D2B9A0B4B40F3E78219461026234629
:10559000039FDDF81C900C4614E000BFFFFFEF7F77
:1055A0001C980008189800083C98000828980008E3
:1055B000589800086C9800080BF1080B103D102D4E
:1055C00040F3C78201321033072ACDE92B23CBE900
:1055D0000046F1DD2AAA4946384603F07BFA002846
:1055E0004CD1DDE92B230DF1B40BE7E7069B049AC0
:1055F0009D1A002D7FF7C9AC102D2B9ABC4B27DDCF
:1056000059462046BB461C463746079E04E0103DDF
:10561000102D01F1080116DD013210301023072A88
:10562000CDE92B200C604B60F1DD2AAA31460398AE
:1056300003F050FA002840F0A880103D102DDDE95D
:105640002B202DA9E8DC3E4623465F4604468B46C8
:1056500001322C44072ACDE92B24CBE9003500F395
:1056600092820BF1080B90E42AAA0799039803F0A1
:1056700031FA00283FF423ADDDF81C900A9911B1EE
:10568000039802F0C1F9D9F86420B9F80C30D007BA
:1056900002D4990540F1D0815A063FF565AB0598D3
:1056A00057B0BDE8F08F109A2B9B012A04F101043A
:1056B00003F101050BF1080640F31C810123072DBE
:1056C000CBF80070CDE92B54CBF8043000F3BB814C
:1056D000159B169A691C1C4407290B91CDE92B14C4
:1056E000C6E9002300F3BB8108360B9A531C1D4604
:1056F0000995109D0E9300220023DDE9120105F1AA
:10570000FF3906F1080BFBF78DFC002840F0C28042
:10571000099DC6F8049001374C44072D37602C943E
:105720002B9500F3F9800B9A06F1100302325E46C6
:1057300009929B46199A72601444099A2C9426ABDC
:10574000072A2B9233607FF770AC2AAA0799039837
:1057500003F0C0F900288FD12C9C0DF1B40B64E448
:10576000179856AF230904F00F0143EA05732A097D
:105770001C461546435C07F8013D54EA0503F1D188
:10578000049BDB1B0993FFF780BBB14676E72AAA8F
:105790000799039803F09EF900287FF46DAF2C9CC5
:1057A0000DF1B40BFFF7DDBB2AAA0799039803F0AC
:1057B00091F900287FF460AF2C9C0DF1B40BFFF73A
:1057C000E0BB9846002D08BF0A2C80F0708156AFD0
:1057D0003034012307F8014D0993FFF756BB2AAA7D
:1057E0000799039803F076F900287FF445AF2C9CC5
:1057F0000DF1B40B06E4249B002B40F37382DDE92A
:1058000010239342A8BF1346002B1D460DDD2B9B92
:10581000CBF8007001332C44072B2C94CBF80450A8
:105820002B9300F3C1820BF1080B119B002DA8BF35
:105830005B1B002B1D4640F39980102D2B9A2C4B9F
:1058400040F3DB83184621465B461026BB46DDF855
:105850000C90079C074604E00833103D102D40F3E0
:10586000C78301321031072ACDE92B21C3E9007625
:10587000F2DD2AAA2146484603F02CF9002840F020
:10588000A584DDE92B212DABE7E7CDF8249056AFB9
:10589000FFF7FBBAB9F1000F7FF74CAFB9F1100F6A
:1058A000134B40F359861946224633461027DDF83C
:1058B0000CB0079C0E9D0E4607E00833A9F11009B5
:1058C000B9F1100F40F3538301351032072DCDE9A4
:1058D0002B52C3E90067F0DD2AAA2146584603F09F
:1058E000F9F8002840F07284DDE92B522DABE5E792
:1058F0006C98000818F0010F7FF4E0AE0122072D2C
:10590000CBF80070CDE92B54CBF8042004DC023333
:1059100009930BF1100B0DE72AAA0799039803F0DE
:10592000D9F800287FF4A8AEDDE92B3401330993C0
:105930000DF1BC0B2DAEFDE62AAA0799039803F0E2
:10594000C9F800287FF498AE9DF88B202C9C0DF1AF
:10595000B40BFFF7F6BA2AAA0799039803F0BAF82E
:1059600000287FF489AE2C9C0DF1B40B119B18F428
:10597000806F3B44994640F05783249B109A934292
:1059800049DB18F0010F46D1109ABD18A5EB0905A7
:10599000D31A9D42A8BF1D46002D0DDD2B9ACBF8D2
:1059A000009001322C44072A2C94CBF804502B92FF
:1059B00000F362840BF1080B002DACBF5D1B1D468C
:1059C000002D7FF732AB102D2B9AC54B40F3C480CE
:1059D000194610262346039FDDF81C900C4605E06F
:1059E0000BF1080B103D102D40F3B3800132103342
:1059F000072ACDE92B23CBE90046F1DD2AAA494647
:105A0000384603F067F800287FF438AEDDE92B2331
:105A10000DF1B40BE6E72B9A1699CBF80010159907
:105A2000CBF8041001320C44072A2C942B9200F37B
:105A30008C820BF1080BA7E7D9F8580002F016F991
:105A4000B9F80C3028E62AAA0799039803F042F81F
:105A500000287FF411AEDDE92B542DAE38E62AAADA
:105A60000799039803F036F800287FF405AEDDE9C6
:105A70002B342DAE0B9338E6146808930025FFF7FE
:105A800095BB146808930025FFF7AEB90C6808921F
:105A9000E51720462946FFF7D2B91468089101227C
:105AA0000025FFF732BB012A7FF43CAB8FE608F4F8
:105AB00080630022CDE909A6CDF82C8056AF92462E
:105AC000DDF868801E460AE00023204629460A22A7
:105AD000FAF796FB04460D4654EA050329D00A223C
:105AE000002320462946FAF78BFB303207F8012CB9
:105AF0000AF1010A013F002EE6D098F800309A45DD
:105B0000E2D1BAF1FF0FDFD0002D08BF0A2CDBD3A2
