:020000040800F2
:1000000000000220353D0008793C0008853D0008CD
:100010007B3C00087D3C00087F3C0008000000009D
:10002000000000000000000000000000316900082E
:10003000813C000800000000D1690008833C0008F2
:10004000853D0008853D0008853D0008853D000888
:10005000853D0008853D0008853D0008853D000878
:10006000853D0008853D0008853D0008853D000868
:10007000853D0008853D0008853D0008853D000858
:10008000853D0008853D0008853D0008853D000848
:10009000853D0008853D0008853D0008853D000838
:1000A000853D0008853D0008853D0008853D000828
:1000B000853D0008853D0008853D0008853D000818
:1000C000853D0008853D0008853D0008853D000808
:1000D000853D0008853D0008853D0008993C0008E5
:1000E000853D0008853D0008853D0008853D0008E8
:1000F000853D0008A93C0008853D0008853D0008B5
:10010000853D0008853D0008853D0008853D0008C7
:10011000853D0008853D0008853D0008853D0008B7
:10012000853D0008853D0008853D0008853D0008A7
:10013000853D0008853D0008853D0008853D000897
:10014000853D0008853D0008853D0008853D000887
:10015000853D0008853D0008853D0008853D000877
:10016000853D0008853D0008853D0008853D000867
:10017000853D0008853D0008853D00080000000021
:08018000853D0008853D0008E3
:1001C00010B5054C237833B9044B13B10448AFF391
:1001D00000800123237010BDC00900200000000032
:1001E0007CD4000808B5034B1BB103490348AFF3A7
:1001F000008008BD00000000C40900207CD4000875
:1002000081F0004102E000BF83F0004330B54FEAC7
:1002100041044FEA430594EA050F08BF90EA020F34
:100220001FBF54EA000C55EA020C7FEA645C7FEAC7
:10023000655C00F0E2804FEA5454D4EB5555B8BFEA
:100240006D420CDD2C4480EA020281EA030382EA5B
:10025000000083EA010180EA020281EA0303362DED
:1002600088BF30BD11F0004F4FEA01314FF4801CC0
:100270004CEA113102D0404261EB410113F0004FD2
:100280004FEA03334CEA133302D0524263EB430389
:1002900094EA050F00F0A780A4F10104D5F1200E27
:1002A0000DDB02FA0EFC22FA05F2801841F1000182
:1002B00003FA0EF2801843FA05F359410EE0A5F156
:1002C00020050EF1200E012A03FA0EFC28BF4CF087
:1002D000020C43FA05F3C01851EBE37101F000453D
:1002E00007D54FF0000EDCF1000C7EEB00006EEB4A
:1002F0000101B1F5801F1BD3B1F5001F0CD34908D4
:100300005FEA30004FEA3C0C04F101044FEA44522A
:1003100012F5800F80F09A80BCF1004F08BF5FEAB1
:10032000500C50F1000041EB045141EA050130BD91
:100330005FEA4C0C404141EB010111F4801FA4F134
:100340000104E9D191F0000F04BF01460020B1FA89
:1003500081F308BF2033A3F10B03B3F120020CDAC1
:100360000C3208DD02F1140CC2F10C0201FA0CF09F
:1003700021FA02F10CE002F11402D8BFC2F1200C04
:1003800001FA02F120FA0CFCDCBF41EA0C019040BA
:10039000E41AA2BF01EB0451294330BD6FEA040403
:1003A0001F3C1CDA0C340EDC04F11404C4F12002EE
:1003B00020FA04F001FA02F340EA030021FA04F300
:1003C00045EA030130BDC4F10C04C4F1200220FA57
:1003D00002F001FA04F340EA0300294630BD21FA95
:1003E00004F0294630BD94F0000F83F4801306BF5B
:1003F00081F480110134013D4EE77FEA645C18BF4F
:100400007FEA655C29D094EA050F08BF90EA020FE5
:1004100005D054EA000C04BF1946104630BD91EADD
:10042000030F1EBF0021002030BD5FEA545C05D1E0
:100430004000494128BF41F0004130BD14F580041F
:100440003CBF01F5801130BD01F0004545F0FE4193
:1004500041F470014FF0000030BD7FEA645C1ABFC8
:10046000194610467FEA655C1CBF0B46024650EAFF
:10047000013406BF52EA033591EA030F41F400212B
:1004800030BD00BF90F0000F04BF0021704730B5B1
:100490004FF4806404F132044FF000054FF0000186
:1004A00050E700BF90F0000F04BF0021704730B547
:1004B0004FF4806404F1320410F0004548BF40421C
:1004C0004FF000013EE700BF42004FEAE2014FEA71
:1004D00031014FEA02701FBF12F07F4393F07F4F4C
:1004E00081F06051704732F07F4208BF704793F04F
:1004F0007F4F04BF41F40021704730B54FF4607462
:1005000001F0004521F000411CE700BF50EA010264
:1005100008BF704730B54FF000050AE050EA01020D
:1005200008BF704730B511F0004502D5404261EB7D
:1005300041014FF4806404F132045FEA915C3FF4BE
:10054000D8AE4FF003025FEADC0C18BF03325FEA5B
:10055000DC0C18BF033202EBDC02C2F1200300FA0C
:1005600003FC20FA02F001FA03FE40EA0E0021FA31
:1005700002F11444BDE600BF70B54FF0FF0C4CF41F
:10058000E06C1CEA11541DBF1CEA135594EA0C0FD1
:1005900095EA0C0F00F0DEF82C4481EA030621EA0C
:1005A0004C5123EA4C5350EA013518BF52EA033547
:1005B00041F4801143F4801338D0A0FB02CE4FF0F9
:1005C0000005E1FB02E506F00042E0FB03E54FF029
:1005D0000006E1FB03569CF0000F18BF4EF0010E21
:1005E000A4F1FF04B6F5007F64F5407404D25FEA1D
:1005F0004E0E6D4146EB060642EAC62141EA5551D0
:100600004FEAC52040EA5E504FEACE2EB4F1FD0C11
:1006100088BFBCF5E06F1ED8BEF1004F08BF5FEA8F
:10062000500E50F1000041EB045170BD06F0004641
:1006300046EA010140EA020081EA0301B4EB5C04EE
:10064000C2BFD4EB0C0541EA045170BD41F48011E6
:100650004FF0000E013C00F3AB8014F1360FDEBF0B
:10066000002001F0004170BDC4F10004203C35DAE7
:100670000C341BDC04F11404C4F1200500FA05F36A
:1006800020FA04F001FA05F240EA020001F000420B
:1006900021F0004110EBD37021FA04F642EB060181
:1006A0005EEA430E08BF20EAD37070BDC4F10C04AB
:1006B000C4F1200500FA04F320FA05F001FA04F26F
:1006C00040EA020001F0004110EBD37041F100015B
:1006D0005EEA430E08BF20EAD37070BDC4F1200566
:1006E00000FA05F24EEA020E20FA04F301FA05F2CE
:1006F00043EA020321FA04F001F0004121FA04F276
:1007000020EA020000EBD3705EEA430E08BF20EA45
:10071000D37070BD94F0000F0FD101F0004640007F
:1007200041EB010111F4801F08BF013CF7D041EA01
:10073000060195F0000F18BF704703F00046520005
:1007400043EB030313F4801F08BF013DF7D043EAD6
:100750000603704794EA0C0F0CEA135518BF95EA8C
:100760000C0F0CD050EA410618BF52EA4306D1D113
:1007700081EA030101F000414FF0000070BD50EA32
:10078000410606BF1046194652EA430619D094EABC
:100790000C0F02D150EA013613D195EA0C0F05D1A6
:1007A00052EA03361CBF104619460AD181EA0301FA
:1007B00001F0004141F0FE4141F470014FF00000B2
:1007C00070BD41F0FE4141F4780170BD70B54FF04D
:1007D000FF0C4CF4E06C1CEA11541DBF1CEA1355CD
:1007E00094EA0C0F95EA0C0F00F0A7F8A4EB0504AF
:1007F00081EA030E52EA03354FEA013100F08880A6
:100800004FEA03334FF0805545EA131343EA12636E
:100810004FEA022245EA111545EA10654FEA002623
:100820000EF000419D4208BF964244F1FD0404F5DC
:10083000407402D25B084FEA3202B61A65EB030538
:100840005B084FEA32024FF480104FF4002CB6EBF5
:10085000020E75EB030E22BFB61A754640EA0C0075
:100860005B084FEA3202B6EB020E75EB030E22BFB5
:10087000B61A754640EA5C005B084FEA3202B6EBF6
:10088000020E75EB030E22BFB61A754640EA9C00B5
:100890005B084FEA3202B6EB020E75EB030E22BF85
:1008A000B61A754640EADC0055EA060E18D04FEA43
:1008B000051545EA16754FEA06164FEAC30343EAE3
:1008C00052734FEAC2025FEA1C1CC0D111F4801FB0
:1008D0000BD141EA00014FF000004FF0004CB6E7A9
:1008E00011F4801F04BF01430020B4F1FD0C88BF48
:1008F000BCF5E06F3FF6AFAEB5EB030C04BFB6EB53
:10090000020C5FEA500C50F1000041EB045170BD45
:100910000EF0004E4EEA113114EB5C04C2BFD4EB72
:100920000C0541EA045170BD41F480114FF0000EF6
:10093000013C90E645EA060E8DE60CEA135594EA72
:100940000C0F08BF95EA0C0F3FF43BAF94EA0C0F75
:100950000AD150EA01347FF434AF95EA0C0F7FF4EA
:1009600025AF104619462CE795EA0C0F06D152EA3E
:1009700003353FF4FDAE1046194622E750EA410622
:1009800018BF52EA43067FF4C5AE50EA41047FF433
:100990000DAF52EA43057FF4EBAE12E74FEA410296
:1009A00012F5001215D211D56FF47873B3EB6252C1
:1009B00012D94FEAC12343F0004343EA505311F0E8
:1009C000004F23FA02F018BF404270474FF000007A
:1009D000704750EA013005D111F0004008BF6FF0B8
:1009E000004070474FF00000704700BF53B94AB94C
:1009F000002908BF00281CBF4FF0FF314FF0FF3027
:100A000001F0F8B8ADF1080C6DE904CE00F006F87D
:100A1000DDF804E0DDE9022304B070472DE9F0477A
:100A2000089E04468846002B4BD18A42154667D95A
:100A3000B2FA82F24AB1C2F1200701FA02F320FAB7
:100A400007F7954047EA030894404FEA154E230CF8
:100A5000B8FBFEF71FFA85FC0EFB178843EA084334
:100A600007FB0CF1994209D9EB1807F1FF3080F030
:100A70001B81994240F21881023F2B445B1AA4B2B9
:100A8000B3FBFEF00EFB103344EA034400FB0CFC06
:100A9000A44509D92C1900F1FF3380F00781A44542
:100AA00040F2048102382C4440EA0740A4EB0C04D5
:100AB00000271EB1D4400023C6E900433946BDE8F3
:100AC000F0878B4209D9002E00F0EB800027C6E9A1
:100AD000000138463946BDE8F087B3FA83F7002FA6
:100AE00047D18B4202D3824200F2FA80841A61EB32
:100AF000030301209846002EE0D0C6E90048DDE758
:100B000002B9FFDEB2FA82F2002A40F08F80491B60
:100B10004FEA154E1FFA85F80127B1FBFEFC230CA6
:100B20000EFB1C1143EA014308FB0CF1994207D963
:100B3000EB180CF1FF3002D2994200F2CD808446CE
:100B4000591AA3B2B1FBFEF00EFB101443EA0444A1
:100B500008FB00F8A04507D92C1900F1FF3302D299
:100B6000A04500F2B6801846A4EB080440EA0C4009
:100B70009FE7C7F1200CBB4022FA0CFE4EEA030EA1
:100B800001FA07F420FA0CF521FA0CF34FEA1E489B
:100B90002543B3FBF8F92C0C08FB19331FFA8EFA26
:100BA00044EA034309FB0AF49C4202FA07F200FA02
:100BB00007F10BD91EEB030309F1FF3080F08780AA
:100BC0009C4240F28480A9F1020973441B1BADB220
:100BD000B3FBF8F008FB103345EA034400FB0AFAC4
:100BE000A24508D91EEB040400F1FF336BD2A245E5
:100BF00069D90238744440EA0940A0FB0289A4EB99
:100C00000A044C45C2464B4654D351D0002E69D0FD
:100C1000B1EB0A0564EB030404FA0CFCFD40FC4054
:100C20004CEA0505C6E90054002747E7C2F1200356
:100C300020FA03F7954001FA02F021FA03F34FEA94
:100C4000154E3843010CB3FBFEF71FFA85F80EFB77
:100C5000173341EA034107FB08F38B4204FA02F41D
:100C600007D9691807F1FF3C2FD28B422DD9023FDB
:100C70002944CB1A81B2B3FBFEF00EFB103341EADC
:100C8000034100FB08F38B4207D9691800F1FF3CD0
:100C900017D28B4215D902382944C91A40EA0747AE
:100CA0003BE73746304609E70746E7E61846FBE6E6
:100CB0004145ABD2B8EB020A69EB0E02013813468C
:100CC000A4E76046E9E7184695E76746D1E781461D
:100CD0007CE702382C4447E7ACF1020C2B442FE7A9
:100CE000384608E73746E9E603685A004CBF43F048
:100CF000004323F000431844704700BF61B32DE95F
:100D0000F84F01F1FF3A90460646D146002707EB1F
:100D1000090404EBD4746410E50071190846FFF768
:100D2000E3FFA245834605F10800304409D0FFF7F0
:100D3000DBFFC34500F1FF3005D8404509D2671CF1
:100D4000E5E7C34505D9A74202D004F1FF39DEE744
:100D500000210846BDE8F88F08467047012807D0F3
:100D6000022807D0044B00280CBF1846002070470B
:100D70000248704702487047491400084D140008A3
:100D80005114000830B5254B83B004468D1E4BB37B
:100D900001A92846AFF30080F0B101992A46FFF778
:100DA000ADFF0146C0B1FFF79FFF4B68A064012B68
:100DB0002ED0002B01F1040026DBFFF795FF002366
:100DC000C4E913030368002B12DBFFF78DFF002338
:100DD0002061184603B030BD002323610923184663
:100DE00003B030BD0E490F48091AC9100191D5E76B
:100DF000C3F30360FFF7B2FF002814BF00230923E9
:100E00002061184603B030BD0123C4E91303D9E7BC
:100E1000002323610523184603B030BD0000000005
:100E2000C4DC0008ACDB00080368DA0710B5044630
:100E300006D49B0700F1480009D500F05FFC236849
:100E4000590709D51A070ED5DB0613D510BD00F0DA
:100E50004DFC23685907F5D404F1D00000F056FC8E
:100E600023681A07F0D404F5A87000F057FC236833
:100E7000DB06EBD404F5E870BDE8104000F092BC4E
:100E8000036803B103441846704700BF0920704748
:100E9000704700BF70B504460D4608E02B6C6361D7
:100EA0002A462369214601209847082808D1296C41
:100EB0002046FFF767FF06460028EFD007F004FB47
:100EC0000728FBD13046296CFFF7E2FF281D00F010
:100ED00001FC00BF2DE9F0470C1D054617460FCC5D
:100EE000ADF5727D03AE0FC60FCC0FC60FCC0FC68B
:100EF00094E80F0002ACD5F80C80D5F8189086E87D
:100F00000F000023236021E0236C6B614FF4F0722B
:100F100021467AA800F070FE2B697AAA294630464D
:100F20009847889BCDE900498246636431462B4649
:100F30002A460120C0470746F8B94FF4F0727AA953
:100F4000204600F059FEBAF1080F1CD1216C28464A
:100F5000FFF718FF002F08BF0926074618BF0A260B
:100F60000028D1D0A36B46F01001CDE900492A46F4
:100F7000636401202B46C04700B1092738460DF5B0
:100F8000727DBDE8F087BAF1070FF6D13846216CC3
:100F9000FFF77EFF03A800F09DFB00BF406C704789
:100FA000F0B5CB6B0B640D1D0F4606460FCDF9B0A7
:100FB00001AC0FC40FCD0FC40FCD0FC495E80F00C7
:100FC0004FF0FF3584E80F00009506E033696A466C
:100FD000314698470828044608D110993046FFF753
:100FE000D1FE0028F2D0092079B0F0BD6846FFF7A5
:100FF0001BFF062CF7D139463046FFF74BFF00BFE9
:1010000030B4DD6BC160826119461D64002230BCC2
:1010100060E700BF70B5C66843690B64BEB9036979
:101020000A4604460D46014602209847072807D085
:10103000082803D129462046FFF72CFF07F044FA81
:101040003046296CFFF724FF281D00F043FB0122E6
:10105000FFF740FF07F038FAC2681AB1CA6B0A649A
:10106000002237E79CE700BF704700BF836813B1D9
:101070000146012018477047042907D8DFE801F02E
:101080000308060808000BB90F2A03D9022070478D
:101090000120704700EB820218465368009A1360E3
:1010A000704700BF10B584B0002303AC0A4600941B
:1010B0001946FFF7E1FF039804B010BD042907D8D3
:1010C000DFE801F00308060808000BB90F2A03D96E
:1010D000022070470120704700EB8200009A1268DE
:1010E00042601846704700BF10B584B004AC0023BE
:1010F00044F8042D0A4600941946FFF7DFFF04B0B8
:1011000010BD00BFF0B5D36B1364151D07460E4626
:101110000FCDADF50F7D17AC0FC40FCD0FC40FCDA4
:101120000FC495E80F004FF0FF3584E80F001695C7
:1011300010E016A8FFF7D8FF314616A8B84716AA40
:10114000694678B9049B08209847052804460AD0C8
:10115000092807D026996846FFF714FE6A460C2135
:101160000028E6D0092416A8FFF75EFE20460DF5FC
:101170000F7DF0BD2DE9F04F0D46C96C89B00C1DF7
:10118000164600F0030B0A6806941F46002B68D031
:10119000130CD9B212048DF81D30022304EB810424
:1011A00005928DF81C302B6DBBF1020F08BFAC6BA4
:1011B00013F0010346D1019300F008030093D4F823
:1011C0000090B9F1000F00F0F380022F45D0B4F881
:1011D0000090B4F802800434AB6C28F0010A0F21AF
:1011E00030469A44FFF75EFF824534D829F0010368
:1011F0005344834294BF002001204FEA480808F07E
:10120000020809F0010948EA0908B8F1010F3AD0CB
:1012100031D3B8F1020F1AD1236823F0004ABBF191
:10122000000F66D130B1009A002A6CD0BAF1000FDD
:1012300000F09080002B00DA04340AF1010304EB83
:101240008304BCE7304605A900F046FB78B10920CD
:1012500009B0BDE8F08F0020CFE7D4F8048008344F
:10126000BAE7120203230592ADF81C309BE7082071
:1012700009B0BDE8F08FBBF1000F02D0002840F0AC
:10128000B48004349BE7BBF1000F18D1A8B1D4E9B6
:101290000023991C4FEAD272D9D005F158010133CD
:1012A000049100F0B580201DFFF7EAFD04AB014674
:1012B0002846AFF30080002867D108347FE70D216E
:1012C0003046D5F82080FFF7EDFE8045F5D1AB6ABA
:1012D0009C42F2D12046FFF707FD0F21024630461F
:1012E000FFF702FF30462A460021FFF7FDFE0720E8
:1012F000AEE70D213046D5F82080FFF7D3FE8045BC
:1013000032D0236896E7BAF1000F23D005F15803D5
:1013100004F10408CDF808B0DDF800900397A34667
:101320001C4602E05745B94640D040460494FFF7BA
:10133000A7FD04AB014600222846AFF3008009F167
:10134000010708F104080028ECD0D1455C46DDE92E
:1013500002B7D6D130460D21FFF7A4FE049B2862C8
:10136000C5E90934062073E7AB6A9C42C9D104225F
:101370004FF00008A318C5E90AA8C5E90C232368A3
:1013800043454DDB0123019357E780460D2130464D
:10139000FFF788FEB8F1020F28623ED12B46049A6F
:1013A00043F82C2F6B62AC62062051E75C46D1E714
:1013B00005A9304600F090FA00287FF448AF019B61
:1013C000002B3FF454AF0F213046FFF76BFE0E2188
:1013D00002463046FFF788FE30461A4A0F21FFF7D3
:1013E00083FE072009B0BDE8F08F2046FFF77CFCA4
:1013F00004340746AC632846AFF3008000283FF46E
:1014000026AF30463A460F21FFF76EFE07201FE752
:1014100030460D21FFF746FE2862049B6B62C2E74F
:101420000AF1010004EB8000FFF75EFC0F21024689
:101430003046FFF759FE30462A464146FFF754FE34
:10144000072005E700000000002393E6012391E652
:1014500002238FE62DE9F0410546C4B0042906D8E1
:10146000DFE801F04D2B05030900032B5FD00220BC
:1014700044B0BDE8F081002BF9D1102AF7D82B68D1
:10148000DC0600F1F48022AC2046019200F094F9D1
:10149000A86B019A0023012606FA03F1114203D03A
:1014A000016844F8231004300133042BF4D1A863FD
:1014B000204600F077F90020DAE7012B4FEA1246C8
:1014C00097B252D0052BD2D106EB0708B8F1200F06
:1014D000CDD80F2E40F29980B846002F40F0DB8027
:1014E000AA6BAA630F2E40F2BE80B8F1000F02D0A3
:1014F00002A800F00BF9002044B0BDE8F081002BF9
:10150000B5D1AC6B97B2281D012606FA03F139421A
:1015100003F1010302D0216801600434102B00F1B3
:101520000400F2D112F40050E5D1AC63A0E7160C30
:1015300097B2F319102B9AD82B681A075DD422ACF6
:10154000204600F00DF904EBC601AB6B3FB103EB95
:10155000C702186841F8040B04339342F9D12046BE
:10156000AB6300F0DBF8002082E7F219102A3FF6A7
:101570007EAF0F2E3FF67BAF2A68D10708D52846ED
:1015800022F0030240F8482B019300F0B3F8019BCE
:10159000019322AC204600F0ADF8A96B019B002F0F
:1015A00000F095807F0004EBC6044FF00008043C77
:1015B00001EB870251F8040B44F8040F9142F9D172
:1015C000B8F1000F0FD002AC102E314638BF1021F9
:1015D00004EBC101843902EBC80452F8040B41F852
:1015E000040F9442F9D1012B7FF47BAF22AC04327B
:1015F000AA63204600F07AF87DE723F008032B6009
:1016000005F5A87000F0ACF899E7B8F1100F2A685A
:1016100043D9D007A8F110080BD5284622F00102C3
:1016200042F0020240F8482B019300F06BF82A6860
:10163000019B510725D40F2E04D822A8019300F056
:1016400061F8019B019302AC204600F063F8C6F1FB
:1016500010010029AA6B019BB6DD22AC4F0004EB00
:10166000C6041146A3E722A800F048F83DE723F09E
:1016700010032B6005F5E870019200F09DF8019AC7
:1016800001E7284622F0040240F8D02B019300F035
:1016900041F8019BCFE72A68CBE7D0070AD5284657
:1016A00022F0010242F0020240F8482B019300F0C0
:1016B00029F8019B019322AC204600F023F8B8469C
:1016C000A96B019B002F7FF46DAF0A4609E70A461C
:1016D0008DE700BF00F1340191E838009C46A64632
:1016E0004CF8045D90E8FF0FE54600BD90EC210B3F
:1016F000704700BF80EC210B704700BF90EC200BBF
:10170000704700BF80EC200B704700BFD0EC200B6F
:10171000704700BFC0EC200B704700BFF0EC020127
:10172000F0EC0211F0EC0221F0EC0231F0EC02419D
:10173000F0EC0251F0EC0261F0EC0271F0EC02818D
:10174000F0EC0291F0EC02A1F0EC02B1F0EC02C17D
:10175000F0EC02D1F0EC02E1F0EC02F1704700BFD6
:10176000E0EC0201E0EC0211E0EC0221E0EC0231DD
:10177000E0EC0241E0EC0251E0EC0261E0EC0271CD
:10178000E0EC0281E0EC0291E0EC02A1E0EC02B1BD
:10179000E0EC02C1E0EC02D1E0EC02E1E0EC02F1AD
:1017A000704700BFB0FC0181B0FC0191B0FC01A109
:1017B000B0FC01B1704700BFA0FC0181A0FC019109
:1017C000A0FC01A1A0FC01B1704700BFEC4600B530
:1017D0002DE900502DE9FF1F4FF000032DE90C000B
:1017E00001A9FFF7DDFBDDF840E012B0704700BF54
:1017F000EC4600B52DE900502DE9FF1F4FF0000326
:101800002DE90C0001A9FFF705FCDDF840E012B05E
:10181000704700BFEC4600B52DE900502DE9FF1FD1
:101820004FF000032DE90C0001A9FFF715FCDDF8CE
:1018300040E012B0704700BFEC4600B52DE9005003
:101840002DE9FF1F4FF000032DE90C0001ABFFF75E
:10185000D7FBDDF840E012B0704700BFEC4600B5A2
:101860002DE900502DE9FF1F4FF000032DE90C007A
:1018700001AAFFF747FCDDF840E012B0704700BF57
:10188000027A82B9437AABB14268013B10B4437229
:1018900013680321141D01721A02446002605DF88E
:1018A000044B180E70470368013A02721A02026074
:1018B000180E7047B020704700B585B003AA00230A
:1018C000009219460C22FFF7D7FB039805B05DF88C
:1018D00004FB00BFF0E700BF2DE9F043054685B0EB
:1018E0000E464FF000083046FFF7CAFFB028044606
:1018F00000F0B180070620D500F0F003802B65D002
:10190000902B36D0A02B78D0B02B47D0C02B00F036
:101910008A8000F0F803D02B0BD100F007020132CF
:1019200042F40022052301212846FFF793FD0028F9
:10193000D9D0092005B0BDE8F0830DF10C090023D2
:1019400019468700CDF800900D222846FFF794FB3A
:10195000FFB2039BCDF80090043760064CBFDF1B3D
:10196000FF18002319460D2228460397FFF7A6FB10
:10197000B9E700F00D030D2BDBD003AF002300F01F
:101980000F02194600972846FFF776FB00230097C1
:1019900019460D222846FFF791FBA4E7B1285FD036
:1019A000B22800F0CC80B3287ED000F0FC03B42B2A
:1019B000BFD000F007020132012342F40022194691
:1019C0002846FFF747FD00288DD0B2E73046FFF7E5
:1019D00057FF24020443B4F5004FAAD0240100238A
:1019E000A2B219462846FFF735FD0028A1D114F40C
:1019F000004F18BF4FF0010875E7C24302F007031C
:101A00004FF47F621A41010702F47F624FF0000336
:101A100048BF42F4804219462846FFF71BFD0028C4
:101A20003FF461AF85E7C62851D0C7285AD000F0EF
:101A3000F803C02B69D0C82875D0C9287FF479AFC6
:101A40003046FFF71DFF020300F00F0002F4702282
:101A50000130024366E7B8F1000F14D0002069E7B7
:101A60003046FFF70DFF00283FF463AF10F0F0039E
:101A70007FF45FAF024619462846FFF7EBFC0028CB
:101A80003FF431AF55E703AC43460E224146009484
:101A90002846FFF7F1FA0094284643460F224146B4
:101AA000FFF70CFB404645E73046FFF7E9FE010330
:101AB00000F00F0001F47021421C01230A43284664
:101AC0001946FFF7C7FC00283FF40DAF31E7304659
:101AD000FFF7D6FE010300F00F0001F47021421C55
:101AE0000323EBE73046FFF7CBFE024600283FF426
:101AF00020AF10F0F0037FF41CAF04212846FFF75D
:101B0000A9FC00283FF4EFAE13E700F00F0201320A
:101B1000032342F4202219462846FFF79BFC0028A5
:101B20003FF4E1AE05E73046FFF7AAFE00F0F00211
:101B300000F00F031032013343EA0232F2E60023D1
:101B40000DF10C090D221946CDF800902846FFF73B
:101B500093FA3046FFF794FE02064FF002070CD5C9
:101B6000039B00F07F00B840034430460393FFF727
:101B700087FE030607F10707F2D4039BCDF8009018
:101B800000F07F0403F50172BC40002314441946A1
:101B90000D2228460394FFF791FAA4E610B5C36C12
:101BA00084B05A6803208DF80C00DC798DF80D4064
:101BB00012020833084601A901920293FFF78CFE36
:101BC00004B010BD08B5FFF785FE806C08BD00BFEE
:101BD00008B5FFF77FFEC06CC37900EB83000830C7
:101BE00008BD00BF08B506F06FFC00BF08B5FFF7E1
:101BF000F9FF00BF704700BF844641EA000313F0BD
:101C000003036DD1403A41D351F8043B40F8043B03
:101C100051F8043B40F8043B51F8043B40F8043BC6
:101C200051F8043B40F8043B51F8043B40F8043BB6
:101C300051F8043B40F8043B51F8043B40F8043BA6
:101C400051F8043B40F8043B51F8043B40F8043B96
:101C500051F8043B40F8043B51F8043B40F8043B86
:101C600051F8043B40F8043B51F8043B40F8043B76
:101C700051F8043B40F8043B51F8043B40F8043B66
:101C800051F8043B40F8043B403ABDD2303211D306
:101C900051F8043B40F8043B51F8043B40F8043B46
:101CA00051F8043B40F8043B51F8043B40F8043B36
:101CB000103AEDD20C3205D351F8043B40F8043B06
:101CC000043AF9D2043208D0D2071CBF11F8013B04
:101CD00000F8013B01D30B8803806046704700BFCA
:101CE000082A13D38B078DD010F003038AD0C3F1D9
:101CF0000403D21ADB071CBF11F8013B00F8013BBB
:101D000080D331F8023B20F8023B7BE7043AD9D379
:101D1000013A11F8013B00F8013BF9D20B7803704E
:101D20004B7843708B7883706046704700000000EA
:101D300000000000000000000000000000000000A3
:101D400090F800F06DE9024520F007016FF0000CFB
:101D500010F0070491F820F040F049804FF00004A3
:101D60006FF00700D1E9002391F840F000F108007E
:101D700082FA4CF2A4FA8CF283FA4CF3A2FA8CF3B6
:101D80004BBBD1E9022382FA4CF200F10800A4FA1D
:101D90008CF283FA4CF3A2FA8CF3E3B9D1E9042371
:101DA00082FA4CF200F10800A4FA8CF283FA4CF3A8
:101DB000A2FA8CF37BB9D1E9062301F1200182FA62
:101DC0004CF200F10800A4FA8CF283FA4CF3A2FA68
:101DD0008CF3002BC6D0002A04BF04301A4612BA76
:101DE000B2FA82F2FDE8024500EBD2007047D1E979
:101DF000002304F00305C4F100004FEAC50514F008
:101E0000040F91F840F00CFA05F562EA05021CBFD8
:101E100063EA050362464FF00004A9E700000000F2
:101E200001F0FF01102A2BDB10F0070F08D010F88B
:101E3000013B013A8B422DD010F0070F42B3F6D18F
:101E4000F0B441EA012141EA014122F007047FF0A8
:101E500000070023F0E80256083C85EA010586EAFF
:101E6000010685FA47F5A3FA87F586FA47F6A5FA3B
:101E700087F68EB9EED1F0BC01F0FF0102F0070247
:101E800032B110F8013B013A83EA010313B1F8D1F2
:101E90000020704701387047002D06BF35460338D3
:101EA000073815F0010F07D1013015F4807F02BF0C
:101EB000013015F4C03F0130F0BC0138704700BF5D
:101EC0004FF0FF3C06E000BF4FF0010C02E000BF06
:101ED0004FF0010C4DF804CD4FEA410C7FEA6C5CE9
:101EE0004FEA430C18BF7FEA6C5C1BD001B050EA8C
:101EF000410C0CBF52EA430C91EA030F02BF90EA77
:101F0000020F0020704710F1000F91EA030F58BF35
:101F1000994208BF90422CBFD8176FEAE37040F097
:101F2000010070474FEA410C7FEA6C5C02D150EA35
:101F3000013C07D14FEA430C7FEA6C5CD6D152EAF0
:101F4000033CD3D05DF8040B704700BF84461046B5
:101F500062468C461946634600E000BF01B5FFF7B4
:101F6000B7FF002848BF10F1000F01BD4DF808ED84
:101F7000FFF7F4FF0CBF012000205DF808FB00BF55
:101F80004DF808EDFFF7EAFF34BF012000205DF8AF
:101F900008FB00BF4DF808EDFFF7E0FF94BF0120FC
:101FA00000205DF808FB00BF4DF808EDFFF7CEFFFD
:101FB00094BF012000205DF808FB00BF4DF808ED3C
:101FC000FFF7C4FF34BF012000205DF808FB00BF0D
:101FD0004FEA410C7FEA6C5C02D150EA013C0AD125
:101FE0004FEA430C7FEA6C5C02D152EA033C02D117
:101FF0004FF0000070474FF00100704708B5012214
:102000004FF40041014802F06CFA08BD000802409C
:1020100008B500224FF48051014802F062FA08BD71
:102020000004024010B5074C00224FF40041204646
:1020300002F057FA00224FF40051204602F051FA04
:1020400010BD00BF0004024010B504464FF48041AB
:102050000F4802F03FFA38B14FF480510D4802F0BA
:1020600039FA08B1002011E00B4B19880B4B188886
:1020700000F0A6FB07EE900AF8EEE77A084B93ED26
:10208000007A77EEC77AC4ED017A022010BD00BF56
:1020900000080240000C02400A0A0020080A002042
:1020A000F409002038B50446022906D0012900F0C1
:1020B000F780012900F0BF8138BD8368002B76D1FD
:1020C000C84B1B68BBBBB2EE040A142000F03AFCFC
:1020D000642001F0ABFE5A21142000F0F9FB6420CB
:1020E00001F0A4FE5A25A560B3EE040A142000F006
:1020F000F7FB642001F09AFE2946142000F0E8FB6B
:10210000642001F093FEB423A360D4ED007AB7EE0F
:10211000007A77EE877AC4ED007AB34B1988B34B17
:10212000188800F04DFB07EE900AF8EEE77AB04B06
:10213000C3ED007AC0E7B2EE040A142000F002FCFE
:10214000642001F073FE5A21142000F0B9FB6420D2
:1021500001F06CFE4FF48773A360B3EE040A142001
:1021600000F0BEFB642001F061FE5A21142000F053
:10217000A7FB642001F05AFEB423A3609D4B01220B
:102180001A60D4ED007AB7EE007A77EE877AC4ED64
:10219000007A954B1988954B188800F011FB07EED3
:1021A000900AF8EEE77A924BC3ED007A84E7B42BFD
:1021B00082D18C4B1B68BBBBB2EE040A142000F02A
:1021C000C1FB642001F032FE5A21142000F078FB9C
:1021D000642001F02BFE5A25A560B3EE040A1420FA
:1021E00000F07EFB642001F021FE2946142000F05F
:1021F00067FB642001F01AFE0023A360D4ED007A8F
:10220000B7EE007A77EE877AC4ED007A764B1988BC
:10221000764B188800F0D4FA07EE900AF8EEE77AC9
:10222000734BC3ED007A47E7B2EE040A142000F0C6
:1022300089FB642001F0FAFD5A21142000F048FBCC
:10224000642001F0F3FD4FF48773A360B3EE040A3A
:10225000142000F045FB642001F0E8FD5A21142011
:1022600000F036FB642001F0E1FD0023A360614B28
:1022700001221A60D4ED007AB7EE007A77EE877A01
:10228000C4ED007A584B1988584B188800F098FA1A
:1022900007EE900AF8EEE77A554BC3ED007A0BE7AC
:1022A000544B1B68002B7FF404AF8368002B5BD179
:1022B0004C4B1A68002A02F00103B8BF5B42012BA5
:1022C00033D012F0010F7FF4F7AEB2EE040A1420FF
:1022D00000F038FB642001F0A9FD5A21142000F021
:1022E000F7FA642001F0A2FD5A25A560B3EE040AB6
:1022F000142000F0F5FA642001F098FD294614201E
:1023000000F0E6FA642001F091FDB423A360364B9F
:102310001988364B188800F053FA07EE900AF8EE49
:10232000E77A334BC3ED007AC6E6B2EE040A142016
:1023300000F008FB642001F079FDB421142000F0C6
:10234000C7FA642001F072FDB423A360264B1988FC
:10235000264B188800F034FA07EE900AF8EEE77A78
:10236000234BC3ED007AA7E6B42B7FF4A5AE1D4B3B
:102370001A68002A02F00103B8BF5B42012B3BD070
:1023800012F0010F7FF498AE142000F067FA642079
:1023900001F04CFD5A21142000F092FA642001F063
:1023A00045FD5A25A560B3EE040A142000F098FA02
:1023B000642001F03BFD2946142000F081FA6420DE
:1023C00001F034FD0023A360074B1988074B1888E0
:1023D00000F0F6F907EE900AF8EEE77A044BC3ED49
:1023E000007A69E6DC0900200A0A0020080A0020B9
:1023F000F4090020E0090020B2EE040A142000F0E5
:10240000A1FA642001F012FDB421142000F060FA5A
:10241000642001F00BFD0023A360634B1988634B1C
:10242000188800F0CDF907EE900AF8EEE77A604BD5
:10243000C3ED007A40E65F4B1B68012B7FF43CAE96
:10244000A368002B56D15C4B1A68002A02F00103E6
:10245000B8BF5B42012B30D012F0010F7FF42CAEDD
:10246000142000F0FBF9642001F0E0FC5A21142054
:1024700000F026FA642001F0D9FC4FF48773A360C2
:10248000642000F0B9F9642001F0D0FC5A21142036
:1024900000F016FA642001F0C9FCB423A360424B9B
:1024A0001988424B188800F08BF907EE900AF8EE75
:1024B000E77A3F4BC3ED007AFEE5142000F0CEF939
:1024C000642001F0B3FCB421142000F001FA642070
:1024D00001F0ACFCB423A360334B1988334B18884C
:1024E00000F06EF907EE900AF8EEE77A304BC3ED94
:1024F000007AE1E5B42B7FF4DFAD2F4B1A68002A98
:1025000002F00103B8BF5B42012B30D012F0010F83
:102510007FF4D2AD142000F0A1F9642001F086FC14
:102520005A21142000F0D4F9642001F07FFC4FF40C
:102530008773A360642000F05FF9642001F076FCEB
:102540005A21142000F0C4F9642001F06FFC00232C
:10255000A360154B1988154B188800F031F907EE68
:10256000900AF8EEE77A124BC3ED007AA4E5142046
:1025700000F074F9642001F059FCB421142000F03B
:10258000A7F9642001F052FC0023A360064B1988D0
:10259000064B188800F014F907EE900AF8EEE77A77
:1025A000034BC3ED007A87E50A0A0020080A0020E1
:1025B000F4090020E0090020DC09002008B50C4BDC
:1025C00093F900302BB10B4BD978532902D0542901
:1025D0000AD008BD084B186805F098F9054BD97862
:1025E000064805F0EDFFF4E7044805F0E9FFF0E7E1
:1025F00000000020FC090020240F00203CD500082A
:1026000000231A468B420AD210B4C45C2244D2B2D0
:1026100001338B42F9D310465DF8044B70471846DE
:102620007047000010B5072908D184790621FFF70B
:10263000E7FF844208D16CB1002010BD074806F0C6
:1026400021F84FF0FF30F8E7054806F01BF84FF08F
:10265000FF30F2E74FF0FF30EFE700BF44D500084E
:102660005CD5000808B50268144B9A4200D008BD3A
:1026700013490A68531C0B601249087812498854A0
:10268000072B05D001220F49104804F058F8EEE757
:1026900007210D48FFF7C6FF48B90D4B01221A70FC
:1026A0000C4805F0EFFF064B00221A60EAE7084BE2
:1026B00000221A70084805F0E5FFF4E700480040E2
:1026C000F8090020030A0020FC0900209C0C0020CF
:1026D0000000002008D5000824D5000808B5054BE7
:1026E000186805F025FB00F0D9FB642005F0AEFA70
:1026F000F9E700BF240F002008B5FFF75FFFFCE7F4
:1027000008B5FFF785FCFFF779FCFFF78BFC142079
:1027100000F072F80448FFF797FC01460028F6D055
:102720000148FFF7BFFCF2E7E409002008B50B4CB5
:1027300000224FF48041204601F0D3FE4FF4FA709E
:1027400005F084FA01224FF48041204601F0C9FED1
:102750004FF4FA7005F07AFAE9E700BF0010024082
:1027600002680E4B9A4200D070470D4B1B685B6AA3
:102770009BB20C4A13800C490A88D21A0B4802807B
:102780000B800B4B1B685B6A9BB20A4A13800A4999
:102790000A889A1A094802800B80E5E70020004069
:1027A000CC0B0020080A00200C0A0020040A00209C
:1027B000840B00200A0A00200E0A0020060A0020CE
:1027C000C0F57F40FF30C22303FB00F0084A82FBC4
:1027D00000C2C017C0EB222003FB01F1054B83FBB5
:1027E0000123194400EB612000EBD07040107047CA
:1027F0001D3FF1454B34708B38B50546154C002113
:10280000204603F01BFA0421204603F017FA236840
:102810005D639D63104C00228021204601F061FE23
:1028200001224FF48071204601F05BFE01224FF43B
:102830008051204601F055FE00224FF40051204601
:1028400001F04FFE01224FF48061204601F049FE65
:1028500038BD00BFF40A00200010024038B505461C
:10286000154C0021204603F0E9F90421204603F02D
:10287000E5F923685D639D63104C012280212046A9
:1028800001F02FFE00224FF48071204601F029FE56
:1028900000224FF48051204601F023FE01224FF424
:1028A0000051204601F01DFE01224FF480612046B8
:1028B00001F017FE38BD00BFF40A002000100240EE
:1028C00008B5024800F0A0FA08BD00BF380A002091
:1028D00008B5024800F098FA08BD00BF380A002089
:1028E00038B52DED028B0546B0EE408A124B1988A3
:1028F000124B1888FFF764FF0446DFED117A13E0EE
:102900002846FFF779FF0A2001F090FA0A2001F02B
:102910008DFA094B1988094B1888FFF751FF001BE6
:1029200007EE900AF8EEE77AF4EEC87AF1EE10FAC4
:10293000E6D4BDEC028B38BD0A0A0020080A00204C
:102940000000000038B52DED028B0546B0EE408A40
:10295000114B1988114B1888FFF732FF0446DFED41
:10296000107A10E02846FFF779FF0A2001F05EFA9E
:10297000094B1988094B1888FFF722FF001B07EE47
:10298000900AF8EEE77AF4EEC87AF1EE10FAE9D49C
:10299000BDEC028B38BD00BF0A0A0020080A0020E7
:1029A0000000000008B500F005F908BD00238B42C7
:1029B00041D210B408E0204C227842F0010222708B
:1029C000013001338B4233D2A0F13602092A29D8D3
:1029D00001A454F822F000BFB7290008252A0008F6
:1029E000252A0008012A0008252A0008252A0008AF
:1029F0000D2A0008252A0008252A0008192A00089F
:102A00000D4C227842F002022270D9E70A4C22785B
:102A100042F008022270D3E7074C227842F0040209
:102A20002270CDE7044C227842F080022270C7E782
:102A30005DF8044B70477047110A002008B501F09B
:102A4000F5F908BD10B50E4C01228021204601F099
:102A500048FD01224021204601F043FD052001F000
:102A6000E5F900228021204601F03BFD052001F020
:102A7000DDF900224021204601F033FD10BD00BFEA
:102A80000004024010B50E4C00228021204601F0C7
:102A900028FD00224021204601F023FD052001F001
:102AA000C5F901228021204601F01BFD01224021B1
:102AB000204601F016FD052001F0B8F910BD00BF59
:102AC00000040240F0B585B005460E4617461C4688
:102AD000FFF7B8FF4FF47A730293A4B20194009702
:102AE000012332462946074802F000F838B905208C
:102AF00001F09CF9FFF7C6FF012005B0F0BD4FF0D3
:102B0000FF30FAE79C0A00200BB900207047F0B5AF
:102B100085B01C4617460E460546FFF793FF4FF457
:102B20007A730293A4B20194009701233246294696
:102B3000074801F027FF074C2070FFF7A3FF237819
:102B400013B9012005B0F0BD4FF0FF30FAE700BF28
:102B50009C0A0020120A002070B500267E2E19DC87
:102B6000F1B2032000F054FF02240E4D00232B701D
:102B70000321342000F07AFE0A2001F057F92B7867
:102B80001BB9013CF1D10136E8E73146064805F0B2
:102B900017FD70BD054805F075FD054805F072FD8F
:102BA000F7E700BF110A002034D6000850D600080D
:102BB00068D6000808B55021032000F029FF084816
:102BC00000F04AFE0749084800F034FE074800F0CC
:102BD00033FF074805F056FDFFF7BEFF08BD00BFF5
:102BE000AD290008C52A0008092B00083D2A000865
:102BF000F0D500082DE9F04184B0044606213420C8
:102C000000F034FE0A20FFF719FF324B1B78002B2F
:102C100045D00023022B29DC03F134012E4A32F97E
:102C2000111007EE101AB8EEC77ADFED2C6A27EE06
:102C3000267A04EB8301F3EE007A27EE277A81ED02
:102C4000007A03F1370132F9112007EE902AF8EEED
:102C5000E77A67EEA67ADA1C04EB82029FED207A0F
:102C600067EE877AC2ED007A0133D3E71D4B1B78FC
:102C7000C3B926696769E068FDF726FC04460D467E
:102C80003846FDF721FCCDE902013046FDF71CFC7A
:102C9000CDE9000122462B46134805F091FC04B013
:102CA000BDE8F0816568D4F808802068FDF70CFC69
:102CB00006460F464046FDF707FCCDE902012846CF
:102CC000FDF702FCCDE9000132463B46074805F01E
:102CD00077FCCEE7110A0020F80C00200000003835
:102CE0000000FA44100A0020D8D50008C0D500081A
:102CF0002DE9F04186B004460421512000F0B6FDD4
:102D00000A20FFF79BFE0023032B12DC03F1510185
:102D10001A4A32F9112007EE902A04EB8302F8EEEA
:102D2000E77A9FED177A67EE877AC2ED007A013372
:102D3000EAE7144B1B7813B906B0BDE8F08166686A
:102D4000A768D4F80C802068FDF7BEFB04460D464A
:102D50004046FDF7B9FBCDE904013846FDF7B4FB69
:102D6000CDE902013046FDF7AFFBCDE90001224677
:102D70002B46054805F024FCDEE700BFF80C0020D8
:102D800000000038100A0020A0D50008F0B585B07A
:102D9000044603213A2000F069FD0A20FFF74EFEA9
:102DA0000023022B0EDC03F13A01144A32F9112000
:102DB00007EE902A04EB8302F8EEE77AC2ED007A80
:102DC0000133EEE70E4B1B780BB905B0F0BD66681A
:102DD000A7682068FDF778FB04460D463846FDF7E6
:102DE00073FBCDE902013046FDF76EFBCDE9000132
:102DF00022462B46034805F0E3FBE6E7F80C0020EB
:102E0000100A002088D50008F0B585B004460321DB
:102E10003D2000F02BFD0A20FFF710FE0023022BBF
:102E200016DC03F13D01184A32F9112007EE902A11
:102E3000F8EEE77A9FED157A67EE877A04EB830266
:102E40009FED137A67EE877AC2ED007A0133E6E7E9
:102E5000104B1B780BB905B0F0BD6668A7682068F9
:102E6000FDF732FB04460D463846FDF72DFBCDE954
:102E700002013046FDF728FBCDE9000122462B4632
:102E8000054805F09DFBE6E7F80C0020000000383F
:102E900000003443100A002070D5000810B5094B1B
:102EA00001221A700848FFF7A5FE084C2046FFF7DC
:102EB0006DFF04F10C00FFF7A7FF0548FFF718FFAF
:102EC00010BD00BF100A0020140A00202C0A0020A8
:102ED000440A002000B585B00023009301930293BB
:102EE00003932848284A02604FF40032426083600E
:102EF00001220261037680F820204262C3622349E6
:102F00008162C3600421C16180F83030426101F008
:102F10003BF840BB0E23009301230193002302934F
:102F20006946184801F05CF800BB0D2300930223AA
:102F300001936946134801F053F8D0B90C2300936C
:102F40000323019369460F4801F04AF8A0B908230A
:102F500000930423019369460A4801F041F870B9CF
:102F600005B05DF804FB00F0D3FDD3E700F0D0FD21
:102F7000DBE700F0CDFDE1E700F0CAFDE7E700F098
:102F8000C7FDEDE7540A0020002001400100000FBA
:102F900030B58BB0002305930693079308930993EC
:102FA000026803F1804303F590339A4201D00BB0DD
:102FB00030BD0024019403F58C335A6C42F48072C6
:102FC0005A645A6C02F480720192019A02941A6B4C
:102FD00042F004021A631A6B02F004020292029A8F
:102FE00003941A6B42F001021A631A6B02F0010299
:102FF0000392039A04941A6B42F002021A631B6B49
:1030000003F002030493049B3E23059303250695D6
:1030100005A9094801F074F9DC2305930695079486
:1030200005A9064801F06CF905950695079405A9D0
:10303000034801F065F9BAE70008024000000240C9
:10304000000402402DE9F0478AB00024059406945C
:103050000794089409940094514B1A6B42F00402AF
:103060001A631A6B02F004020092009A01941A6B20
:1030700042F001021A631A6B02F001020192019AF6
:1030800002941A6B42F002021A631A6B02F00202F7
:103090000292029A03941A6B42F010021A631A6B9E
:1030A00002F010020392039A04941A6B42F0080291
:1030B0001A631B6B03F008030493049BDFF8EC8096
:1030C00022464FF40041404601F00BFA354F2246AC
:1030D0004FF45651384601F004FA01224FF4804172
:1030E000384601F0FEF9DFF8C89001224FF4304174
:1030F000484601F0F6F92C4D22464FF480712846DF
:1031000001F0EFF9012242F20301284601F0E9F94A
:103110004FF4804305930694079405A9404601F0B7
:10312000EFF84FF4004ACDF814A001260696079454
:10313000089405A9404601F0E3F84FF4EB430593EA
:1031400006960794089405A9384601F0D9F8CDF8F9
:1031500014A00694079405A9384601F0D1F84FF45D
:103160003043059306960794089405A9484601F054
:10317000C7F842F20313059306960794089405A92D
:10318000284601F0BDF84FF4C05305930694079408
:1031900005A9284601F0B4F80AB0BDE8F08700BFE1
:1031A0000038024000100240000C024000080240BB
:1031B0000004024008B5054B1860054B1868002351
:1031C00002221946806805F065FA08BDF00A002061
:1031D00014000020022801D80120704708B505F02E
:1031E0007BF909230360002008BD000010B50138F9
:1031F00001280AD814464FF0FF3392B207480068FE
:1032000002F0E0FF40B9204610BD05F065F9092342
:1032100003604FF0FF30F7E70520F5E7F00A0020E4
:10322000022801D80020704708B505F055F9092398
:1032300003604FF0FF3008BD08B505F04DF90923D4
:1032400003604FF0FF3008BD08B548B94FF0FF33B9
:1032500001220848006803F022F840B9012008BDA7
:1032600005F03AF9092303604FF0FF30F7E7052036
:10327000F5E700BFF00A002008B5022804D84FF493
:1032800000534B60002008BD05F026F909230360B8
:10329000F8E7000000B58DB02022002104A805F059
:1032A00045F900230193029312484FF080420260D7
:1032B000436083604FF0FF32C26003618361032388
:1032C000039301230593099303A902F021FB50B94D
:1032D00000230193029301A9064802F09DFD28B93D
:1032E0000DB05DF804FB00F013FCF1E700F010FCFA
:1032F000F6E700BF840B002000B58DB0202200212E
:1033000004A805F013F90023019302931148124A0F
:103310000260436083604FF0FF32C26003618361EB
:103320000323039301230593099303A902F0F0FA01
:1033300050B900230193029301A9064802F06CFDE5
:1033400028B90DB05DF804FB00F0E2FBF1E700F0F6
:10335000DFFBF6E7CC0B0020000C004008B5094865
:10336000094B0360532343600023836042F20F72D2
:10337000C2600361836102F075FA00B908BD00F014
:10338000C7FBFBE73C0B00200020004000B583B0EA
:103390000368154A934205D0144A93420FD003B0F4
:1033A0005DF804FB00230093114B5A6C42F00102BC
:1033B0005A645B6C03F001030093009BEFE700226B
:1033C00001920B4B196C41F4807119641B6C03F46E
:1033D00080730193019B05212D2000F0DBFE2D2041
:1033E00000F00CFFDBE700BF0000014000200040C0
:1033F0000038024070B58AB0002305930693079306
:10340000089309930368B3F1804F04D02D4A934287
:1034100038D00AB070BD0024009403F50E331A6C46
:1034200042F001021A641A6C02F001020092009A42
:1034300001941A6B42F001021A631A6B02F0010246
:103440000192019A02941A6B42F002021A631B6BFA
:1034500003F002030293029B4FF4004305930226FC
:1034600006960125099505A9174800F049FF08238C
:103470000593069607940894099505A9134800F04A
:103480003FFFC6E700210391114B1A6C42F008027E
:103490001A641A6C02F008020392039A04911A6BE0
:1034A00042F001021A631B6B03F001030493049BB7
:1034B0000323059302230693099305A9024800F00C
:1034C0001FFFA6E7000C004000000240000402407D
:1034D0000038024000B587B00023019302930393A4
:1034E0000493059302680F4B9A4202D007B05DF82F
:1034F00004FB002300930C4B1A6B42F010021A637A
:103500001B6B03F010030093009B4FF420630193A7
:10351000022302930123059301A9044800F0F0FE61
:10352000E4E700BF00000140003802400010024004
:1035300010B596B00024129413941494159410941A
:10354000119409940A940B940C940D940E940F9476
:103550002022214601A804F0E9FF3248324B0360E3
:10356000A723436084606323C36004614461846172
:1035700002F078F900283FD116A94FF4805341F8A2
:10358000103D284802F0CEFA002838D1254802F034
:1035900094F9002836D100231093119310A92148E3
:1035A00002F03AFC002830D16023099300220A92ED
:1035B0000B920C920D920E920F9209A9194802F0EB
:1035C00037FA28BB042209A9164802F031FA10BBC9
:1035D0000023019302930393049305934FF4005245
:1035E0000692089301A90F4802F05AFCB0B90D48A1
:1035F000FFF770FF16B010BD00F08AFABCE700F0CC
:1036000087FAC3E700F084FAC5E700F081FACBE758
:1036100000F07EFAD6E700F07BFAD9E700F078FAFE
:10362000E5E700BFF40A00200000014008B50A48A1
:103630000A4B03604FF4E133436000238360C360AF
:1036400003610C2242618361C36102F08CFD00B909
:1036500008BD00F05DFAFBE7140C002000100140EB
:1036600008B50A480A4B03604FF4E1334360002376
:103670008360C36003610C2242618361C36102F015
:1036800072FD00B908BD00F043FAFBE7580C0020BA
:103690000044004008B50A480A4B03604FF4E13388
:1036A000436000238360C36003610C224261836135
:1036B000C36102F058FD00B908BD00F029FAFBE72C
:1036C0009C0C00200048004010B58CB000230793EC
:1036D000089309930A930B930368434A934207D0D4
:1036E000424A934228D0424A934250D00CB010BD77
:1036F000002101913F4B5A6C42F010025A645A6CFF
:1037000002F010020192019A02911A6B42F001023A
:103710001A631B6B03F001030293029B4FF4C06317
:1037200007930223089303230A9307230B9307A904
:10373000314800F0E5FDD9E7002403942D4B1A6CC5
:1037400042F400321A641A6C02F400320392039AB3
:1037500004941A6B42F008021A631B6B03F008030F
:103760000493049B602307930223089303230A9383
:1037700007230B9307A9214800F0C2FD224605212B
:10378000262000F007FD262000F038FDAEE70024DB
:103790000594184B1A6C42F480221A641A6C02F4D5
:1037A00080220592059A06941A6B42F002021A636F
:1037B0001B6B03F002030693069B4FF440630793D1
:1037C0000223089303230A9307230B9307A90C48AA
:1037D00000F096FD22460521272000F0DBFC272083
:1037E00000F00CFD82E700BF0010014000440040E3
:1037F000004800400038024000000240000C024037
:103800000004024030B40024FF252A4607E0035D8F
:103810005340064AD25C6A40054DED5C0134A1423A
:10382000F5DC45EA022030BC704700BF88D60008AE
:1038300088D7000830B141B1054A1060054B1960C6
:10384000002070476FF0050070476FF0050070476B
:10385000EC0C0020E80C002018B1034A1060002096
:1038600070476FF005007047F00C002043188F2B55
:1038700000F29B80F0B583B00D4604465B4B1B689D
:10388000032B00F29580DFE803F0021C4963042952
:1038900000F29180564B1B68002B00F08F80FF22B6
:1038A0008DF80020AA228DF8012027228DF8022011
:1038B0008DF80300020A8DF8042005216846984718
:1038C00027E04B4B1E68002E7BD08BB25B009BB277
:1038D0000533B3F5807F77DC464B1B788DF80030DD
:1038E00003238DF80130030A8DF802308DF80300B0
:1038F0000B0A8DF804308DF8051006216846FFF795
:1039000081FF030A8DF806308DF80700082168460C
:10391000B047394B1C60002003B0F0BD032956D8D6
:10392000364B1B68002B55D0FF228DF80020AA22B1
:103930008DF8012027228DF802208DF80300020A5D
:103940008DF80420052269462A4800789847E0E768
:103950002B4B1E68002E40D08BB25B009BB2B3F5A0
:10396000807F3DD8234A10784000264AE1B200F01B
:10397000FE00B0470128CCD1234B1E689EB3002324
:103980000DE05A0001321F498F5C11F813201819FD
:1039900042EA07221D4921F8102001339BB2AB42B5
:1039A000EFD329462046B047B3E76FF005007047D4
:1039B0006FF00500B0E76FF00500ADE76FF00400B1
:1039C000AAE76FF00400A7E76FF00300A4E76FF029
:1039D0000500A1E76FF004009EE76FF004009BE78D
:1039E0006FF0030098E76FF0040095E7180F0020D0
:1039F000F40C0020010000201C0F0020E00C00202F
:103A0000E80C0020180E0020F00C0020F80C00201C
:103A1000032807D8054B1860054B19700020054B8B
:103A2000186070476FF00500704700BF180F002046
:103A300001000020200F002018B1034A1060002070
:103A400070476FF005007047E40C0020034B0360E3
:103A5000034B0B6080231360704700BF34110020BC
:103A6000340F0020034B0360034B0B604FF4807353
:103A700013607047881500208811002070B59CB035
:103A80001E4C15AD26460FCE0FC596E8070085E8FB
:103A90000700002115A802F079FE194B18600EAD41
:103AA00004F11C060FCE0FC596E8070085E8070055
:103AB00000210EA802F06AFE124B186007AD04F157
:103AC00038060FCE0FC596E8070085E807000021ED
:103AD00007A802F05BFE0C4B18606D4654340FCC07
:103AE0000FC594E8070085E807000021684602F04A
:103AF0004DFE064B18601CB070BD00BF98D4000886
:103B0000240F0020300F0020280F00202C0F002051
:103B100072B6FEE700B595B03022002108A804F087
:103B200005FD0023039304930593069307930193E4
:103B30001F4A116C41F080511164126C02F08052E6
:103B40000192019A02931B4A116841F4804111606D
:103B5000126802F480420292029A02220892012123
:103B60000B9110210C910E920F9308231093A82310
:103B7000119312920423139308A801F01FF998B926
:103B80000F23039302230493002305934FF4A053C0
:103B900006934FF480530793052103A801F05EFBC1
:103BA00020B915B05DF804FBFFF7B2FFFFF7B0FFD7
:103BB000003802400070004008B500F00BF9FFF734
:103BC000A9FFFFF73FFAFFF785F9FFF7B1FCFFF711
:103BD00061FBFFF791FBFFF7C1FBFFF727FDFFF745
:103BE0003FFDFFF757FD0D48FFF7E4FA01220C49AE
:103BF0000C4802F0A4FD3C210B4802F0A5F83C2142
:103C00000A4802F0A1F80A4801F0C2FCFEF7CAFE19
:103C1000FFF734FF02F0B5FDFEE700BF140C0020F3
:103C2000030A00209C0C0020840B0020CC0B0020F9
:103C30003C0B002000B583B0002200920D4B596C64
:103C400041F480415964596C01F48041009100991C
:103C50000192196C41F0805119641B6C03F0805380
:103C60000193019B0F216FF0010000F093FA03B064
:103C70005DF804FB00380240FEE7FEE7FEE7FEE7E2
:103C8000704708B500F0C0F804F094F9012801D09D
:103C900002F0D0FE08BD000008B5024802F0FAFBB1
:103CA00008BD00BF9C0C002008B5024801F0B9FC1B
:103CB00008BD00BF3C0B00200120704708B504F090
:103CC0000BFC162303604FF0FF3008BD08B54FF022
:103CD000FF31FFF7F3FFFEE710B503460C4A0D492D
:103CE0000D48006840B10C4800680344521A9342E2
:103CF00006D8094A136010BD0748084C0460F2E773
:103D000004F0EAFB0C2303604FF0FF30F3E700BF41
:103D10000000022000040000DC150020D054002028
:103D2000034AD2F8883043F47003C2F888307047F1
:103D300000ED00E0DFF834D00D480E490E4A0023B4
:103D400002E0D458C4500433C4188C42F9D30B4A4F
:103D50000B4C002301E013600432A242FBD3FFF7B7
:103D6000DFFF04F0BFFBFFF727FF704700000220D2
:103D700000000020C0090020D0DC0008C00900209D
:103D8000CC540020FEE7000010B504460E4B187816
:103D90004FF47A73B3FBF0F30C4A1068B0FBF3F006
:103DA00000F03AFA68B90F2C01D901200AE000228C
:103DB00021464FF0FF3000F0EDF9054B1C6000206C
:103DC00000E0012010BD00BF08000020040000201A
:103DD0000C00002008B50B4B1A6842F400721A6000
:103DE0001A6842F480621A601A6842F480721A609B
:103DF000032000F0BDF90F20FFF7C6FFFFF71AFF01
:103E0000002008BD003C0240034A1168034B1B78A8
:103E10000B441360704700BFE0150020080000202D
:103E2000014B1868704700BFE015002038B5044604
:103E3000FFF7F6FF0546B4F1FF3F02D0044B1B78B5
:103E40001C44FFF7EDFF401BA042FAD338BD00BF72
:103E5000080000204A4B5A6822F440325A605A68DF
:103E600041680A435A600268536823F480735360C0
:103E700002685368016943EA01235360026853688A
:103E800023F0407353600268536881680B435360AA
:103E90000268936823F40063936002689368C168C2
:103EA0000B439360826A374B9A424BD00268936807
:103EB00023F07063936002689368816A0B43936098
:103EC0000268936823F04053936002689368C16A64
:103ED0000B4393600268936823F0020393600268C7
:103EE0009368017E43EA4103936090F82030002BF1
:103EF00033D10268536823F4006353600268D36AC5
:103F000023F47003D3620168CB6AC269013A43EAC1
:103F10000253CB620268936823F4007393600268D3
:103F2000936890F8301043EA4123936002689368E5
:103F300023F48063936002689368416943EA8123B4
:103F4000936070470268936823F07063936002681F
:103F5000936823F040539360BCE70268536843F4CE
:103F6000006353600268536823F460435360016840
:103F70004B68426A013A43EA42334B60BEE700BFF6
:103F8000002301400100000F38B310B50446036C54
:103F900043B1236C13F0100F0BD00120002384F8E1
:103FA0003C3010BDFEF7F4FF0023636484F83C301E
:103FB000EFE7236C23F4885323F0020343F002035A
:103FC00023642046FFF746FF00206064236C23F043
:103FD000030343F001032364E0E70120704700007E
:103FE00030B482B00023019390F83C30012B00F0F4
:103FF000B780012380F83C300B68092B3ED9056857
:10400000EA689BB203EB43031E3B072404FA03F365
:1040100022EA0303EB600568EA688C680B8803EB0F
:1040200043031E3B04FA03F31343EB604B68062B78
:104030003AD805686A6B03EB8303053B1F2404FA37
:1040400003F322EA03036B6305686A6B4B6803EBB7
:104050008303053B0C8804FA03F313436B63026884
:10406000404B9A4250D002683E4B9A4255D00023B2
:1040700080F83C30184602B030BC704705682A69A9
:104080009BB203EB4303072404FA03F322EA03037E
:104090002B6105682A698C680B8803EB430304FADB
:1040A00003F313432B61C1E70C2B16D805682A6B69
:1040B00003EB8303233B1F2404FA03F322EA0303E5
:1040C0002B6305682A6B4B6803EB8303233B0C8847
:1040D00004FA03F313432B63C1E70568EA6A03EBB1
:1040E0008303413B1F2404FA03F322EA0303EB6238
:1040F0000568EA6A4B6803EB8303413B0C8804FACA
:1041000003F31343EB62AAE70B68122BABD1164AF9
:10411000536843F480035360A5E70B68103B012B01
:10412000A5D8114A536843F4000353600B68102B61
:104130009DD10E4B1B6802F1467202F52E3202F23F
:104140008332A2FB03239B0C03EB83035A000192EF
:1041500002E0019B013B0193019B002BF9D186E713
:10416000022088E7002001400023014004000020D5
:10417000074AD36823F4E0631B041B0C000200F41D
:10418000E060184340F0BF6040F40030D0607047FA
:1041900000ED00E030B4174BDB68C3F30223C3F13A
:1041A0000704042C28BF04241D1D062D18D9033B29
:1041B0004FF0FF3505FA04F421EA0401994005FAAD
:1041C00003F322EA0303194300280BDB0901C9B2F8
:1041D00000F1604000F5614080F8001330BC70478A
:1041E0000023E5E700F00F000901C9B2024B1954A2
:1041F000F4E700BF00ED00E014ED00E0002807DB6D
:1042000000F01F02400901239340024A42F8203087
:10421000704700BF00E100E00138B0F1807F0AD2B2
:10422000064B5860064AF02182F82310002098605F
:1042300007221A6070470120704700BF10E000E0BD
:1042400000ED00E070B50446866DFFF7E9FD94F8D7
:104250003530DBB2022B06D080236365002384F85F
:104260003430012070BD05462268136823F0160320
:1042700013602268536923F080035361236CE3B118
:104280002268136823F0080313602268136823F080
:104290000103136023681B6813F0010F11D0FFF7AF
:1042A000BFFD401B0528F5D920236365032084F852
:1042B0003500002384F83430D4E7A36C002BDFD121
:1042C000E3E7E26D3F239340B360012384F8353088
:1042D000002084F83400C5E790F83530DBB2022BBB
:1042E00003D08023436501207047052380F83530D3
:1042F0000268136823F00103136000207047000078
:1043000000230F2B00F2DC80F0B482B05DE0866801
:104310005F000324BC4026EA0406CC68BC4034435A
:104320008460466826EA02064C68C4F300129A408C
:104330003243426056E0DC08083450F8247003F041
:10434000070296000F22B24027EA02070A69B2402C
:104350003A4340F8242059E0072200E00022B2400E
:104360003A430234574E46F82420574A9468EA43A9
:1043700002EA04064F6817F4801F01D045EA0406DC
:10438000514CA660E46802EA04064F6817F4001F67
:1043900001D045EA04064C4CE660646802EA040673
:1043A0004F6817F4003F01D045EA0406464C6660AA
:1043B000246822404E6816F4803F01D045EA04028A
:1043C000414C226001330F2B77D801229A400C68B0
:1043D00004EA0205AA42F5D14C6804F00304013C4A
:1043E000012C94D94A6802F00302032A09D0C46858
:1043F0005E000322B24024EA02048A68B2402243EB
:10440000C2604A6802F00302022A94D004685E0087
:104410000322B24024EA02044A6802F00302B240D6
:10442000224302604A6812F4403FCBD0002201923E
:10443000264A546C44F480445464526C02F4804222
:104440000192019A9C08A61C1E4A52F8267003F09D
:10445000030296000F22B24027EA02071C4A90424C
:104460003FF47CAF02F5806290421AD002F5806280
:10447000904218D002F58062904216D002F5806218
:10448000904214D002F58062904212D002F5806210
:10449000904210D002F5806290423FF45DAF082256
:1044A0005DE701225BE7022259E7032257E7042276
:1044B00055E7052253E7062251E702B0F0BC7047EA
:1044C000704700BF00380140003C01400038024006
:1044D000000002400369194201D100207047012009
:1044E000704712B9090481617047816170470368A0
:1044F0005A6912F4806F11D06FF480625A61002300
:104500000363202280F83D2080F83E30026C42F0A8
:104510000402026480F83C3001207047002070479C
:10452000F8B506460C4617461D4622E0FFF778FC14
:10453000069BC01AA84200D8DDB9002333632022AD
:1045400086F83D2086F83E30326C42F0200232641C
:1045500086F83C3001201AE033685B6924EA0303E3
:104560009BB2B3FA83F35B099F420FD1B5F1FF3FD2
:10457000DCD1C4F30743012BEED033689B6924EAF6
:1045800003039BB2B3FA83F35B09EDE70020F8BDA8
:10459000F8B504460D4616461F463CE01A6842F43C
:1045A00000721A6023686FF480625A6100232363EB
:1045B000202284F83D2084F83E30226C42F0040230
:1045C000226484F83C30012033E0FFF729FCC01B53
:1045D000B04200D8FEB900232363202284F83D2096
:1045E00084F83E30226C42F02002226484F83C3091
:1045F00001201EE023685B6925EA03039BB20033B8
:1046000018BF0123A3B123685A6912F4806FC5D182
:10461000B6F1FF3FD9D1C5F30743012BEAD0236898
:104620009B6925EA03039BB2003318BF0123E9E726
:104630000020F8BD70B504460D46164623685B6938
:1046400013F0800F1CD12046FFF751FFD0B9B5F110
:10465000FF3FF3D0FFF7E4FB801BA84201D8002DF9
:10466000ECD100232363202284F83D2084F83E30DF
:10467000226C42F02002226484F83C30012000E0E9
:10468000002070BD0120FCE72DE9F04184B0044614
:10469000884616461F460B9D0268136843F48073D4
:1046A000136000950A9B00224FF00111FFF738FFBD
:1046B00060B123681B6813F4807F4FD04FF4007300
:1046C00023640323184604B0BDE8F081226808F093
:1046D000FE0313612B460A9A21492046FFF758FF33
:1046E00008B10123EEE70023039323685A6903927C
:1046F0009B690393039B2A460A992046FFF79AFF7A
:10470000034658B1236C042B01D00123DAE7226859
:10471000136843F4007313600123D3E7012F0ED015
:104720002368320A1A612A460A992046FFF782FF57
:10473000034678B1236C042B05D00123C2E722681D
:10474000F6B21661BEE72268136843F40073136083
:104750000123B7E72268F6B21661B3E70323B1E796
:10476000020001002DE9F04184B004460E461746D0
:1047700098460B9D0268136843F4806313600268D7
:10478000136843F48073136000950A9B00224FF076
:104790000111FFF7C5FE68B123681B6813F4807F21
:1047A00000F089804FF4007323640323184604B09B
:1047B000BDE8F081F6B2236806F0FE021A612B46CE
:1047C0000A9A3F492046FFF7E3FE08B10123EDE7CF
:1047D0000023039323685A6903929B690393039B05
:1047E0002A460A992046FFF725FF58B1236C042B6F
:1047F00001D00123DAE72268136843F400731360E1
:104800000123D3E7B8F1010F0DD12368FFB21F6177
:104810002A460A992046FFF70DFF20B3236C042B8C
:104820001AD00123C2E723683A0A1A612A460A9974
:104830002046FFF7FFFE58B1236C042B01D0012363
:10484000B4E72268136843F4007313600123ADE7F3
:104850002368FFB21F61DBE72268136843F400732B
:1048600013600123A2E72268136843F48073136086
:1048700000950A9B00224FF001112046FFF750FEE1
:1048800048B123681B6813F4807F16D04FF400737F
:10489000236403238AE7236846F001061E612B4642
:1048A0000A9A07492046FFF773FE034600283FF4A3
:1048B0007DAF01237AE7032378E7032376E700BF80
:1048C0000200010070B504460D46164623685B6978
:1048D00013F0040F1CD12046FFF709FED0B9B5F143
:1048E000FF3FF3D0FFF79CFA801BA84201D8002DB0
:1048F000ECD100232363202284F83D2084F83E304D
:10490000226C42F02002226484F83C30012000E056
:10491000002070BD0120FCE770B505460C46164628
:104920002B685A6912F0400F29D15A6912F0100F02
:1049300015D1FFF775FA801BA04201D8002CEFD1EA
:1049400000232B63202285F83D2085F83E302A6C19
:1049500042F020022A6485F83C30012070BD6FF0DF
:1049600010025A6100232B63202285F83D2085F830
:104970003E302A6C2A6485F83C300120EEE70020A6
:10498000ECE700002DE9F04182B004460E461746E0
:104990009846FFF745FA94F83D30DBB2202B04D05F
:1049A0000223184602B0BDE8F081054600901923A5
:1049B00001224C492046FFF7B3FD002840F08B80D0
:1049C00094F83C30012B00F08880012384F83C30BF
:1049D00023681A6812F0010F03D11A6842F001022D
:1049E0001A602268136823F400631360212384F89B
:1049F0003D30402384F83E3000232364089B6362EB
:104A0000BDF824306385638D2385374BE3620195C0
:104A10000A9B009343463A4631462046FFF734FE50
:104A200000285CD1238D002B34D02A460A992046D9
:104A3000FFF700FE10BB626A236812781A61616A90
:104A40004B1C6362238D013B9BB22385628D013A2F
:104A500092B262852268506910F0040FE2D0002BF8
:104A6000E0D04B781361636A01336362238D013BAD
:104A70002385638D013B9BB26385D3E7236C042BB5
:104A800001D001238DE72268136843F4007313609B
:104A9000012386E72A460A992046FFF713FF0346BB
:104AA00058B1236C042B01D001237AE722681368E4
:104AB00043F400731360012373E721680A6842F42A
:104AC00000720A60202284F83D20002284F83E20F3
:104AD00084F83C2065E7022363E7022361E70123B2
:104AE0005FE700BF020010000000FFFF2DE9F0416A
:104AF00086B004460E4617469846FFF791F994F89B
:104B00003D30DBB2202B04D00226304606B0BDE893
:104B1000F08105460090192301229E492046FFF7A7
:104B2000FFFC002840F0348194F83C30012B00F069
:104B30003781012384F83C3023681A6812F0010F92
:104B400003D11A6842F001021A602268136823F444
:104B500000631360222384F83D30402384F83E3004
:104B6000002323640C9B6362BDF834306385638D3E
:104B70002385894BE36201950E9B009343463A4699
:104B800031462046FFF7EEFD0646002840F00A8138
:104B9000238D5BB9029323685A6902929A69029243
:104BA000029A1A6842F400721A6072E0012B0AD06D
:104BB000022B1AD00023059323685A6905929B693A
:104BC0000593059B65E02268136823F480631360F6
:104BD0000023039323685A6903929A690392039A04
:104BE0001A6842F400721A6053E02268136823F4D2
:104BF000806313602268136843F40063136000232A
:104C0000049323685A6904929B690493049B40E0CF
:104C10002A460E992046FFF77FFE002840F0C48008
:104C200023681A69636A1A70636A01336362238DA9
:104C3000013B2385638D013B9BB2638529E0009591
:104C40000E9B002255492046FFF76AFC002840F0E1
:104C5000AD802268136843F40073136023681A69F7
:104C6000636A1A70626A531C6362238D013B238559
:104C7000638D013B9BB2638523681B695370636A34
:104C800001336362238D013B2385638D013B9BB21E
:104C90006385238D002B72D0032B49D8012BB7D00D
:104CA000022BCCD000950E9B00223C492046FFF7FA
:104CB00037FC00287CD12268136823F480631360DA
:104CC00023681A69636A1A70636A01336362238D09
:104CD000013B2385638D013B9BB2638500950E9B51
:104CE00000222E492046FFF71BFC002862D12268D3
:104CF000136843F40073136023681A69636A1A70B7
:104D0000626A531C6362238D013B2385638D013BE3
:104D10009BB2638523681B695370636A01336362C6
:104D2000238D013B2385638D013B9BB26385B0E7F7
:104D30002A460E992046FFF7EFFD00283CD1236854
:104D40001A69636A1A70626A531C6362238D013B9D
:104D50002385638D013B9BB263852368596911F0FC
:104D6000040F96D01B695370636A01336362238D0D
:104D7000013B2385638D013B9BB2638589E720233B
:104D800084F83D30002384F83E3084F83C30BCE6A3
:104D90000226BAE6020010000000FFFF0400010036
:104DA0000226B2E60126B0E60126AEE60126ACE612
:104DB0000126AAE60126A8E60126A6E6002800F0BC
:104DC000E98170B582B00446036813F0010F3BD04F
:104DD000A74B9B6803F00C03042B2CD0A44B9B68BF
:104DE00003F00C03082B21D06368B3F5803F4FD04C
:104DF000B3F5A02F52D09E4B1A6822F480321A606D
:104E00001A6822F480221A606368002B50D0FFF7E2
:104E100007F80546964B1B6813F4003F14D1FEF7C4
:104E2000FFFF401B6428F5D90320B8E1904B5B6875
:104E300013F4800FD8D08E4B1B6813F4003F03D0BF
:104E40006368002B00F0A881236813F0020F55D08F
:104E5000874B9B6813F00C0F3ED0854B9B6803F08B
:104E60000C03082B33D0E368002B68D0814B012260
:104E70001A60FEF7D5FF05467D4B1B6813F0020F45
:104E800054D1FEF7CDFF401B0228F5D9032086E15F
:104E9000774A136843F480331360B5E7744B1A689C
:104EA00042F480221A601A6842F480321A60ABE73A
:104EB000FEF7B6FF05466E4B1B6813F4003FC3D0E8
:104EC000FEF7AEFF401B6428F5D9032067E1684B6D
:104ED0005B6813F4800FC6D1654B1B6813F0020F9B
:104EE00004D0E368012B01D0012058E1604A136827
:104EF00023F0F803216943EAC1031360236813F028
:104F0000080F40D0636963B35B4B01221A60FEF760
:104F100087FF0546564B5B6F13F0020F33D1FEF748
:104F20007FFF401B0228F5D9032038E1504A13685F
:104F300023F0F803216943EAC1031360DEE74D4B18
:104F400000221A60FEF76CFF0546494B1B6813F000
:104F5000020FD3D0FEF764FF401B0228F5D90320CF
:104F60001DE1454B00221A60FEF75AFF0546404BF3
:104F70005B6F13F0020F06D0FEF752FF401B0228B2
:104F8000F5D903200BE1236813F0040F79D0384BD7
:104F90001B6C13F0805F33D100230193344B1A6CE8
:104FA00042F080521A641B6C03F080530193019B02
:104FB0000125324B1B6813F4807F23D0A368012B9B
:104FC00034D0052B38D02A4B1A6F22F001021A6711
:104FD0001A6F22F004021A67A368002B36D0FEF77E
:104FE0001FFF0646224B1B6F13F0020F48D1FEF73E
:104FF00017FF801B41F288339842F3D90320CEE09B
:105000000025D6E71D4A136843F480731360FEF74A
:1050100007FF0646194B1B6813F4807FCED1FEF7BD
:10502000FFFE801B0228F5D90320B8E0104A136F59
:1050300043F001031367CFE70D4B1A6F42F00402F0
:105040001A671A6F42F001021A67C5E7FEF7E8FE19
:105050000646074B1B6F13F0020F11D0FEF7E0FE60
:10506000801B41F288339842F3D9032097E000BFB8
:105070000038024000004742800E47420070004066
:10508000EDB9A369002B00F08980484A926802F0CC
:105090000C02082A51D0022B17D0454B00221A606F
:1050A000FEF7BEFE0446414B1B6813F0007F42D062
:1050B000FEF7B6FE001B0228F5D903206FE03B4A3D
:1050C000136C23F080531364DBE7394B00221A6022
:1050D000FEF7A6FE0546354B1B6813F0007F06D091
:1050E000FEF79EFE401B0228F5D9032057E0E36936
:1050F000226A1343626A43EA8213A26A5208013A9F
:1051000043EA0243E26A43EA0263284A5360284BB7
:1051100001221A60FEF784FE0446244B1B6813F03C
:10512000007F06D1FEF77CFE001B0228F5D9032084
:1051300035E0002033E0002031E0012B31D01B4B63
:105140005B6803F48001E269914201D0012026E00E
:1051500003F03F02216A8A4201D001201FE0616A08
:1051600047F6C0721A40B2EB811F01D0012016E051
:1051700003F44031A26A5208013AB1EB024F01D068
:1051800001200CE003F07063E26AB3EB026F0AD017
:10519000012004E001207047012000E0002002B05F
:1051A00070BD0120FBE70020F9E700BF0038024096
:1051B00060004742264B9B6803F00C03042B44D04D
:1051C000082B01D0234870472DE9F04B204B5A683B
:1051D00002F03F025B6813F4800F13D01C4B596838
:1051E000C1F3881100231C48A1FB0001FBF7FEFB63
:1051F000174B5B68C3F3014301335B00B0FBF3F073
:10520000BDE8F08B124B5B68C3F388131E46002782
:105210005C010025E41A65EB0705A90141EA9461E8
:10522000A001001B61EB0501CB0043EA5073C400F1
:10523000A01943EB07018B0243EA905384022046F6
:1052400019460023FBF7D2FBD2E70348704700BFA3
:10525000003802400024F40040787D01002800F06E
:105260009E8070B50446504B1B6803F007038B42C9
:1052700009D2CBB24C4A1370136803F007038B4278
:1052800001D0012070BD236813F0020F17D013F076
:10529000040F04D0454A936843F4E05393602368B5
:1052A00013F0080F04D0414A936843F460439360BD
:1052B0003E4A936823F0F003A068034393600D46D1
:1052C000236813F0010F32D06368012B21D09A1E9E
:1052D000012A25D9354A126812F0020F61D03349EC
:1052E0008A6822F0030213438B60FEF799FD06469D
:1052F0002E4B9B6803F00C036268B3EB820F16D051
:10530000FEF78EFD801B41F288339842F0D90320CE
:10531000B8E7264A126812F4003FE0D10120B1E755
:10532000224A126812F0007FD9D10120AAE71E4B51
:105330001B6803F00703AB4209D9EAB21A4B1A7093
:105340001B6803F00703AB4201D001209AE72368F2
:1053500013F0040F06D0154A936823F4E053E16874
:105360000B439360236813F0080F07D00F4A93682C
:1053700023F46043216943EAC1039360FFF71AFFF6
:105380000A4B9B68C3F30313094AD35CD840094B0B
:105390001860094B1868FEF7F7FC002072E701203F
:1053A000704701206EE700BF003C02400038024019
:1053B000B8D80008040000200C000020014B186839
:1053C000704700BF0400002008B5FFF7F7FF044B4B
:1053D0009B68C3F38223034AD35CD84008BD00BF57
:1053E00000380240C8D8000808B5FFF7E7FF044BB3
:1053F0009B68C3F34233034AD35CD84008BD00BF67
:1054000000380240C8D8000830B4036A23F0010312
:105410000362056A4268846924F073040B681C43C4
:1054200025F002058B682B43104DA84203D005F5EB
:105430008065A84205D123F00803CD682B4323F0F3
:1054400004030A4DA84203D005F58065A84205D1A2
:1054500022F440724D6915438A692A43426084618F
:105460004A684263036230BC704700BF00000140DD
:1054700030B4036A23F480730362036A4268C46928
:1054800024F073040D682C4323F400738D6843EA01
:105490000523124DA84203D005F58065A84206D128
:1054A00023F40063CD6843EA052323F480630B4DA6
:1054B000A84203D005F58065A84207D122F44052E6
:1054C0004D6942EA05128D6942EA05124260C461E3
:1054D0004A68C263036230BC704700BF00000140ED
:1054E00030B4036A23F480530362036A4468C269D8
:1054F00022F4E6420D6842EA052223F400538D6847
:1055000043EA0533094DA84203D005F58065A8425A
:1055100004D124F480444D6944EA85144460C26196
:105520004A680264036230BC704700BF000001405B
:1055300010B4036A046A24F001040462846924F04C
:10554000F00444EA021223F00A030B43826103626F
:105550005DF8044B704710B4036A23F01003036234
:105560008469036A24F4704444EA023223F0A003FD
:1055700043EA0113826103625DF8044B704783685C
:1055800023F07003194341F0070181607047000068
:1055900090F83D30DBB2012B01D00120704702238F
:1055A00080F83D300268D36843F00103D36003689C
:1055B000184A934220D0B3F1804F1DD0A2F57C420F
:1055C000934219D002F58062934215D002F58062B1
:1055D000934211D002F5784293420DD002F57052F9
:1055E000934209D0A2F59432934205D01A6842F052
:1055F00001021A60002070479A6802F00702062A2A
:1056000005D01A6842F001021A600020704700209D
:10561000704700BF000001407047704770477047F7
:10562000704710B5044603681A6912F0020F11D0D2
:10563000DA6812F0020F0DD06FF002021A61012336
:10564000037703689B6913F0030F70D0FFF7E6FF41
:105650000023237723681A6912F0040F12D0DA6846
:1056600012F0040F0ED06FF004021A6102232377A8
:1056700023689B6913F4407F5FD02046FFF7CEFF7D
:105680000023237723681A6912F0080F12D0DA6812
:1056900012F0080F0ED06FF008021A61042323776E
:1056A0002368DB6913F0030F4ED02046FFF7B6FFE7
:1056B0000023237723681A6912F0100F12D0DA68DA
:1056C00012F0100F0ED06FF010021A61082323772A
:1056D0002368DB6913F4407F3DD02046FFF79EFF2F
:1056E0000023237723681A6912F0010F03D0DA68C8
:1056F00012F0010F36D123681A6912F0800F03D01F
:10570000DA6812F0800F34D123681A6912F0400F62
:1057100003D0DA6812F0400F32D123681A6912F010
:10572000200F03D0DA6812F0200F30D110BDFFF740
:1057300074FF2046FFF773FF8AE72046FFF76DFFEF
:105740002046FFF76CFF9BE72046FFF766FF2046E9
:10575000FFF765FFACE72046FFF75FFF2046FFF746
:105760005EFFBDE76FF001021A612046FCF7F8FF0B
:10577000C1E76FF080021A61204600F0BBFBC3E76F
:105780006FF040021A612046FFF74AFFC5E76FF04D
:1057900020021A61204600F0ACFBC7E70368304ADC
:1057A000904212D0B0F1804F0FD0A2F57C429042CF
:1057B0000BD002F58062904207D002F580629042E1
:1057C00003D002F57842904203D123F070034A6877
:1057D0001343234A90422AD0B0F1804F27D0A2F53C
:1057E0007C42904223D002F5806290421FD002F5A5
:1057F000806290421BD002F57842904217D002F5A9
:105800007052904213D002F5806290420FD002F5A0
:10581000806290420BD0A2F59832904207D002F5F8
:105820008062904203D002F58062904203D123F45B
:105830004073CA68134323F080034A69134303602B
:105840008B68C3620B688362054B984203D003F5F3
:105850008063984201D10B69036301234361704760
:105860000000014038B310B5044690F83D30EBB16C
:10587000022384F83D30211D2068FFF78FFF0123AC
:1058800084F8463084F83E3084F83F3084F8403065
:1058900084F8413084F8423084F8433084F844304E
:1058A00084F8453084F83D30002010BD80F83C304D
:1058B000FDF76CFDDCE70120704738B310B50446F6
:1058C00090F83D30EBB1022384F83D30211D206873
:1058D000FFF764FF012384F8463084F83E3084F8F3
:1058E0003F3084F8403084F8413084F8423084F806
:1058F000433084F8443084F8453084F83D3000204B
:1059000010BD80F83C30FFF787FEDCE701207047D0
:10591000002853D0F8B504460D4690F83D30002BD2
:1059200047D0022384F83D30214651F8042B936878
:1059300023F4804323F0070393602068FFF72EFFD2
:1059400021688A688E690F6A2868104326F44076B9
:1059500026F00306AA68AB6942EA0323334323F423
:105960007C4323F0FC03EE68EA6946EA02261E4304
:105970002A6A13032A6943EA0213334327F0AA076A
:105980006A686D6942EA05123A43886021688B6152
:1059900023681A62012384F8463084F83E3084F884
:1059A0003F3084F8423084F8433084F83D300020A2
:1059B000F8BD80F83C30FDF71DFDB2E701207047CF
:1059C00030B4036A23F010030362036A44688269F7
:1059D00022F4E6420D6842EA052223F020038D6896
:1059E00043EA0513114DA84203D005F58065A8428E
:1059F00006D123F08003CD6843EA051323F040036A
:105A00000A4DA84203D005F58065A84207D124F4C9
:105A100040644D6944EA85048D6944EA8504446024
:105A200082614A688263036230BC704700000140B3
:105A300038B590F83C30012B66D00D460446012362
:105A400080F83C300C2A5DD8DFE802F0075C5C5C33
:105A50001E5C5C5C335C5C5C47000068FFF7D4FC58
:105A60002268936943F0080393612268936923F0E5
:105A7000040393612268936929690B4393610020B1
:105A8000002384F83C3038BD0068FFF799FF226896
:105A9000936943F4006393612268936923F48063FC
:105AA000936122689369296943EA01239361002085
:105AB000E6E70068FFF7DCFC2268D36943F00803DF
:105AC000D3612268D36923F00403D3612268D369C8
:105AD00029690B43D3610020D2E70068FFF700FD7E
:105AE0002268D36943F40063D3612268D36923F445
:105AF0008063D3612268D369296943EA0123D361B2
:105B00000020BDE70120BBE70220BCE710B4846899
