:020000040800F2
:1000000000000220D1190008211800082318000858
:10001000251800082718000829180008000000000B
:100020000000000000000000000000002B18000885
:100030002D180008000000002F18000831180008D3
:10004000211A0008211A0008211A0008211A0008A4
:10005000211A0008211A0008211A0008211A000894
:10006000211A0008211A0008211A0008211A000884
:10007000211A0008211A0008211A0008211A000874
:10008000211A0008211A0008211A0008211A000864
:10009000211A0008211A0008211A0008211A000854
:1000A000211A0008211A0008211A0008211A000844
:1000B000211A0008211A0008211A0008211A000834
:1000C000211A0008211A0008211A0008211A000824
:1000D000211A0008211A0008211A0008211A000814
:1000E000211A0008211A0008211A0008211A000804
:1000F000211A0008211A0008211A0008211A0008F4
:10010000211A0008211A0008211A0008211A0008E3
:10011000211A0008211A0008211A0008211A0008D3
:10012000211A0008211A0008211A0008211A0008C3
:10013000211A0008211A0008211A0008211A0008B3
:10014000211A0008211A0008211A0008211A0008A3
:10015000211A0008211A0008211A0008211A000893
:10016000211A0008211A0008211A0008211A000883
:10017000211A0008211A0008211A000800000000B6
:08018000211A0008211A0008F1
:1001C0004FF0FF0C1CEAD0521EBF1CEAD15392EA3A
:1001D0000C0F93EA0C0F6FD01A4480EA010C400216
:1001E00018BF5FEA41211ED04FF0006343EA501070
:1001F00043EA5111A0FB01310CF00040B1F5000FB2
:100200003EBF490041EAD3715B0040EA010062F160
:100210007F02FD2A1DD8B3F1004F40EBC25008BF4A
:1002200020F00100704790F0000F0CF0004C08BF68
:1002300049024CEA502040EA51207F3AC2BFD2F135
:10024000FF0340EAC250704740F400004FF0000343
:10025000013A5DDC12F1190FDCBF00F0004070477D
:10026000C2F10002410021FA02F1C2F1200200FABB
:1002700002FC5FEA310040F1000053EA4C0308BF82
:1002800020EADC70704792F0000F00F0004C02BFD3
:10029000400010F4000F013AF9D040EA0C0093F04E
:1002A000000F01F0004C02BF490011F4000F013BA8
:1002B000F9D041EA0C018FE70CEAD15392EA0C0F16
:1002C00018BF93EA0C0F0AD030F0004C18BF31F081
:1002D000004CD8D180EA010000F00040704790F057
:1002E000000F17BF90F0004F084691F0000F91F0FB
:1002F000004F14D092EA0C0F01D142020FD193EAC1
:100300000C0F03D14B0218BF084608D180EA010048
:1003100000F0004040F0FE4040F40000704740F024
:10032000FE4040F44000704781F0004102E000BF11
:1003300083F0004330B54FEA41044FEA430594EAA5
:10034000050F08BF90EA020F1FBF54EA000C55EAE0
:10035000020C7FEA645C7FEA655C00F0E2804FEAB1
:100360005454D4EB5555B8BF6D420CDD2C4480EA93
:10037000020281EA030382EA000083EA010180EAC3
:10038000020281EA0303362D88BF30BD11F0004F11
:100390004FEA01314FF4801C4CEA113102D0404247
:1003A00061EB410113F0004F4FEA03334CEA133382
:1003B00002D0524263EB430394EA050F00F0A7809A
:1003C000A4F10104D5F1200E0DDB02FA0EFC22FA95
:1003D00005F2801841F1000103FA0EF2801843FA89
:1003E00005F359410EE0A5F120050EF1200E012A7A
:1003F00003FA0EFC28BF4CF0020C43FA05F3C018B8
:1004000051EBE37101F0004507D54FF0000EDCF130
:10041000000C7EEB00006EEB0101B1F5801F1BD3D9
:10042000B1F5001F0CD349085FEA30004FEA3C0CDD
:1004300004F101044FEA445212F5800F80F09A80D3
:10044000BCF1004F08BF5FEA500C50F1000041EBD7
:10045000045141EA050130BD5FEA4C0C404141EBDB
:100460000101013C28BFB1F5801FE9D291F0000FD6
:1004700004BF01460020B1FA81F308BF2033A3F185
:100480000B03B3F120020CDA0C3208DD02F1140C7C
:10049000C2F10C0201FA0CF021FA02F10CE002F1B7
:1004A0001402D8BFC2F1200C01FA02F120FA0CFCB0
:1004B000DCBF41EA0C019040E41AA2BF01EB0451F9
:1004C000294330BD6FEA04041F3C1CDA0C340EDCF7
:1004D00004F11404C4F1200220FA04F001FA02F33A
:1004E00040EA030021FA04F345EA030130BDC4F1F8
:1004F0000C04C4F1200220FA02F001FA04F340EAED
:100500000300294630BD21FA04F0294630BD94F09D
:10051000000F83F4801306BF81F480110134013D84
:100520004EE77FEA645C18BF7FEA655C29D094EAF5
:10053000050F08BF90EA020F05D054EA000C04BF73
:100540001946104630BD91EA030F1EBF002100205E
:1005500030BD5FEA545C05D14000494128BF41F0FD
:10056000004130BD14F580043CBF01F5801130BD61
:1005700001F0004545F0FE4141F470014FF00000EC
:1005800030BD7FEA645C1ABF194610467FEA655C9D
:100590001CBF0B46024650EA013406BF52EA03353F
:1005A00091EA030F41F4002130BD00BF90F0000F2D
:1005B00004BF0021704730B54FF4806404F1320469
:1005C0004FF000054FF0000150E700BF90F0000F22
:1005D00004BF0021704730B54FF4806404F1320449
:1005E00010F0004548BF40424FF000013EE700BF19
:1005F00042004FEAE2014FEA31014FEA02701FBFA9
:1006000012F07F4393F07F4F81F06051704732F0DA
:100610007F4208BF704793F07F4F04BF41F4002131
:10062000704730B54FF4607401F0004521F000418F
:100630001CE700BF50EA010208BF704730B54FF019
:1006400000050AE050EA010208BF704730B511F01A
:10065000004502D5404261EB41014FF4806404F152
:1006600032045FEA915C3FF4D8AE4FF003025FEAD8
:10067000DC0C18BF03325FEADC0C18BF033202EB5C
:10068000DC02C2F1200300FA03FC20FA02F001FAB6
:1006900003FE40EA0E0021FA02F11444BDE600BF59
:1006A00080F0004002E000BF81F0004142001FBF27
:1006B0005FEA410392EA030F7FEA226C7FEA236C30
:1006C0006AD04FEA1262D2EB1363C1BFD218414025
:1006D00048404140B8BF5B42192B88BF704710F0BB
:1006E000004F40F4000020F07F4018BF404211F05E
:1006F000004F41F4000121F07F4118BF494292EAC6
:10070000030F3FD0A2F1010241FA03FC10EB0C00F1
:10071000C3F1200301FA03F100F0004302D549427E
:1007200060EB4000B0F5000F13D3B0F1807F06D32B
:1007300040084FEA310102F10102FE2A51D2B1F123
:10074000004F40EBC25008BF20F0010040EA030018
:100750007047490040EB0000013A28BFB0F5000F98
:10076000EDD2B0FA80FCACF1080CB2EB0C0200FA4E
:100770000CF0AABF00EBC25052421843BCBFD0409D
:100780001843704792F0000F81F4000106BF80F417
:1007900000000132013BB5E74FEA41037FEA226CDA
:1007A00018BF7FEA236C21D092EA030F04D092F0A5
:1007B000000F08BF0846704790EA010F1CBF0020D9
:1007C000704712F07F4F04D1400028BF40F0004036
:1007D000704712F100723CBF00F50000704700F056
:1007E000004343F0FE4040F4000070477FEA22627D
:1007F00016BF08467FEA23630146420206BF5FEA4E
:10080000412390EA010F40F4800070474FF000034D
:1008100004E000BF10F0004348BF40425FEA000C14
:1008200008BF704743F0964301464FF000001CE0BC
:1008300050EA010208BF70474FF000030AE000BF12
:1008400050EA010208BF704711F0004302D5404250
:1008500061EB41015FEA010C02BF844601460020C2
:1008600043F0B64308BFA3F18053A3F50003BCFADD
:100870008CF2083AA3EBC25310DB01FA02FC63448A
:1008800000FA02FCC2F12002BCF1004F20FA02F291
:1008900043EB020008BF20F00100704702F1200284
:1008A00001FA02FCC2F1200250EA4C0021FA02F2E5
:1008B00043EB020008BF20EADC70704753B94AB925
:1008C000002908BF00281CBF4FF0FF314FF0FF3058
:1008D00000F0E2B8ADF1080C6DE904CE02F0CCFFF7
:1008E000DDF804E0DDE9022304B0704700F13401D3
:1008F00091E838009C46A6464CF8045D90E8FF0F4E
:10090000E54600BD90EC210B704700BF80EC210B49
:10091000704700BF90EC200B704700BF80EC200BAD
:10092000704700BFD0EC200B704700BFC0EC200B1D
:10093000704700BFF0EC0201F0EC0211F0EC022174
:10094000F0EC0231F0EC0241F0EC0251F0EC02610B
:10095000F0EC0271F0EC0281F0EC0291F0EC02A1FB
:10096000F0EC02B1F0EC02C1F0EC02D1F0EC02E1EB
:10097000F0EC02F1704700BFE0EC0201E0EC021184
:10098000E0EC0221E0EC0231E0EC0241E0EC02514B
:10099000E0EC0261E0EC0271E0EC0281E0EC02913B
:1009A000E0EC02A1E0EC02B1E0EC02C1E0EC02D12B
:1009B000E0EC02E1E0EC02F1704700BFB0FC018125
:1009C000B0FC0191B0FC01A1B0FC01B1704700BFC7
:1009D000A0FC0181A0FC0191A0FC01A1A0FC01B13F
:1009E000704700BFEC4600B52DE900502DE9FF1F10
:1009F0004FF000032DE90C0001A903F0EFF9DDF839
:100A000040E012B0704700BFEC4600B52DE9005041
:100A10002DE9FF1F4FF000032DE90C0001A903F0A1
:100A200019FADDF840E012B0704700BFEC4600B59F
:100A30002DE900502DE9FF1F4FF000032DE90C00B8
:100A400001A903F027FADDF840E012B0704700BFBB
:100A5000EC4600B52DE900502DE9FF1F4FF00003D3
:100A60002DE90C0001AB03F0EDF9DDF840E012B028
:100A7000704700BFEC4600B52DE900502DE9FF1F7F
:100A80004FF000032DE90C0001AA03F057FADDF83E
:100A900040E012B0704700BF704700BF844641EA93
:100AA000000313F003036DD1403A41D351F8043BE6
:100AB00040F8043B51F8043B40F8043B51F8043B38
:100AC00040F8043B51F8043B40F8043B51F8043B28
:100AD00040F8043B51F8043B40F8043B51F8043B18
:100AE00040F8043B51F8043B40F8043B51F8043B08
:100AF00040F8043B51F8043B40F8043B51F8043BF8
:100B000040F8043B51F8043B40F8043B51F8043BE7
:100B100040F8043B51F8043B40F8043B51F8043BD7
:100B200040F8043B51F8043B40F8043B403ABDD246
:100B3000303211D351F8043B40F8043B51F8043BE8
:100B400040F8043B51F8043B40F8043B51F8043BA7
:100B500040F8043B103AEDD20C3205D351F8043B77
:100B600040F8043B043AF9D2043208D0D2071CBF43
:100B700011F8013B00F8013B01D30B88038060466C
:100B8000704700BF082A13D38B078DD010F00303E2
:100B90008AD0C3F10403D21ADB071CBF11F8013B52
:100BA00000F8013B80D331F8023B20F8023B7BE7A1
:100BB000043AD9D3013A11F8013B00F8013BF9D2CC
:100BC0000B7803704B7843708B7883706046704766
:100BD0000000000000000000000000000000000015
:100BE0000000000000000000000000000000000005
:100BF00000000000000000000000000000000000F5
:100C000030B490F800F020F007016FF0000C10F005
:100C1000070491F820F040F048804FF000046FF096
:100C20000700D1E9002391F840F000F1080082FAB2
:100C30004CF2A4FA8CF283FA4CF3A2FA8CF34BBB7D
:100C4000D1E9022382FA4CF200F10800A4FA8CF2F6
:100C500083FA4CF3A2FA8CF3E3B9D1E9042382FAC4
:100C60004CF200F10800A4FA8CF283FA4CF3A2FAD9
:100C70008CF37BB9D1E9062301F1200182FA4CF211
:100C800000F10800A4FA8CF283FA4CF3A2FA8CF378
:100C9000002BC6D0002A04BF04301A4612BAB2FA9A
:100CA00082F200EBD20030BC7047D1E9002304F09F
:100CB0000305C4F100004FEAC50514F0040F91F8D4
:100CC00040F00CFA05F562EA05021CBF63EA050371
:100CD00062464FF00004AAE7000000000000000098
:100CE00001F0FF01102A2BDB10F0070F08D010F8DD
:100CF000013B013A8B422DD010F0070F42B3F6D1E1
:100D0000F0B441EA012141EA014122F007047FF0F9
:100D100000070023F0E80256083C85EA010586EA50
:100D2000010685FA47F5A3FA87F586FA47F6A5FA8C
:100D300087F68EB9EED1F0BC01F0FF0102F0070298
:100D400032B110F8013B013A83EA010313B1F8D143
:100D50000020704701387047002D06BF3546033824
:100D6000073815F0010F07D1013015F4807F02BF5D
:100D7000013015F4C03F0130F0BC0138704700BFAE
:100D800070B54FF0FF0C4CF4E06C1CEA11541DBF21
:100D90001CEA135594EA0C0F95EA0C0F00F0DEF8EC
:100DA0002C4481EA030621EA4C5123EA4C5350EAD1
:100DB000013518BF52EA033541F4801143F4801322
:100DC00038D0A0FB02CE4FF00005E1FB02E506F0B3
:100DD0000042E0FB03E54FF00006E1FB03569CF008
:100DE000000F18BF4EF0010EA4F1FF04B6F5007F0E
:100DF00064F5407404D25FEA4E0E6D4146EB060680
:100E000042EAC62141EA55514FEAC52040EA5E5008
:100E10004FEACE2EB4F1FD0C88BFBCF5E06F1ED8B2
:100E2000BEF1004F08BF5FEA500E50F1000041EBE9
:100E3000045170BD06F0004646EA010140EA020096
:100E400081EA0301B4EB5C04C2BFD4EB0C0541EAB8
:100E5000045170BD41F480114FF0000E013C00F3CD
:100E6000AB8014F1360FDEBF002001F0004170BDF1
:100E7000C4F10004203C35DA0C341BDC04F114040A
:100E8000C4F1200500FA05F320FA04F001FA05F296
:100E900040EA020001F0004221F0004110EBD37063
:100EA00021FA04F642EB06015EEA430E08BF20EA8F
:100EB000D37070BDC4F10C04C4F1200500FA04F332
:100EC00020FA05F001FA04F240EA020001F00041C4
:100ED00010EBD37041F100015EEA430E08BF20EA37
:100EE000D37070BDC4F1200500FA05F24EEA020E7F
:100EF00020FA04F301FA05F243EA020321FA04F0AE
:100F000001F0004121FA04F220EA020000EBD37064
:100F10005EEA430E08BF20EAD37070BD94F0000F64
:100F20000FD101F00046400041EB010111F4801F98
:100F300008BF013CF7D041EA060195F0000F18BF49
:100F4000704703F00046520043EB030313F4801F85
:100F500008BF013DF7D043EA0603704794EA0C0F3F
:100F60000CEA135518BF95EA0C0F0CD050EA410655
:100F700018BF52EA4306D1D181EA030101F00041D2
:100F80004FF0000070BD50EA410606BF10461946FA
:100F900052EA430619D094EA0C0F02D150EA013606
:100FA00013D195EA0C0F05D152EA03361CBF104647
:100FB00019460AD181EA030101F0004141F0FE41E6
:100FC00041F470014FF0000070BD41F0FE4141F46A
:100FD000780170BD70B54FF0FF0C4CF4E06C1CEA6A
:100FE00011541DBF1CEA135594EA0C0F95EA0C0F1F
:100FF00000F0A7F8A4EB050481EA030E52EA0335DA
:101000004FEA013100F088804FEA03334FF08055FA
:1010100045EA131343EA12634FEA022245EA111527
:1010200045EA10654FEA00260EF000419D4208BFD8
:10103000964244F1FD0404F5407402D25B084FEA85
:101040003202B61A65EB03055B084FEA32024FF431
:1010500080104FF4002CB6EB020E75EB030E22BF8E
:10106000B61A754640EA0C005B084FEA3202B6EB4E
:10107000020E75EB030E22BFB61A754640EA5C00FD
:101080005B084FEA3202B6EB020E75EB030E22BF8D
:10109000B61A754640EA9C005B084FEA3202B6EB8E
:1010A000020E75EB030E22BFB61A754640EADC004D
:1010B00055EA060E18D04FEA051545EA16754FEAAF
:1010C00006164FEAC30343EA52734FEAC2025FEACD
:1010D0001C1CC0D111F4801F0BD141EA00014FF05C
:1010E00000004FF0004CB6E711F4801F04BF01432D
:1010F0000020B4F1FD0C88BFBCF5E06F3FF6AFAE49
:10110000B5EB030C04BFB6EB020C5FEA500C50F1D8
:10111000000041EB045170BD0EF0004E4EEA11315B
:1011200014EB5C04C2BFD4EB0C0541EA045170BD62
:1011300041F480114FF0000E013C90E645EA060EA6
:101140008DE60CEA135594EA0C0F08BF95EA0C0FD4
:101150003FF43BAF94EA0C0F0AD150EA01347FF41C
:1011600034AF95EA0C0F7FF425AF104619462CE7F3
:1011700095EA0C0F06D152EA03353FF4FDAE104656
:10118000194622E750EA410618BF52EA43067FF4A7
:10119000C5AE50EA41047FF40DAF52EA43057FF437
:1011A000EBAE12E74FF0FF3C06E000BF4FF0010C42
:1011B00002E000BF4FF0010C4DF804CD4FEA410CA6
:1011C0007FEA6C5C4FEA430C18BF7FEA6C5C1BD073
:1011D00001B050EA410C0CBF52EA430C91EA030FF4
:1011E00002BF90EA020F0020704710F1000F91EA51
:1011F000030F58BF994208BF90422CBFD8176FEA1F
:10120000E37040F0010070474FEA410C7FEA6C5CEC
:1012100002D150EA013C07D14FEA430C7FEA6C5CF3
:10122000D6D152EA033CD3D05DF8040B704700BF1F
:101230008446104662468C461946634600E000BF6D
:1012400001B5FFF7B7FF002848BF10F1000F01BD3F
:101250004DF808EDFFF7F4FF0CBF012000205DF80A
:1012600008FB00BF4DF808EDFFF7EAFF34BF01208F
:1012700000205DF808FB00BF4DF808EDFFF7E0FF28
:1012800094BF012000205DF808FB00BF4DF808ED79
:10129000FFF7CEFF94BF012000205DF808FB00BFE0
:1012A0004DF808EDFFF7C4FF34BF012000205DF8C2
:1012B00008FB00BF4FEA410C7FEA6C5C02D150EAA8
:1012C000013C0AD14FEA430C7FEA6C5C02D152EA3E
:1012D000033C02D14FF0000070474FF0010070470F
:1012E0004FEA410212F5001215D211D56FF478734E
:1012F000B3EB625212D94FEAC12343F0004343EAF1
:10130000505311F0004F23FA02F018BF40427047CB
:101310004FF00000704750EA013005D111F0004055
:1013200008BF6FF0004070474FF00000704700BFEB
:101330000348044B834202D0034B03B11847704764
:10134000C4060020C4060020000000000548064B2B
:101350001B1AD90F01EBA301491002D0034B03B1B3
:1013600018477047C4060020C40600200000000093
:1013700010B5064C237843B9FFF7DAFF044B13B1DD
:101380000448AFF300800123237010BDC406002081
:1013900000000000E4AD000808B5054B1BB105498D
:1013A0000548AFF30080BDE80840FFF7CFBF00BF9E
:1013B00000000000C8060020E4AD000810B54FF0A2
:1013C000000C4FF0FF0E72460BE010F80C3053404B
:1013D000064AD25C82EA0E02054C14F803E00CF1D6
:1013E000010C6145F1DC4EEA022010BD00AF00089F
:1013F00000AE000830B141B1054A1060054B1960DC
:10140000002070476FF0050070476FF005007047CF
:101410001C0900201809002018B1034A10600020A0
:1014200070476FF0050070471009002043188F2B9C
:1014300000F29A8070B582B004460D465B4B1B6883
:10144000032B00F29480DFE803F0022047610429B7
:1014500000F29080564B1B68002B00F08E80FF221C
:101460008DF80020AA228DF8012027228DF8022075
:101470008DF80300020A8DF804200521684698477C
:101480004C4B1C60002002B070BD494B1E68002E02
:1014900076D08BB25B009BB2FB2B74D8464B1B788B
:1014A0008DF8003003238DF80130030A8DF80230E7
:1014B0008DF803000B0A8DF804308DF80510062115
:1014C0006846FFF77BFF030A8DF806308DF80700AA
:1014D00008216846B047D3E7032957D8374B1B6824
:1014E000002B56D0FF228DF80020AA228DF8012073
:1014F00027228DF802208DF80300020A8DF80420BF
:10150000052269462C4800789847B9E72C4B1E689D
:10151000002E41D08BB25B009BB2B3F5807F3ED8EA
:10152000254A10784000274AE1B200F0FE00B0479B
:101530000128A5D1244B1E68A6B300230EE05A0053
:101540000132204911F802C011F81320181942EA9B
:101550000C221E4921F8102001339BB2AB42EED37E
:1015600029462046B0478BE76FF0050070476FF0C3
:10157000050088E76FF0050085E76FF0040082E75B
:101580006FF004007FE76FF003007CE76FF0050069
:1015900079E76FF0040076E76FF0040073E76FF00F
:1015A000030070E76FF004006DE700BF040800203F
:1015B000200900200008002000000020140900205D
:1015C000180900200C08002010090020E006002067
:1015D000032807D8054B1860054B19700020054BF0
:1015E000186070476FF00500704700BF04080020C6
:1015F000000000200808002018B1034A10600020F5
:1016000070476FF0050070470C09002084B000227D
:101610000192104B196B41F020011963196B01F015
:101620002001019101990292196B41F08001196327
:10163000196B01F080010291029903921A6B42F03A
:1016400001021A631B6B03F001030393039B04B0B5
:10165000704700BF0038024008B50B480B4B0360D1
:101660000B4B436000238360C3604FF480420261F0
:1016700043618361C361036200F0F0FD00B908BDFE
:1016800000F040F8FBE700BF2409002000580040AC
:10169000801A060030B589B00023039304930593A4
:1016A000069307930268144B9A4201D009B030BDEB
:1016B00000250195114C236B43F020032363236B1A
:1016C00003F020030193019B03230393122204924E
:1016D0000122059206930423079303A9084800F00A
:1016E00071FA0295236C43F480032364236C03F4A2
:1016F00080030293029BD9E7005800400038024063
:101700000014024072B6FEE700B595B03022002109
:1017100008A803F003FB00230393049305930693A7
:1017200007930193214A116C41F080511164126CAE
:1017300002F080520192019A02931D4B1A6842F402
:1017400080421A601B6803F480430293029B0123CA
:1017500008934FF48033099302230E934FF48002D1
:101760000F92082210924FF4A87211921293042340
:10177000139308A801F074F898B90F230393022378
:101780000493002305934FF4A05306934FF4805322
:101790000793052103A801F0CDFA20B915B05DF833
:1017A00004FBFFF7AFFFFFF7ADFF00BF00380240BB
:1017B0000070004008B500F05BF9FFF7A5FFFFF7E8
:1017C00025FFFFF749FF00F087F800F06BF80548A8
:1017D00001F0E2FF01F05BFD01F0C2FF642000F0C8
:1017E00073F9F9E7C009002082B0002100910B4B8A
:1017F0005A6C42F480425A645A6C02F4804200925D
:10180000009A01911A6C42F080521A641B6C03F02A
:1018100080530193019B02B0704700BF0038024023
:10182000FEE7FEE7FEE7FEE7FEE77047704770471A
:1018300008B500F037F908BD0120704708B503F07E
:1018400057FB162303604FF0FF3008BD08B54FF07B
:10185000FF31FFF7F3FFFEE710B503460C4A0D49D1
:101860000D48006840B10C4800680344521A934286
:1018700006D8094A136010BD0748084C0460F2E717
:1018800003F036FB0C2303604FF0FF30F3E700BF9B
:10189000000002200004000078090020680D0020EC
:1018A0007047000008B50A480A4B03604FF4E13363
:1018B000436000238360C36003610C224261836143
:1018C000C36101F0D7FB00B908BDFFF71BFFFBE7C1
:1018D000C00900200010014008B50A480A4B036007
:1018E0004FF4E133436000238360C36003610C2243
:1018F00042618361C36101F0BDFB00B908BDFFF720
:1019000001FFFBE77C0900200044004000B58BB0DC
:101910000023059306930793089309930368284AC5
:10192000934205D0274A934226D00BB05DF804FBC2
:1019300000210191244B5A6C42F010025A645A6CF7
:1019400002F010020192019A02911A6B42F0010218
:101950001A631B6B03F001030293029B4FF4C063F5
:10196000059302230693032308930723099305A9EC
:10197000164800F027F9D8E700210391124B1A6CA2
:1019800042F400321A641A6C02F400320392039A91
:1019900004911A6B42F001021A631B6B03F00103FE
:1019A0000493049B0C2305930223069303230893BB
:1019B0000723099305A9054800F004F9B5E700BF1E
:1019C0000010014000440040003802400000024086
:1019D000DFF834D00D480E490E4A002302E0D458F7
:1019E000C4500433C4188C42F9D30B4A0B4C002367
:1019F00001E013600432A242FBD3FFF751FF03F072
:101A00007DFAFFF7D7FE704700000220000000209B
:101A1000C406002034B60008C4060020680D00206B
:101A2000FEE7000010B504460E4B1A784FF47A73A7
:101A3000B3FBF2F30C4A1068B0FBF3F000F0AEF821
:101A400068B90F2C01D901200AE0002221464FF08D
:101A5000FF3000F093F8054B1C60002000E00120EF
:101A600010BD00BF08000020040000200C00002072
:101A700008B50B4B1A6842F400721A601A6842F4F7
:101A800080621A601A6842F480721A60032000F0C3
:101A900063F80F20FFF7C6FFFFF7A6FE002008BD82
:101AA000003C0240034A1168034B1B780B4413604F
:101AB000704700BF040A002008000020014B18688E
:101AC000704700BF040A002038B50446FFF7F6FF50
:101AD0000546B4F1FF3F02D0044B1B781C44FFF7CE
:101AE000EDFF401BA042FAD338BD00BF0800002024
:101AF000002808DB0901C9B200F1604000F561402F
:101B000080F80013704700F00F000901C9B2014BC3
:101B10001954704714ED00E000B500F00700C0F163
:101B2000070CBCF1040F28BF4FF0040C031D062B5B
:101B30000FD9C31E4FF0FF3E0EFA0CF021EA000150
:101B400099400EFA03FE22EA0E0241EA02005DF815
:101B500004FB0023EEE70000074AD36823F4E063A8
:101B60001B041B0C000200F4E060034343F0BF635E
:101B700043F40033D360704700ED00E010B5044635
:101B8000054BD868C0F30220FFF7C6FF0146204688
:101B9000FFF7AEFF10BD00BF00ED00E00138B0F16F
:101BA000807F0BD24FF0E0235861054AF02182F884
:101BB00023100020986107221A61704701207047A6
:101BC00000ED00E000230F2B00F2EC8030B583B075
:101BD00068E085684FEA430E032404FA0EF425EA10
:101BE0000405CC6804FA0EF42C438460446824EAAB
:101BF00002044A68C2F300129A40224342605FE046
:101C0000DC08083450F8242003F00705AD004FF03D
:101C10000F0E0EFA05FE22EA0E0E0A69AA4042EAEB
:101C20000E0240F824205FE0072200E0002202FAC2
:101C30000EF22A4302345C4D45F824205B4A946836
:101C40006FEA0C0224EA0C05D1F804E01EF4801FB0
:101C500001D04CEA0405554CA560E46802EA04058D
:101C6000D1F804E01EF4001F01D04CEA04054F4CEB
:101C7000E560646802EA0405D1F804E01EF4003F60
:101C800001D04CEA0405494C6560246822404D6847
:101C900015F4803F01D04CEA0402444C2260013329
:101CA0000F2B7DD801229A400C6804EA020C32EA1C
:101CB0000404F4D14C6804F00304013C012C88D9DD
:101CC0004A6802F00302032A09D0C4685D000322B7
:101CD000AA4024EA02048A68AA402243C2604A68F1
:101CE00002F00302022A8BD004684FEA430E03225B
:101CF00002FA0EF224EA02044A6802F0030202FA2F
:101D00000EF2224302604A6812F4403FC7D000221C
:101D10000192274A546C44F480445464526C02F497
:101D200080420192019A9C08A51C1F4A52F8255036
:101D300003F0030E4FEA8E0E0F2202FA0EF225EA8E
:101D400002051C4A90423FF471AF02F58062904256
:101D50001AD002F58062904218D002F5806290425B
:101D600016D002F58062904214D002F58062904253
:101D700012D002F58062904210D002F5806290424B
:101D80003FF452AF082252E7012250E702224EE709
:101D900003224CE704224AE7052248E7062246E7E9
:101DA00003B030BD704700BF00380140003C014027
:101DB00000380240000002400AB181617047090406
:101DC0008161704703685A6912F4806F01D1002065
:101DD00070476FF480625A6100230363202280F809
:101DE0003D2080F83E30026C42F00402026480F82C
:101DF0003C30012070472DE9F04107460D469046E2
:101E00001E4624E0FFF75AFE069BC01AB04200D8D7
:101E1000EEB900233B63202287F83D2087F83E304F
:101E20003A6C42F020023A6487F83C3001201EE010
:101E30003B689C6925EA040C1FFA8CFCBCFA8CFCFC
:101E40004FEA5C1CE04511D1B6F1FF3FDAD1C5F392
:101E50000743012BECD13B685B6925EA030C1FFAB1
:101E60008CFCBCFA8CFC4FEA5C1CEBE70020BDE864
:101E7000F0812DE9F04105460E46174698463DE0B3
:101E80001A6842F400721A602B686FF480625A611B
:101E900000232B63202285F83D2085F83E302A6CF4
:101EA00042F004022A6485F83C30012034E0FFF758
:101EB00005FEA0EB0800B84200D8FFB900232B6351
:101EC000202285F83D2085F83E302A6C42F0200221
:101ED0002A6485F83C3001201EE02B689C6926EAC4
:101EE0000404A4B2003C18BF0124A4B12B685A69B1
:101EF00012F4806FC4D1B7F1FF3FD8D1C6F30743C6
:101F0000012BEAD12B685C6926EA0404A4B2003CE8
:101F100018BF0124E9E70020BDE8F08170B5044650
:101F20000D46164623685B6913F0800F1CD12046CE
:101F3000FFF748FFD0B9B5F1FF3FF3D0FFF7BEFD83
:101F4000801BA84201D8002DECD10023236320225E
:101F500084F83D2084F83E30226C42F02002226456
:101F600084F83C30012000E0002070BD0120FCE737
:101F70002DE9F04385B004460D4691461F46DDF835
:101F800030800D9E0368196841F4807119600096D5
:101F9000434600224FF00111FFF72DFF60B923687F
:101FA00005F0FE051D613346424626492046FFF7EF
:101FB00060FF68B1012008E023681B6813F4807F8C
:101FC00002D04FF400732364032005B0BDE8F08312
:101FD0000023039323685A6903929B690393039B2D
:101FE000324641462046FFF799FF30B9012F0FD105
:101FF00023685FFA89F61E61E7E7236C042B01D0A2
:102000000120E2E72268136843F400731360F7E7E6
:1020100023684FEA19221A61324641462046FFF7EB
:102020007DFF20B923685FFA89F61E61CDE7236C36
:10203000042B01D00120C8E72268136843F4007321
:102040001360F7E7020001002DE9F04784B0044671
:102050000D46164699460C9FDDF8348002681368D9
:1020600043F4806313600368196841F48071196058
:10207000CDF800803B4600224FF00111FFF7BBFE78
:1020800070B95FFA85FA236805F0FE051D614346C5
:102090003A4641492046FFF7ECFE68B1012008E0CE
:1020A00023681B6813F4807F02D04FF4007323640D
:1020B000032004B0BDE8F0870023039323685A6926
:1020C00003929B690393039B424639462046FFF7E0
:1020D00025FF80B9B9F1010F18D12368F6B21E614E
:1020E000424639462046FFF719FF68B3236C042B9C
:1020F00024D00120DDE7236C042B01D00120D8E798
:102100002268136843F400731360F7E72368320A08
:102110001A61424639462046FFF700FF18B9236886
:10212000F6B21E61DCE7236C042B01D00120C0E76E
:102130002268136843F400731360F7E7226813689A
:1021400043F400731360D4E72268136843F4807388
:102150001360CDF800803B4600224FF0011120466D
:10216000FFF749FE68B922684AF00103136143464C
:102170003A4609492046FFF77CFE002899D0012005
:1021800097E723681B6813F4807F02D04FF4007335
:10219000236403208DE700BF0200010070B50446F0
:1021A0000D46164623685B6913F0040F1CD12046C8
:1021B000FFF708FED0B9B5F1FF3FF3D0FFF77EFC83
:1021C000801BA84201D8002DECD1002323632022DC
:1021D00084F83D2084F83E30226C42F020022264D4
:1021E00084F83C30012000E0002070BD0120FCE7B5
:1021F00070B505460C4616462B68596911F0400F1C
:1022000029D1596911F0100F15D1FFF757FC801B28
:10221000A04201D8002CEFD100232B63202285F8A7
:102220003D2085F83E302A6C42F020022A6485F871
:102230003C30012070BD6FF010025A6100232B6307
:10224000202285F83D2085F83E302A6C2A6485F8E6
:102250003C300120EEE70020ECE70000002800F011
:10226000CC8070B5044690F83D30002B77D0242305
:1022700084F83D302268136823F00103136022685C
:10228000136843F4004313602268136823F4004387
:10229000136000F005FE62685A4B9A4264D85A4BAC
:1022A00098428CBF00230123002B40F0A88057499F
:1022B000A1FB00318B0C25686A6822F03F0242EADC
:1022C00091426A6021680A6A22F03F0266684D4DB9
:1022D000AE424FD8013313430B622168CA6922F41E
:1022E0004F4222F0FF026568464B9D424CD8431E88
:1022F0006D00B3FBF5F3013340F6FC70034278D078
:10230000C3F30B031A43CA6121680B6823F0C003AF
:10231000E269206A024313430B6021688B6823F44F
:10232000034323F0FF032269E068024313438B60F9
:102330002168CB6823F0FF036269A069024313435D
:10234000CB602268136843F001031360002020640F
:10235000202384F83D30206384F83E0070BD80F86F
:102360003C30FFF797F982E7294B98428CBF002356
:10237000012399E74FF4967505FB03F3254DA5FB63
:1023800003539B090133A6E7A668BEB9431E05EBBC
:10239000450CB3FBFCF30133C3F30B03B3FA83F334
:1023A0005B0943BBC6B9431E05EB4505B3FBF5F31B
:1023B0000133C3F30B0343F40043A3E7431E05EBD0
:1023C000850C0CEB8C0CB3FBFCF30133C3F30B0358
:1023D000B3FA83F35B09E4E7431E05EB850505EBE0
:1023E0008505B3FBF5F30133C3F30B0343F440431B
:1023F00088E7042386E7012384E701207047012052
:10240000ACE700BFA08601007F841E0083DE1B4373
:10241000FF083D00D34D62102DE9F04383B0044620
:102420000F46904699460C9EFFF748FB054694F8E8
:102430003D00C0B2202803D0022003B0BDE8F083E5
:102440000095192301224B492046FFF7D4FC0028B0
:1024500040F0898094F83C30012B00F08680012305
:1024600084F83C3023681A6812F0010F03D11A680F
:1024700042F001021A602268136823F400631360BB
:10248000212384F83D30402384F83E300023236428
:102490000A9B6362BDF82C306385638D2385364BC0
:1024A000E362019500964B46424639462046FFF7C7
:1024B0005FFD00285BD1238D002B35D02A463146A5
:1024C0002046FFF72BFD20BB626A236812781A6151
:1024D000626A531C6362218D013989B22185638D43
:1024E0009BB2013B9BB263852368586910F0040FCF
:1024F000E1D00029DFD052781A61636A0133636248
:10250000238D013B2385638D9BB2013B9BB2638589
:10251000D1E7236C042B01D001208EE722681368D9
:1025200043F400731360F7E72A4631462046FFF76D
:1025300035FE50B1236C042B01D001207DE72268C9
:10254000136843F400731360F7E72268136843F4D9
:1025500000731360202384F83D30002384F83E305C
:1025600084F83C3069E7022067E7022065E7012034
:1025700063E700BF020010000000FFFF2DE9F043F9
:1025800087B004460F4690469946109EFFF796FA8C
:10259000054694F83D00C0B2202804D002273846F2
:1025A00007B0BDE8F0830095192301228849204631
:1025B000FFF721FC002840F0438194F83C30012BC8
:1025C00000F04081012384F83C3023681A6812F03F
:1025D000010F03D11A6842F001021A6022681368E1
:1025E00023F400631360222384F83D30402384F8F1
:1025F0003E30002323640E9B6362BDF83C3063854C
:10260000638D2385734BE362019500964B464246EA
:1026100039462046FFF718FD0746002840F0148190
:10262000238D5BB9029323685A6902929A690292D8
:10263000029A1A6842F400721A6075E0012B0AD0FF
:10264000022B1AD00023059323685A6905929B69CF
:102650000593059B68E02268136823F48063136088
:102660000023039323685A6903929A690392039A99
:102670001A6842F400721A6056E02268136823F464
:10268000806313602268136843F4006313600023BF
:10269000049323685A6904929B690493049B43E062
:1026A0002A4631462046FFF7A3FD002840F0CE80A1
:1026B00023681A69636A1A70636A01336362238D3F
:1026C000013B2385638D9BB2013B9BB263852BE06D
:1026D00000953346002240492046FFF78CFB002836
:1026E00040F0B6802268136843F4007313602368D7
:1026F0001A69636A1A70626A531C6362238D013B14
:102700002385638D9BB2013B9BB2638523681B6964
:102710005370636A01336362238D013B2385638DAC
:102720009BB2013B9BB26385238D002B7FD0032B93
:1027300054D8012BB4D0022BCAD0009533460022C6
:1027400025492046FFF757FB002840F08380226888
:10275000136823F48063136023681A69636A1A702C
:10276000636A01336362238D013B2385638D9BB2D2
:10277000013B9BB2638500953346002216492046F3
:10278000FFF739FB002867D12268136843F4007310
:10279000136023681A69636A1A70626A531C636261
:1027A000238D013B2385638D9BB2013B9BB26385E7
:1027B00023681B695370636A01336362238D013B95
:1027C0002385638D9BB2013B9BB26385ACE700BF61
:1027D000020010000000FFFF040001002A463146FD
:1027E0002046FFF705FD002838D123681A69636A7F
:1027F0001A70626A531C6362238D013B2385638DCB
:102800009BB2013B9BB263852368596911F0040FA9
:102810008AD01B695370636A01336362238D013B65
:102820002385638D9BB2013B9BB263857CE72023AC
:1028300084F83D30002384F83E3084F83C30AEE626
:102840000227ACE60227AAE60127A8E60127A6E6AA
:102850000127A4E60127A2E60127A0E601279EE6BC
:10286000002800F0E08170B582B00446036813F0E0
:10287000010F3BD09F4B9B6803F00C03042B2CD023
:102880009C4B9B6803F00C03082B21D06368B3F5C5
:10289000803F4FD0B3F5A02F52D0964B1A6822F448
:1028A00080321A601A6822F480221A606368002B52
:1028B00050D0FFF703F905468E4B1B6813F4003F19
:1028C00014D1FFF7FBF8401B6428F5D90320B1E1D0
:1028D000884B5B6813F4800FD8D0864B1B6813F4C9
:1028E000003F03D06368002B00F09F81236813F042
:1028F000020F54D07F4B9B6813F00C0F3ED07D4BE2
:102900009B6803F00C03082B33D0E368002B68D0DE
:10291000794B01221A60FFF7D1F80546754B1B6809
:1029200013F0020F54D1FFF7C9F8401B0228F5D964
:1029300003207FE16F4A136843F480331360B5E7E7
:102940006C4B1A6842F480221A601A6842F4803292
:102950001A60ABE7FFF7B2F80546664B1B6813F445
:10296000003FC3D0FFF7AAF8401B6428F5D9032025
:1029700060E1604B5B6813F4800FC6D15D4B1B6850
:1029800013F0020F03D0E368012B40F05081594A45
:10299000136823F0F803216943EAC1031360236835
:1029A00013F0080F42D063696BB3534B0122C3F895
:1029B000802EFFF783F805464E4B5B6F13F0020F36
:1029C00034D1FFF77BF8401B0228F5D9032031E111
:1029D000484A136823F0F803216943EAC1031360EE
:1029E000DDE7454B00221A60FFF768F80546414BCA
:1029F0001B6813F0020FD2D0FFF760F8401B0228CB
:102A0000F5D9032016E13C4B0022C3F8802EFFF7D6
:102A100055F80546374B5B6F13F0020F06D0FFF7F2
:102A20004DF8401B0228F5D9032003E1236813F079
:102A3000040F77D02F4B1B6C13F0805F33D1002332
:102A400001932C4B1A6C42F080521A641B6C03F0F9
:102A500080530193019B0125284B1B6813F4807F51
:102A600023D0A368012B34D0052B38D0214B1A6F0B
:102A700022F001021A671A6F22F004021A67A36893
:102A8000002B3DD0FFF71AF806461A4B1B6F13F0C8
:102A9000020F46D1FFF712F8801B41F288339842AB
:102AA000F3D90320C6E00025D6E7144A136843F49F
:102AB00080731360FFF702F80646104B1B6813F48F
:102AC000807FCED1FEF7FAFF801B0228F5D90320C4
:102AD000B0E0084A136F43F001031367CFE7054BDB
:102AE0001A6F42F004021A671A6F42F001021A6765
:102AF000C5E700BF003802400000474200700040B8
:102B0000FEF7DCFF0646524B1B6F13F0020F08D096
:102B1000FEF7D4FF801B41F288339842F3D903209B
:102B200088E0EDB9A369002B00F08380484A9268E1
:102B300002F00C02082A51D0022B17D0454B00227C
:102B40001A66FEF7BBFF0446414B1B6813F0007F7B
:102B500042D0FEF7B3FF001B0228F5D9032069E03D
:102B60003B4A136C23F080531364DBE7394B00229C
:102B70001A66FEF7A3FF0546354B1B6813F0007F6E
:102B800006D0FEF79BFF401B0228F5D9032051E039
:102B9000E369226A1343626A43EA8213A26A520813
:102BA000013A43EA0243E26A43EA0263284A536075
:102BB000284B01221A66FEF781FF0446244B1B684E
:102BC00013F0007F06D1FEF779FF001B0228F5D92C
:102BD00003202FE000202DE000202BE0012B2BD044
:102BE0001B4B5B6803F48001E269914226D103F03C
:102BF0003F02216A8A4223D1616A47F6C0721A40B5
:102C0000B2EB811F1ED103F44031A26A5208013A8F
:102C1000B1EB024F18D103F07063E26AB3EB026FBD
:102C200014D1002006E001207047012002E00120BD
:102C300000E0002002B070BD0120FBE70120F9E7B1
:102C40000120F7E70120F5E70120F3E70120F1E794
:102C5000003802400000474208B5334B9B6803F040
:102C60000C03042B5BD0082B5BD12F4B5A6802F06E
:102C70003F025B6813F4800F2CD02B4B5868C0F3D5
:102C800088104FEA401CBCEB000C6EEB0E0E4FEAB6
:102C90008E1343EA9C634FEA8C11B1EB0C0163EB9A
:102CA0000E03DB0043EA5173C90011EB000C43F142
:102CB0000003590200234FEA4C2041EADC51FDF7A2
:102CC000FDFD194B5B68C3F3014301335B00B0FBAF
:102CD000F3F027E0144B5868C0F388104FEA401C0B
:102CE000BCEB000C6EEB0E0E4FEA8E1343EA9C63B6
:102CF0004FEA8C11B1EB0C0163EB0E03DB0043EAEE
:102D00005173C90011EB000C43F100039902002339
:102D10004FEA8C2041EA9C51FDF7D0FDD1E70348F2
:102D200000E0034808BD00BF0038024000127A00EE
:102D30000024F400002800F09B8070B50D46044686
:102D40004F4B1B6803F007038B4208D2CBB24C4AAF
:102D50001370136803F007038B4240F08B802368E5
:102D600013F0020F17D013F0040F04D0454A9368F4
:102D700043F4E0539360236813F0080F04D0414AF2
:102D8000936843F4604393603E4A936823F0F003F2
:102D9000A1680B439360236813F0010F32D063687E
:102DA000012B21D09A1E012A25D9364A126812F029
:102DB000020F61D033498A6822F0030213438B600B
:102DC000FEF77CFE06462F4B9B6803F00C036268FF
:102DD000B3EB820F16D0FEF771FE801B41F28833F1
:102DE0009842F0D9032042E0264A126812F4003FCC
:102DF000E0D101203BE0234A126812F0007FD9D1D4
:102E0000012034E01E4B1B6803F00703AB4207D9D7
:102E1000EAB21B4B1A701B6803F00703AB422DD1BB
:102E2000236813F0040F06D0164A936823F4E05386
:102E3000E1680B439360236813F0080F07D0114A31
:102E4000936823F46043216943EAC1039360FFF769
:102E500003FF0C4B9B68C3F303130B4AD35CD840AE
:102E60000A4B18600A4B1868FEF7DCFD002070BDA5
:102E7000012070470120FAE70120F8E70120F6E77A
:102E8000003C02400038024008B000080400002066
:102E90000C000020014B1868704700BF04000020A0
:102EA00008B5FFF7F7FF044B9B68C3F38223034A7F
:102EB000D35CD84008BD00BF0038024000B0000815
:102EC00008B5FFF7E7FF044B9B68C3F34233034A9F
:102ED000D35CD84008BD00BF0038024000B00008F5
:102EE00010B504460268136923F44053C1680B43CC
:102EF0001361836802691A4343691A43C3691A4319
:102F00000168CB6823F4164323F00C031343CB6012
:102F10000268536923F4407381690B43536103686A
:102F2000314A934206D002F58062934202D0FFF705
:102F3000B7FF01E0FFF7C4FFE369B3F5004F29D005
:102F40000021031849411B1841F10001C90041EA61
:102F50005371DB00181863684FEA83024FEA9373DA
:102F600041F10001FDF7AAFC204AA2FB003149090A
:102F7000642303FB11031B013233A2FB03235B0910
:102F800003F0F00202EB011203F00F032168134477
:102F90008B6010BD0023021843EB0301121841F1AE
:102FA0000001C90041EA5271D200101841F100013C
:102FB000626892185B41FDF781FC0C4AA2FB00316C
:102FC0004909642303FB1103DB003233A2FB032313
:102FD0005B095A0002F4F87202EB011203F00703D6
:102FE000216813448B60D4E7001001401F85EB512A
:102FF0002DE9F84305460F4616469946DDF8208030
:103000002B681C6837EA04040CBF01240024B44276
:103010002DD1B8F1FF3FF3D0B8F1000F05D0FEF786
:103020004DFDA0EB09004045EAD92A6802F10C03E6
:1030300053E8003F23F4D0730C3242E800310029FA
:10304000F3D12A6802F1140353E8003F23F001038F
:10305000143242E800310029F3D1202385F83D30B5
:1030600085F83E30002385F83C30032000E0002046
:10307000BDE8F88358B310B5044690F83D300BB363
:10308000242384F83D302268D36823F40053D360AE
:103090002046FFF725FF2268136923F4904313614C
:1030A0002268536923F02A0353612268D36843F4EA
:1030B0000053D36000202064202384F83D3084F83E
:1030C0003E3010BD80F83C30FEF720FCD8E70120F0
:1030D00070472DE9F04182B01E4690F83D30DBB2DA
:1030E000202B54D104460D469046002953D0002A87
:1030F00053D090F83C30012B51D0012380F83C3064
:1031000000230364212380F83D30FEF7D7FC0746F7
:10311000A4F82480A4F82680A368B3F5805F05D0C6
:103120004FF00008002384F83C3012E0236913B10B
:103130004FF00008F6E7A8460025F3E738F8023B11
:103140002268C3F308035360E28C92B2013A92B250
:10315000E284E38C9BB273B100963B46002280214F
:103160002046FFF745FFE0B9002DE7D015F8012B09
:1031700023685A60E8E700963B460022402120463B
:10318000FFF736FF78B9202384F83D3000E00220B5
:1031900002B0BDE8F0810120FAE70120F8E7022043
:1031A000F6E70320F4E70320F2E72DE9F04182B0CF
:1031B0001E4690F83E30DBB2202B5CD104460D4613
:1031C000904600295BD0002A5BD090F83C30012B60
:1031D00059D0012380F83C3000230364222280F878
:1031E0003E200363FEF76AFC0746A4F82C80A4F88F
:1031F0002E80A368B3F5805F05D04FF00008002350
:1032000084F83C3017E0236913B14FF00008F6E76B
:10321000A8460025F3E723685B68C3F3080328F892
:10322000023B03E023685B682B700135E28D92B2AC
:10323000013A92B2E285E38D9BB2BBB100963B4668
:10324000002220212046FFF7D3FEF0B9002DE2D066
:10325000A368B3F5805FE5D013B92369002BE1D0F3
:1032600023685B6803F07F032B70DEE7202384F87C
:103270003E30002000E0022002B0BDE8F0810120D5
:10328000FAE70120F8E70220F6E70320F4E708B5A3
:1032900000F00AF908BD000000238B4240D210B4B0
:1032A00008E0204C227842F0010222700130013304
:1032B0008B4233D2A0F13602092A29D80FF2040C2E
:1032C0005CF822F0A3320008113300081133000823
:1032D000ED3200081133000811330008F9320008FC
:1032E0001133000811330008053300080D4C227813
:1032F00042F002022270D9E70A4C227842F008021A
:103300002270D3E7074C227842F004022270CDE706
:10331000044C227842F080022270C7E710BC70474C
:10332000704700BF4D0A002008B5FEF7CDFB08BD71
:1033300010B50E4C012202212046FEF73DFD012270
:1033400011462046FEF738FD0520FEF7BDFB0022A2
:1033500002212046FEF730FD0520FEF7B5FB0022D6
:1033600001212046FEF728FD10BD00BF00140240D9
:1033700010B50E4C002202212046FEF71DFD002252
:1033800001212046FEF718FD0520FEF79DFB0122D6
:1033900002212046FEF710FD012211462046FEF7CD
:1033A0000BFD0520FEF790FB10BD00BF001402408E
:1033B000F0B585B005460E4617461C46FFF7B8FF28
:1033C0004FF47A730293A4B201940097012332461A
:1033D00029460848FFF7D2F8074B187018B14FF08C
:1033E000FF3005B0F0BD0520FEF76EFBFFF7C0FF14
:1033F0000120F6E724090020090A00200BB900206B
:103400007047F0B585B007460C4615461E46FFF7D7
:103410008FFF4FF47A730293B6B2019600950123A1
:10342000224639460748FEF7F7FF074C2070FFF7A2
:103430009FFF237813B9012005B0F0BD4FF0FF3096
:10344000FAE700BF24090020080A002070B5002612
:103450007E2E19DCF1B20320FEF7BAF802240E4DDD
:1034600000232B7003213420FDF7E0FF0A20FEF734
:103470002BFB2B781BB9013CF1D10136E8E7314633
:10348000064801F0C9FA70BD054801F025FB054862
:1034900001F022FBF7E700BF4D0A002018B000083A
:1034A00034B000084CB0000808B550210320FEF7E6
:1034B0008FF80848FDF7B0FF07490848FDF79AFF65
:1034C0000748FEF799F8074801F006FBFFF7BEFF33
:1034D00008BD00BF99320008B1330008FD33000871
:1034E000293300086CB000082DE9F04184B005468E
:1034F00006213420FDF79AFF0A20FFF715FF2F4B16
:103500001B78002B40D104B0BDE8F08104F13403F6
:103510002B4E36F91300FDF77DF94FF06051FCF7A3
:103520004FFE4FF08341FCF74BFE45F8240004F1B9
:10353000370336F91300FDF76DF94FF06051FCF7D2
:103540003FFEE61C1F49FCF73BFE45F82600013410
:10355000022CDBDD1C4B1B78C3B92E696F69E86850
:10356000FDF746F804460D463846FDF741F8CDE92B
:1035700002013046FDF73CF8CDE9000122462B461A
:10358000124801F049FABEE70024E1E76C68D5F87B
:1035900008802868FDF72CF806460F464046FDF7E0
:1035A00027F8CDE902012046FDF722F8CDE9000118
:1035B00032463B46064801F02FFACEE74D0A00207E
:1035C000E00600200000FA444C0A0020C8B00008C1
:1035D000B0B000082DE9F04186B005460421512025
:1035E000FDF724FF0A20FFF79FFE00240DE004F101
:1035F0005102194B33F91200FDF70CF94FF06051ED
:10360000FCF7DEFD45F824000134032CEFDD134BFD
:103610001B7813B906B0BDE8F0816E68AF68D5F8C5
:103620000C802868FCF7E4FF04460D464046FCF792
:10363000DFFFCDE904013846FCF7DAFFCDE90201EE
:103640003046FCF7D5FFCDE9000122462B46044861
:1036500001F0E2F9DEE700BFE00600204C0A00209E
:10366000E0B00008F0B585B0054603213A20FDF72B
:10367000DDFE0A20FFF758FE002409E004F13A02BB
:10368000124B33F91200FDF7C5F845F82400013458
:10369000022CF3DD0E4B1B780BB905B0F0BD6E6844
:1036A000AF682868FCF7A4FF04460D463846FCF7CF
:1036B0009FFFCDE902013046FCF79AFFCDE90001FA
:1036C00022462B46034801F0A7F9E6E7E006002072
:1036D0004C0A002000B10008F0B585B00546032172
:1036E0003D20FDF7A3FE0A20FFF71EFE002410E098
:1036F00004F13D02164B33F91200FDF78BF84FF041
:103700006051FCF75DFD1349FCF75AFD45F82400B4
:103710000134022CECDD104B1B780BB905B0F0BD69
:103720006E68AF682868FCF763FF04460D463846AC
:10373000FCF75EFFCDE902013046FCF759FFCDE909
:10374000000122462B46054801F066F9E6E700BF76
:10375000E0060020000034434C0A002018B10008A5
:1037600010B5094B01221A70084C2046FFF77AFF6A
:1037700004F10C00FFF7B0FF0548FFF72BFF0548E9
:10378000FFF7B2FE10BD00BF4C0A00201C0A00204B
:103790000C0A0020340A002008B5054B1860054BC0
:1037A0001868002302221946806801F09DF908BDBF
:1037B000500A00201C000020022801D80120704778
:1037C00008B501F095FB09230360002008BD000047
:1037D00010B5013801280AD814464FF0FF3392B2D1
:1037E00007480068FFF775FC40B9204610BD01F09E
:1037F0007FFB092303604FF0FF30F7E70520F5E773
:10380000500A0020022801D80020704708B501F0B6
:103810006FFB092303604FF0FF3008BD08B501F0CE
:1038200067FB092303604FF0FF3008BD08B548B9B6
:103830004FF0FF33012208480068FFF7B6FC40B99B
:10384000012008BD01F054FB092303604FF0FF3055
:10385000F7E70520F5E700BF500A002008B5022869
:1038600004D84FF400534B60002008BD01F040FB2A
:1038700009230360F8E700002DE9F047089D0C4696
:10388000002B4ED194468C458646B2FA82F262D91C
:103890004AB1C2F12003914020FA03F30CFA02FC72
:1038A000194300FA02FE4FEA1C471FFA8CF6B1FBDF
:1038B000F7F44FEA1E4307FB141143EA014304FBEC
:1038C00006F199420AD91CEB030304F1FF3080F0A2
:1038D0001281994240F20F81023C6344591A1FFA47
:1038E0008EF3B1FBF7F007FB101143EA014300FB35
:1038F00006F69E420AD91CEB030300F1FF3180F06B
:10390000FC809E4240F2F980634402389B1B40EAEF
:10391000044000211DB1D3400022C5E90032BDE8BA
:10392000F0878B4205D90DB1C5E900010021084699
:10393000F5E7B3FA83F1002946D1A34202D39042BE
:10394000C0F0F080861A64EB03030120002DE6D05E
:10395000C5E90063E3E7002A40F09080A1EB0C0486
:103960004FEA1C481FFA8CF70121B4FBF8F64FEA26
:103970001E4308FB164443EA044307FB06F0984243
:1039800008D91CEB030306F1FF3402D2984200F27F
:10399000CD8026461C1A1FFA8EF3B4FBF8F008FB04
:1039A000104443EA044300FB07F79F4208D91CEB8D
:1039B000030300F1FF3402D29F4200F2B0802046A0
:1039C000DB1B40EA0640A5E7C1F120068B4022FA46
:1039D00006F71F4320FA06FC04FA01F343EA0C033E
:1039E000F44000FA01F8380C4FEA1349B4FBF0FE3A
:1039F0001FFA87FC00FB1E4449EA04440EFB0CF945
:103A0000A14502FA01F20AD93C190EF1FF3A80F001
:103A10008480A14540F28180AEF1020E3C44A4EBCB
:103A200009041FFA83F9B4FBF0F300FB134449EADD
:103A3000044403FB0CFCA44507D93C1903F1FF30F7
:103A400067D2A44565D9023B3C4443EA0E40A0FB43
:103A50000293A4EB0C049C42CE469C4651D34ED01C
:103A600055B1B8EB0E0364EB0C0404FA06F6CB4038
:103A70001E43CC40C5E90064002150E7C2F1200399
:103A800020FA03F10CFA02FC24FA03F394400C43ED
:103A90004FEA1C4800FA02FE1FFA8CF7B3FBF8F05D
:103AA00008FB1031230C43EA014300FB07F1994264
:103AB00008D91CEB030300F1FF362CD299422AD916
:103AC000023863445B1AA4B2B3FBF8F108FB11336C
:103AD00044EA034401FB07F3A34208D91CEB0404A6
:103AE00001F1FF3613D2A34211D902396444E41A1A
:103AF00041EA004139E70446F0E6084606E7C845D2
:103B0000AED2B9EB020E63EB070C0138A8E73146E1
:103B1000EDE7034699E73046D4E7D6467FE76344AE
:103B200002384DE70646234608460FE7023E634447
:103B300030E700BF03685A004CBF43F0004323F056
:103B400000431844704700BF2DE9F84349B34F1EA6
:103B5000044615463E464FF0000909EB060101EB0D
:103B6000D171491004EBC1084046FFF7E3FF8F42D3
:103B700003464FEAC1000FD00830AB42204407D8BB
:103B8000FFF7D8FF0138A84208D201F10109E4E7A4
:103B9000894506D04E1EE0E7AB42F9D84046BDE865
:103BA000F8834FF000084046BDE8F883012807D0AD
:103BB000022807D0044B00280CBF1846002070478D
:103BC00002487047024870475942000861420008A5
:103BD0006942000830B5214B83B004468D1E1BB3EB
:103BE00001A92846AFF3008088B301992A46FFF760
:103BF000ABFF014658B3FFF79DFF4B68A064012B54
:103C000028D0002B01F104001FDBFFF793FF0023F6
:103C100023650368E064002B0DDBFFF78BFF034691
:103C20000020236103B030BD0D4B0E49C91AC910E5
:103C300018460191DAE7C3F30360FFF7B7FF0346C5
:103C400028B10020236103B030BD0123E0E7002349
:103C50000920E6E700230520E3E700BF000000009D
:103C600040B5000828B600080368DA0710B5044616
:103C700006D49B0700F1480009D5FCF74BFE2368EA
:103C8000590709D51A070ED5DB0613D510BDFCF769
:103C900039FE23685907F5D404F1D000FCF742FE41
:103CA00023681A07F0D404F5A870FCF743FE2368D4
:103CB000DB06EBD404F5E870BDE81040FCF77EBEEF
:103CC0000346006800B11844704700BF704700BF4A
:103CD00070B504460E46316C2046FFF77BFF054663
:103CE00088B9326C626123693246214601209847C7
:103CF0000828F0D0072806D12846316CFFF7E6FFE8
:103D0000301DFCF7F3FDFFDE2DE9F0470D1DD0F867
:103D10000C80D0F81890074614460FCDADF5727D93
:103D20000DF10C0CACE80F000FCDACE80F000FCD7F
:103D3000ACE80F0095E80F0002AE4FF0000E8CE8E3
:103D40000F00C6F800E020E0336C7B614FF4F072A6
:103D500031467AA8FCF7A2FE3B697AAA394650465A
:103D60009847889B73642146CDE9006905463B4628
:103D70003A460120C047044618BB4FF4F0727AA9B6
:103D80003046FCF78BFE082D19D1316C3846FFF711
:103D900021FF09345FFA84FA05460028D4D0B36BBA
:103DA00073643A46CDE900693B464AF010010120B0
:103DB000C04730B928460DF5727DBDE8F087072D64
:103DC00005D0092528460DF5727DBDE8F08720460F
:103DD000316CFFF77BFF03A8FCF788FDF0B5CB6BD8
:103DE0000B6401F1040C0E460546BCE80F00F9B067
:103DF00001AC0FC4BCE80F000FC4BCE80F000FC437
:103E00009CE80F004FF0FF3784E80F00009706E0B2
:103E10002B696A46294698470828044608D1109914
:103E20002846FFF7D7FE0028F2D0092079B0F0BD70
:103E30006846FFF719FF062CF7D131462846FFF7F1
:103E400047FF00BFC160D96B826119640022194627
:103E5000FFF75ABF70B5C66843690B64AEB9036912
:103E60000A4604460D46014602209847072805D019
:103E700008280ED129462046FFF72AFF3046296C34
:103E8000FFF724FF281DFCF731FD0122FFF73CFF5F
:103E9000FFDEFFDEC26822B1CA6B0A640022FFF7B0
:103EA00033BFFFF79BBF00BF012910D009D883B9EA
:103EB0000F2A0ED800EB820218465368009A13604E
:103EC0007047033901298CBF022001207047084642
:103ED00070470220704700BF00B585B00A46002336
:103EE00003A900911946FFF7DFFF039805B05DF8BD
:103EF00004FB00BF012910D009D883B90F2A0ED8BE
:103F0000009900EB82020968516018467047033936
:103F100001298CBF0220012070470846704702200B
:103F2000704700BF10B584B0002303AC0392009427
:103F30000A461946FFF7DEFF04B010BD70B5D36B1B
:103F4000136402F1040C05460C46BCE80F00ADF505
:103F50000E7D0DF15C0EAEE80F00BCE80F00AEE880
:103F60000F00BCE80F00AEE80F009CE80F004FF018
:103F7000FF368EE80F00169610E0FFF7D3FF2146BC
:103F800016A8A847034616AA6946082083B9049BC9
:103F90009847052806460CD0092809D02699684676
:103FA000FFF718FE03466A460C2116A8002BE4D042
:103FB000092616A8FFF758FE30460DF50E7D70BD98
:103FC0002DE9F04F9346CA6C89B00D4652F8041B98
:103FD000069200F0030C002B79D00C0C8DF81D40DC
:103FE0000904E4B2059102EB840202212F6D8DF8E1
:103FF0001C10BCF1020F08BFAA6B17F001070CD010
:1040000005A9584600F0A4FA18B9082009B0BDE87F
:10401000F08F092009B0BDE8F08F1668002EEFD0B0
:1040200000F008010191B246029764469946B9F141
:10403000020F48D0B2F800A0568802F10408AA6C1A
:1040400026F001030F2158469F18FFF745FF8742CE
:1040500037D82AF001023A44824294BF002201225A
:10406000730003F002030AF0010A43EA0A03012B7A
:1040700047D0022B31D0002BCBD114B1002A40F015
:10408000C98008F10402D2F800A0BAF1000FCED125
:1040900005A95846029F00F05BFA0028B9D1002F0D
:1040A000B3D00F215846FFF717FF0E21024658469E
:1040B000FFF738FF674A0F215846FFF733FF072005
:1040C000A8E70022CCE7566802F10808B7E7090222
:1040D00005918DF81D30032188E7D8F8006026F09F
:1040E0000043002C44D122B1019A002A5AD0002B5F
:1040F00058D0002E01DA08F10408013308EB8302DE
:10410000C1E7ECB9CAB1D8F80430D8F80020991C3E
:104110004FEAD2723FF47DAF05F1580101330491AB
:1041200000F08B8008F10400FFF7CAFD04AB0146E4
:104130002846AFF30080002857D108F10802A2E713
:104140000D215846FFF7C8FE2B6A8342F5D1AB6AB2
:104150009845F2D14046FFF7EDFC0F210246584644
:10416000FFF7E0FE2A4600215846FFF7DBFEA6E7F0
:104170000D2158460393FFF7AFFE2A6A039B824244
:10418000B7D1AA6A9045B4D100270422C5E90B72C1
:104190004244AB626A63D8F80020BA4255DB012280
:1041A0000292AAE7039408F1040A002605F15807D1
:1041B0001C460DE050460497FFF782FD00220146A1
:1041C00004AB284601360AF1040AAFF30080E0B9D7
:1041D000A642EFD10D215846FFF77EFE049BC5F89D
:1041E0002880C5E90803062014E704460D21584637
:1041F000FFF772FE049E2862022C04BFEE6205F1F6
:104200002C06C5E90968062004E72346D8F80060B3
:10421000039C6EE74046FFF78DFC08F1040204465C
:10422000AA632846AFF3008000283FF4F2AE22468E
:104230000F215846FFF776FE41E70C4658460D2100
:10424000FFF74AFE26462862DBE7581C08EB800091
:1042500081E700BF000000000023FFF7B1BE00BFF0
:104260000123FFF7ADBE00BF0223FFF7A9BE00BFC9
:104270002DE9F0430646C3B015461C46042900F25A
:10428000D180DFE801F0AC51CF2A0300002C40F0D0
:10429000C980102A00F2C6800368DC0600F1E780BE
:1042A00020AF3846FCF794FBB46B394600234FF03F
:1042B000010C0CFA03F22A42204603F1010303D059
:1042C00050F8042B0A600446042B01F10401F0D1DC
:1042D000B4633846FCF772FB99E0032C40F0A280EF
:1042E00094B204EB1243102B4FEA124500F29A806D
:1042F00003681F0700F1C38020AF3846FCF73CFB82
:10430000B26B07EBC50154B10B46D01A01EBC401E7
:10431000E4001D5843F8045B8B42FAD12244B26397
:104320003846FCF707FB72E0012C4FEA124895B2C1
:1043300071D0052C76D108EB0509B9F1200F71D8A1
:10434000B8F10F0F72D8B9F1100F036800F29F8017
:10435000D90708D523F00103304643F0020340F8A3
:10436000483BFCF7DBFA20AF3846FCF7D7FAB36BD3
:10437000002D00F0B9806D006A1E07EBC801002512
:104380000132043903EB820253F8040B41F8040FA5
:104390009342F9D1002D00F0A1804146102938BF89
:1043A00010216B0010396F46013B07EBC10101334F
:1043B000043902EB830352F8040B41F8040F9A42CC
:1043C000F9D1012C00F08880B8F10F0FB26302D848
:1043D00020A8FCF79FFA3846FCF7A4FA17E00CBBBC
:1043E000806B23461FFA82FC0124371D04FA03F177
:1043F00011EA0C0F024604D052F8041B47F82310B0
:1044000010460133102BF1D1AC0400D4B06300206E
:1044100043B0BDE8F08308EB0503102B02D8B8F1D8
:10442000100F14D1022043B0BDE8F083002DEED070
:1044300003685A075CD46F463846FCF777FAB26BCC
:104440006B00A8F11001013B07EBC101AFE7036866
:10445000DA0759D420AF3846FCF758FAB36B002D71
:1044600089D10433B3633846FCF74CFACFE723F025
:104470001003036000F5E870FCF7AAFA10E723F0D8
:104480000803036000F5A870FCF776FA34E7D90753
:1044900008D523F0010343F0020340F8483BFCF742
:1044A0003DFA3368580706D5304623F0040340F838
:1044B000D03BFCF73BFA20AF3846FCF72FFA6846B2
:1044C000FCF734FAC8F110025200B36BA9F11005E1
:1044D000013A07EBC80153E720AFC2E7012CC0D077
:1044E000B8F10F0FB36392D83846FCF713FA8EE792
:1044F00023F0040340F8D03B6F46FCF717FA384628
:10450000FCF714FAB26B9BE7304623F0030340F844
:10451000483BFCF7FBF99DE7027A03467AB9427AF9
:10452000A2B14168013A10B44272086803220C1D1E
:104530001A7202025C60000E10BC1A6070470068BC
:10454000013A1A7202021A60000E7047B0207047DA
:104550002DE9F043064685B00D464FF00008284689
:10456000FFF7DAFFB028044600F0DA80070646D5E8
:1045700000F0F003802B5ED0B02B73D01BD8902BB3
:1045800000F09B80A02B12D1C34303F007034FF42C
:104590007F621A41010702F47F6201D542F4804232
:1045A000002319463046FFF763FE0028D7D00920C4
:1045B00005B0BDE8F083C02B6DD1C62800F0938014
:1045C000C72800F0B28000F0F803C02B00F0D280C2
:1045D000C82800F0DD80C928E9D12846FFF79CFFF4
:1045E000020300F00F0002F47022013002430121A7
:1045F00005233046FFF73CFE0028B0D0D7E7830004
:10460000DBB21F1D0DF10C0900231946CDF80090F7
:104610000D223046FFF748FC039BCDF80090600662
:104620004CBFDF1BFF1800230D22194630460397AD
:10463000FFF760FC93E72846FFF76EFF2402204354
:10464000B0F5004FB3D004010023A2B219463046A2
:10465000FFF70EFE0028AAD114F4004F18BF4FF048
:1046600001087CE7B12851D0B22800F0AD80B32812
:104670006DD000F0FC03B42B99D000F0070201329A
:10468000012342F4002219463046FFF7F1FD0028CD
:104690003FF465AF8BE700F0F803D02B87D100F033
:1046A00007020132052342F4002201213046FFF7C0
:1046B000DFFD00283FF453AF79E700F00D030D2B29
:1046C0003FF475AF03AF002300F00F0219460097C7
:1046D0003046FFF7E9FB002300970D2219463046CC
:1046E000FFF708FC3BE72846FFF716FF020300F040
:1046F0000F00013002F470220323024319463046B2
:10470000FFF7B6FD00283FF42AAF50E72846FFF731
:1047100003FF431EDBB20E2B02467FF641AF46E796
:10472000B8F1000F40D0002042E72846FFF7F4FE22
:10473000431EDBB20E2B02463FF639AF00230421A5
:104740003046FFF795FD00283FF409AF2FE72846D4
:10475000FFF7E2FE020300F00F00013002F47022C6
:104760000123024319463046FFF782FD00283FF43B
:10477000F6AE1CE700F00F020132032342F42022C0
:1047800019463046FFF774FD00283FF4E8AE0EE707
:104790002846FFF7C1FE00F0F00200F00F031032D0
:1047A000013343EA023222E703AC434641460E227C
:1047B00000943046FFF778FB009443460F224146B1
:1047C0003046FFF797FBAEE700230DF10C090D22F1
:1047D0001946CDF800903046FFF766FB2846FFF7F4
:1047E0009BFE0206039C4FF002070BD500F07F00F2
:1047F000B840044428460394FFF78EFE030607F1F1
:104800000707F3D400FA07F204F5017422440023E9
:104810000392CDF800900D2219463046FFF76AFB4F
:104820009DE600BF08B5062000F0CAFA0120FDF79A
:104830000DF800BF024A0349034800F0C9B800BFA1
:10484000100000204D850008200000200C4B41681E
:10485000994210B5044601D003F078FEA168094BD7
:10486000994202D0204603F071FEE168064B99425E
:1048700004D02046BDE8104003F068BE10BD00BF64
:10488000540A0020BC0A0020240B00202DE9F84324
:10489000314C324B3248DFF8CC90DFF8CC80334FCC
:1048A0001860002529460423082204F15C00304EDC
:1048B000E360C4E90055C4E90455A5606566A561D7
:1048C00000F02CFA04F15800C4E90749C4E909874B
:1048D000E66200F03BFB2946264B6367082204F1A1
:1048E000C400C4E91A55C4E91E552567C4F8CC5064
:1048F000C4F8805000F012FA04F1680304F1C0001B
:10490000C4F88430C4E92298C4E9247600F01EFB80
:10491000194BC4F8DC30294604F596700822C4E926
:104920003455C4E93855C4F8D850C4F83451C4F8E3
:10493000E85000F0F3F904F1D003C4E93D87C4F86E
:10494000F09004F59470C4F8FC60C4F8EC30BDE855
:10495000F84300F0FBBA00BF540A00208C0B002083
:10496000354800088D4C0008B14C0008F14C000897
:10497000154D0008090001001200020010B50446A0
:104980000A4800F0E7FA636B23B9094B094A1B6830
:10499000626323B1BDE81040044800F0DDBAFFF7C0
:1049A00075FFBDE81040014800F0D6BA9C0B00200E
:1049B0008C0B00204D480008014800F0CBBA00BF26
:1049C0009C0B0020014800F0C7BA00BF9C0B0020E0
:1049D0002DE9F84380460F4616464FF00009D6E908
:1049E0000154013D11D4A389012B05F1FF3508D9EC
:1049F000B4F90E300133214603D04046B84749EAA6
:104A000000096B1C04F16804EDD13668002EE6D174
:104A10004846BDE8F88300BF0FB400B5074983B02E
:104A200004AB086853F8042B8168019300F0CEFEB4
:104A300003B05DF804EB04B0704700BF1C00002019
:104A400070B5054688B008460C46FCF7D9F8214EEB
:104A50006A6B059001214318CDE9066104A8022183
:104A600004940393AC6801900291002A2ED0626EE8
:104A7000B4F90C30D60701D4980521D5990406D491
:104A8000626E43F4005322F40052A381626628460A
:104A900001AA214603F078FE636E00280CBF0A25A8
:104AA0004FF0FF35DA0702D4A3899B0502D52846CB
:104AB00008B070BDA06D00F04FFA284608B070BD78
:104AC000A06D00F047FAB4F90C30D7E72846FFF79D
:104AD00055FFCCE714B10008024B01461868FFF7F8
:104AE000AFBF00BF1C0000202DE9F043664CD4F896
:104AF000008083B004460E4617461D46B8F1000FED
:104B000004D0D8F83430002B00F0A680022F05D056
:104B1000012F00F2A580002DC0F2A280636EDA079B
:104B200051D52146404603F005FE216B41B104F109
:104B30004003994202D0404600F07CFA00232363F0
:104B4000B4F90CC000231CF0800FA36163605DD139
:104B50002CF44A6C2CF0030C022FA4F80CC063D088
:104B600001AB6A462146404603F0F8FFA38918438B
:104B7000A081002D2ED0002E2DD0D8F83430002B5F
:104B800037D0009AB4F90C302660AA421CBF43F417
:104B90000063A381012F04BF43F00103A38113F03D
:104BA0000802C4E9046528D0D90753D50022A260C1
:104BB000626E6D42D207A56123D49B0521D4A06DFE
:104BC00000F0CAF91DE0A3899B05AAD4A06D00F0EE
:104BD000C1F9A6E7009D284600F02AFB06460028FA
:104BE00041D0A38943F08003A381D8F83430002B4F
:104BF000C7D14046FFF7C2FEC3E7A260626ED2078C
:104C0000DBD50025284603B0BDE8F0832169404686
:104C100000F010FAB4F90CC02CF44A6C2CF0030C20
:104C2000022FA4F80CC09BD100254CF00202A281F7
:104C3000002204F14303A2600122C4E9043223608C
:104C4000636ED807DED41CF4007FDBD1A06D00F0CA
:104C500083F9D7E7A560D1E74046FFF78FFE55E718
:104C60004FF0FF35CEE7DDF80090A94506D0484665
:104C700000F0DEFA064608B14D46B2E7B4F90CC0C2
:104C80004FF0FF35D1E700BF1C00002010B50C46E7
:104C9000B1F90E1000F0E8F8002803DB236D03449F
:104CA000236510BDA38923F48053A38110BD00BFE9
:104CB0002DE9F0410C46B1F90C101F46CB05054615
:104CC00016460BD421F48051A1813B46B4F90E1055
:104CD00032462846BDE8F04100F0F4B8B4F90E10B1
:104CE0000223002200F0AAF8B4F90C10EAE700BF92
:104CF00010B50C46B1F90E1000F0A0F8B4F90C3064
:104D0000421C0EBF23F4805343F480532065A381DB
:104D100010BD00BFB1F90E1000F07EB8830730B5AA
:104D200047D0541E002A3ED0CAB2034601E0013CDF
:104D300039D303F8012B9D07F9D1032C2CD9CDB21F
:104D400005EB05250F2C05EB054535D9A4F110021F
:104D500022F00F0C03F1100EE6444FEA121C1A4623
:104D6000156055609560D56010327245F8D10CF130
:104D7000010214F00C0F03EB021204F00F0C13D01D
:104D8000ACF1040323F003030433134442F8045B3F
:104D90009A42FBD10CF003042CB1C9B21C4403F8B5
:104DA000011B9C42FBD130BD64461346002CF4D15C
:104DB000F9E703461446C0E71A46A446E0E700BFF9
:104DC00038B5144B1F281D681ED8D5F81821044685
:104DD00062B152F820304BB1012B05D0591C0FD0D5
:104DE000002142F820109847002038BD284600F0E6
:104DF00067F8224601462846BDE8384000F04AB828
:104E000016232B60012038BD16232B604FF0FF3096
:104E100038BD00BF1C00002038B5074D00220446F5
:104E200008462A60FEF7EEFC431C00D038BD2B6814
:104E3000002BFBD0236038BD900B002038B50C460A
:104E4000084D8446114620461A4600232B606446CE
:104E5000FEF7E4FC431C00D038BD2B68002BFBD0D0
:104E6000236038BD900B002038B50C46084D8446B1
:104E7000114620461A4600232B606446FEF7D6FCF6
:104E8000431C00D038BD2B68002BFBD0236038BDFD
:104E9000900B002070B50C46084D034600262046B6
:104EA00011461C462E60FCF7C9FC431C00D070BDA7
:104EB0002B68002BFBD0236070BD00BF900B00203F
:104EC000FCF7BABC38B50C46084D8446114620465E
:104ED0001A4600232B606446FEF77AFC431C00D080
:104EE00038BD2B68002BFBD0236038BD900B002011
:104EF000014B1868704700BF1C00002070B50F4BB5
:104F00000F4DAB42A3EB050607D0B610002455F8B1
:104F1000043B01349847A642F9D805F063FF094DD8
:104F2000094B5E1BAB424FEAA60606D0002455F89B
:104F3000043B01349847A642F9D870BD28B6000852
:104F400028B6000828B6000830B60008704700BF31
:104F5000704700BF704700BF704700BF024B13B1DE
:104F6000024800F005B8704700000000498F0008B3
:104F7000002301461A46184604F040B82DE9F843CC
:104F800006460820894603F0F3FFDFF89C800546BB
:104F9000304600F00FFCD8F808305F6827F00307B0
:104FA000A7F11104A4EB09042C44B4FBF5F4013C73
:104FB00005FB04F4A54208DC0021304603F0B2FFF3
:104FC000D8F808303B44984205D0304600F0F8FB52
:104FD0000020BDE8F8836142304603F0A3FF0130B2
:104FE0000FD0124AD8F808303F1B47F001075F6026
:104FF000136830461B1B136000F0E2FB0120BDE884
:10500000F8830021304603F08DFFD8F80820831A7A
:105010000F2BDADD43F001035360054B03491B6896
:10502000C01A0860D1E700BF50010020A40B002087
:105030004401002000297CD0F8B50C46064600F05B
:10504000B9FB54F8043C774FA4F1080523F00101A3
:105050006818D7F808C04268844522F0030200F0BF
:105060008380DB07426000EB020C33D454F8084C19
:10507000DCF804302D1B2144AC6807F1080C6445B2
:1050800003F0010364D0D5F80CE0C4F80CE0CEF8CE
:105090000840002B00F0818041F001036B6001604B
:1050A000B1F5007F22D27868CB080122490901338B
:1050B0008A40024357F833107A6007EBC302083A7C
:1050C000C5E9021247F83350CD603046BDE8F840DC
:1050D00000F076BBDCF80430DB072BD541F0010390
:1050E000B1F5007F44F8043C0160DCD3B1F5206FDA
:1050F0004FEA512353D28B0903F1390003F13802EF
:10510000C300F818FB580838984203D163E09B6845
:10511000984204D05A6822F003028A42F7D8D8682D
:10512000C5E902308560DD603046BDE8F84000F03A
:1051300047BB7047114407F1080C836863453FD0B3
:10514000C268DA60936041F001036B606950A7E7C1
:10515000002B61D10A44D0E90213CB60996042F080
:1051600001036B60AA50B0E70A44D90707D454F88A
:10517000083CED1A1A44D5E90213CB60996042F05D
:1051800001036B60284BBD601B6893429DD8274B81
:1051900030461968FFF7F2FE97E71144CDE7142B6C
:1051A00008D9542B1FD80B0B03F16F0003F16E02CB
:1051B000C300A6E703F15C0003F15B02C300A0E7B4
:1051C00041F001033D617D61C5F808C0C5F80CC020
:1051D0006B60695079E779689210012404FA02F251
:1051E0000A437A609CE7B3F5AA7F06D8CB0B03F19C
:1051F000780003F17702C30083E740F254529342F0
:1052000006D88B0C03F17D0003F17C02C30078E724
:105210004FF47E737E2274E741F001036B600160FE
:1052200053E700BF5001002048010020D40B0020AC
:10523000024B0146186800F003B800BF1C000020B4
:105240002DE9F04F01F10B05162D85B0064624D847
:10525000102900F2B18000F0ADFA102518234FF0AC
:10526000020CBA4F3B44A3F108025C68944200F080
:1052700022816368E268A16823F00303CA602344C3
:10528000304691605A6842F001025A60083400F0DA
:1052900097FA204605B0BDE8F08F35F0070500F11C
:1052A0008B80A94200F2888000F084FAB5F5FC7F7B
:1052B000C0F073816B0A00F08380042B00F222811E
:1052C000AB0903F1390C03F1380E4FEACC039F4FC1
:1052D0003B44A3F108005C68A04207D10DE0002A1E
:1052E000E16880F2E280884207D00C46636823F0D0
:1052F00003035A1B0F2AF2DDF446DFF854823C699F
:10530000444500F0BF80636823F00309A9EB05035F
:105310000F2B00F34781002BC7E9048880F231810D
:10532000B9F5007FD7F804E080F0CC804FEAD901CE
:1053300001314FEA5919012303FA09F357F83120D3
:10534000A2604EEA030E07EBC103083BE360C7F817
:1053500004E047F83140D4604FEAAC0301209840A4
:10536000704534D810EA0E0F07D12CF0030C400022
:1053700010EA0E0F0CF1040CF9D007EBCC0A5246E0
:10538000E146D1680EE04B6823F00303A3EB050E62
:10539000BEF10F0F0C46C96800F3C180BEF1000FCB
:1053A00080F2E2808A42EED109F1010919F0030F7F
:1053B00002F10802E5D121E10C233360002468E703
:1053C0004FF400734FF0400C4FF03F0E7FE7BC6886
:1053D000636823F00309A94503D3A9EB05030F2B49
:1053E00053DC5C4BDFF870B11B68082003F1100838
:1053F00003F0BEFDDBF8003001900133A84404EB5C
:10540000090205D008F1FF388044434203EA080846
:1054100041463046029203F085FDB0F1FF3F029A0B
:10542000824600F0DC80824200F2D7804B4B01992B
:105430001868404401F1FF311860844640F0FC8058
:105440001AEA010F40F0F880D7F808A0C84448F0E5
:105450000102CAF80420424B1968814238BF186023
:10546000404B1968814238BF1860544622F0030847
:10547000A845A8EB050301D30F2B06DC304600F04E
:105480009FF99BE7D7F804E066E7621943F0010350
:1054900045F0010565603046BA60536000F090F950
:1054A0000834204605B0BDE8F08FA2682344D160DF
:1054B00030468A60E6E6DC68A3427FF4DAAE0CF19F
:1054C000020C1AE7B9F5206F4FEA59227ED3142A4D
:1054D00000F2158102F15C03DB005B32F918FB5826
:1054E0000839994203D1F0E09B68994204D05A6888
:1054F00022F003024A45F7D8D968C4E902318C602A
:10550000DC6029E7142B6DD9542B00F201812B0BA1
:1055100003F16F0C03F16E0E4FEACC03D7E6304671
:10552000A668621945F001056560F1608E604EF075
:105530000101C7E90422C2F80880C2F80C8051605A
:1055400044F803E000F03CF90834A2E650010020E2
:1055500058010020D40B002044010020A40B00209F
:10556000D00B0020CC0B0020234430465A6842F078
:1055700001025A6054F8083FD9608B6000F020F9AE
:1055800087E6A1443046D9F8043043F00103C9F856
:105590000430083400F014F97BE64FEAD50C05F12D
:1055A00008035EE6621943F0010145F001056560FC
:1055B0003046C7E90422C2F80880C2F80C80516066
:1055C00044F8093000F0FCF8083462E64FEA99121A
:1055D00002F13903DB00383280E7BC4224D0BC68DA
:1055E000626843E703F15C0C03F15B0E4FEACC0306
:1055F0006DE65AF80839534540F0D8801CF0030F87
:105600000CF1FF3CF5D17B6823EA00037B6040008E
:1056100098423FF6DCAE18B9D9E6400009F104091A
:105620001842FAD0CC46A8E6614B0199186808EBFD
:10563000000C0139C3F800C0DBF8000001301BBFCB
:10564000AAEB02026244CBF800A01A601AF007022B
:10565000CDE9022342D0C2F10802019B9244D0441A
:10566000134408EA01001A1A02EA010B59463046AF
:1056700003F058FC421C039B7AD0A0EB0A0000EB1D
:105680000B081868C7F808A048F001025844BC424B
:10569000CAF8042018603FF4DEAEB9F10F0F42D90A
:1056A0006168A9F10C0222F0070201F00101114327
:1056B0006160A1184FF0050C0F2AC1F804C0C1F8B1
:1056C00008C04AD8DAF80420C5E69210012000FA92
:1056D00002F24EEA020EC7F804E00EE7019B0AEB65
:1056E00008020A409A1A02EA010B5946304603F0B2
:1056F00019FC431C039BC0D1DDF808B0C1E7542A54
:1057000015D84FEA193202F16F03DB006E32E5E67D
:10571000B3F5AA7F15D8EB0B03F1780C03F1770EE4
:105720004FEACC03D3E50123CAF80430A6E6B2F56C
:10573000AA7F25D84FEAD93202F17803DB0077320D
:10574000CCE640F25452934225D8AB0C03F17D0CC9
:1057500003F17C0E4FEACC03B9E5304604F10801B1
:105760000193FFF767FC019BD7F808A01868A9E729
:10577000029A083A9044A8EB0A084FF0000B80E721
:1057800040F254539A420DD84FEA994202F17D03F8
:10579000DB007C32A2E64FF47E734FF07F0C4FF0BB
:1057A0007E0E94E54FF47E737E2297E67B682EE7AB
:1057B000A40B00200148FFF7CDBB00BF940B0020D5
:1057C0000148FFF7C9BB00BF940B00202DE9F04F43
:1057D000DFB01C4607919146834603F077FB0368D0
:1057E00019931846FBF70CFA0822189000212EA8EE
:1057F0000D94FFF793FABBF1000F04D0DBF83430BF
:10580000002B01F07F80079B5A6EB3F90C30D5074F
:1058100002D4980540F19F86990407D407994A6EEF
:1058200043F4005322F400528B814A661A0740F178
:10583000CC80079A1269002A00F0C78003F01A0290
:105840000A2A00F0D1800023CDE93333CDE91B33A0
:10585000CDE91D3313931A930A9300240023CDE955
:10586000163435AA32929046CDF820B04D46089FA6
:105870002E468D4BD3F8E44003F022FB03462EA8BE
:10588000009032462AA93846A047002800F0CB8075
:10589000C0F2C1802A9A252A034601D01E44E8E7B7
:1058A000771B044640F0C28000238DF89F30994654
:1058B0000B934FF0FF3273780992741C0134A3F1FB
:1058C00020025A2A00F2F280DFE812F0C702F0004C
:1058D000F000C302F000F000F0006A00F000F000F9
:1058E0007D02A002F0008802A902F000A5025B0080
:1058F0005B005B005B005B005B005B005B005B00D0
:10590000F000F000F000F000F000F000F000710195
:10591000F00008022203710171017101F000F00032
:10592000F000F0001E03F000F000DA02F000F000DA
:10593000F0002602F0000B03F000F0001707F00063
:10594000F000F000F000F000F000F000F000710155
:10595000F0000802580271017101710196025802AB
:105960000402F0008C02F0004D033F073B030402E9
:10597000F00026027D003A07F000F0004307F00037
:105980007D00A3F13002002114F8013B01EB8101FD
:1059900002EB4101A3F13002092AF5D90B918EE700
:1059A000089F384603F092FA43681D931846FBF7A8
:1059B00027F91E900646384603F088FA83681B9341
:1059C000002E40F02186237878E7079D5846294627
:1059D00003F0F4F8002841F0A683B5F90C3003F089
:1059E0001A020A2A7FF42FAF0799B1F90E20002A74
:1059F000FFF629AF4A6ED50702D4980541F1BF8161
:105A0000079923464A46584601F004FD0A900A9831
:105A10005FB0BDE8F08F082200212EA8FFF77EF9C5
:105A200001231E4425E7771B044611D0349B3B44D9
:105A30003493339B0133072BC8E90057339313DCAE
:105A400008F108080A9B3B440A93002C7FF42CAF12
:105A5000349BDDF820B0002B41F0D680079B00225C
:105A6000B3F90C30339212E0DDE9071032AA01F0ED
:105A70004DFD48B90DF1D408E4E7BB460C9B1BB1C2
:105A80000C995846FFF7D6FA079BB3F90C30079AE2
:105A9000526ED40740F11481590601F150830A98DF
:105AA0005FB0BDE8F08F00BF58050020CDE90E348F
:105AB000002BCDD000228DF8143101238DF89F20CA
:105AC00006930C929B46099214921092129245AD45
:105AD00019F0020302D006990231069119F08407E9
:105AE000349C05D10B9906980E1A002E00F3A7805E
:105AF00082B10122C8F80420339A013201340DF139
:105B00009F01072A34943392C8F8001000F3E18310
